{
  "contractName": "Betting",
  "abi": [
    {
      "inputs": [],
      "stateMutability": "nonpayable",
      "type": "constructor"
    },
    {
      "anonymous": false,
      "inputs": [
        {
          "indexed": true,
          "internalType": "address",
          "name": "_sender",
          "type": "address"
        },
        {
          "indexed": false,
          "internalType": "uint256",
          "name": "_amount",
          "type": "uint256"
        },
        {
          "indexed": false,
          "internalType": "uint256",
          "name": "_userBalance",
          "type": "uint256"
        }
      ],
      "name": "LogAddFunds",
      "type": "event"
    },
    {
      "anonymous": false,
      "inputs": [
        {
          "indexed": false,
          "internalType": "string",
          "name": "_teamA",
          "type": "string"
        },
        {
          "indexed": false,
          "internalType": "string",
          "name": "_teamB",
          "type": "string"
        },
        {
          "indexed": true,
          "internalType": "uint256",
          "name": "_startTime",
          "type": "uint256"
        },
        {
          "indexed": true,
          "internalType": "uint256",
          "name": "_endTime",
          "type": "uint256"
        }
      ],
      "name": "LogAddGame",
      "type": "event"
    },
    {
      "anonymous": false,
      "inputs": [
        {
          "indexed": true,
          "internalType": "uint256",
          "name": "_gameId",
          "type": "uint256"
        }
      ],
      "name": "LogCloseGame",
      "type": "event"
    },
    {
      "anonymous": false,
      "inputs": [
        {
          "indexed": true,
          "internalType": "uint256",
          "name": "_gameId",
          "type": "uint256"
        }
      ],
      "name": "LogDisburseBetFunds",
      "type": "event"
    },
    {
      "anonymous": false,
      "inputs": [
        {
          "indexed": true,
          "internalType": "address",
          "name": "_address",
          "type": "address"
        }
      ],
      "name": "LogSignInUser",
      "type": "event"
    },
    {
      "anonymous": false,
      "inputs": [
        {
          "indexed": true,
          "internalType": "address",
          "name": "_user",
          "type": "address"
        },
        {
          "indexed": true,
          "internalType": "uint256",
          "name": "_gameId",
          "type": "uint256"
        },
        {
          "indexed": false,
          "internalType": "string",
          "name": "_sideToWin",
          "type": "string"
        },
        {
          "indexed": false,
          "internalType": "uint256",
          "name": "_betStakeAmount",
          "type": "uint256"
        },
        {
          "indexed": false,
          "internalType": "uint256",
          "name": "_userBalance",
          "type": "uint256"
        }
      ],
      "name": "LogSubmitBet",
      "type": "event"
    },
    {
      "anonymous": false,
      "inputs": [
        {
          "indexed": true,
          "internalType": "uint256",
          "name": "_gameId",
          "type": "uint256"
        },
        {
          "indexed": false,
          "internalType": "string",
          "name": "_winner",
          "type": "string"
        }
      ],
      "name": "LogUpdateGameWinner",
      "type": "event"
    },
    {
      "anonymous": false,
      "inputs": [
        {
          "indexed": true,
          "internalType": "address",
          "name": "_to",
          "type": "address"
        },
        {
          "indexed": false,
          "internalType": "uint256",
          "name": "_amount",
          "type": "uint256"
        }
      ],
      "name": "LogWithdrawFunds",
      "type": "event"
    },
    {
      "inputs": [
        {
          "internalType": "address",
          "name": "",
          "type": "address"
        },
        {
          "internalType": "uint256",
          "name": "",
          "type": "uint256"
        }
      ],
      "name": "allBets",
      "outputs": [
        {
          "internalType": "string",
          "name": "teamToWin",
          "type": "string"
        },
        {
          "internalType": "bytes32",
          "name": "teamToWinHash",
          "type": "bytes32"
        },
        {
          "internalType": "uint256",
          "name": "totalAmountStaked",
          "type": "uint256"
        }
      ],
      "stateMutability": "view",
      "type": "function",
      "constant": true
    },
    {
      "inputs": [],
      "name": "gameId",
      "outputs": [
        {
          "internalType": "uint256",
          "name": "",
          "type": "uint256"
        }
      ],
      "stateMutability": "view",
      "type": "function",
      "constant": true
    },
    {
      "inputs": [
        {
          "internalType": "uint256",
          "name": "",
          "type": "uint256"
        }
      ],
      "name": "games",
      "outputs": [
        {
          "internalType": "uint256",
          "name": "gameId",
          "type": "uint256"
        },
        {
          "internalType": "string",
          "name": "teamA",
          "type": "string"
        },
        {
          "internalType": "string",
          "name": "teamB",
          "type": "string"
        },
        {
          "internalType": "string",
          "name": "winner",
          "type": "string"
        },
        {
          "internalType": "uint256",
          "name": "totalAmountStaked",
          "type": "uint256"
        },
        {
          "internalType": "uint256",
          "name": "usersCount",
          "type": "uint256"
        },
        {
          "internalType": "uint256",
          "name": "startTime",
          "type": "uint256"
        },
        {
          "internalType": "uint256",
          "name": "endTime",
          "type": "uint256"
        },
        {
          "internalType": "bool",
          "name": "isOpen",
          "type": "bool"
        }
      ],
      "stateMutability": "view",
      "type": "function",
      "constant": true
    },
    {
      "inputs": [],
      "name": "owner",
      "outputs": [
        {
          "internalType": "address",
          "name": "",
          "type": "address"
        }
      ],
      "stateMutability": "view",
      "type": "function",
      "constant": true
    },
    {
      "inputs": [
        {
          "internalType": "address",
          "name": "",
          "type": "address"
        }
      ],
      "name": "users",
      "outputs": [
        {
          "internalType": "bool",
          "name": "",
          "type": "bool"
        }
      ],
      "stateMutability": "view",
      "type": "function",
      "constant": true
    },
    {
      "inputs": [
        {
          "internalType": "address",
          "name": "",
          "type": "address"
        }
      ],
      "name": "usersBalance",
      "outputs": [
        {
          "internalType": "uint256",
          "name": "",
          "type": "uint256"
        }
      ],
      "stateMutability": "view",
      "type": "function",
      "constant": true
    },
    {
      "inputs": [
        {
          "internalType": "address",
          "name": "",
          "type": "address"
        },
        {
          "internalType": "uint256",
          "name": "",
          "type": "uint256"
        }
      ],
      "name": "usersBetList",
      "outputs": [
        {
          "internalType": "uint256",
          "name": "",
          "type": "uint256"
        }
      ],
      "stateMutability": "view",
      "type": "function",
      "constant": true
    },
    {
      "inputs": [
        {
          "internalType": "address",
          "name": "_address",
          "type": "address"
        }
      ],
      "name": "signInUser",
      "outputs": [],
      "stateMutability": "nonpayable",
      "type": "function"
    },
    {
      "inputs": [
        {
          "internalType": "address",
          "name": "_address",
          "type": "address"
        }
      ],
      "name": "signInStatus",
      "outputs": [
        {
          "internalType": "bool",
          "name": "",
          "type": "bool"
        }
      ],
      "stateMutability": "view",
      "type": "function",
      "constant": true
    },
    {
      "inputs": [],
      "name": "addFunds",
      "outputs": [],
      "stateMutability": "payable",
      "type": "function",
      "payable": true
    },
    {
      "inputs": [
        {
          "internalType": "address payable",
          "name": "_to",
          "type": "address"
        },
        {
          "internalType": "uint256",
          "name": "_amount",
          "type": "uint256"
        }
      ],
      "name": "withdrawFunds",
      "outputs": [
        {
          "internalType": "uint256",
          "name": "",
          "type": "uint256"
        }
      ],
      "stateMutability": "payable",
      "type": "function",
      "payable": true
    },
    {
      "inputs": [
        {
          "internalType": "string",
          "name": "teamA",
          "type": "string"
        },
        {
          "internalType": "string",
          "name": "teamB",
          "type": "string"
        },
        {
          "internalType": "uint256",
          "name": "startTime",
          "type": "uint256"
        },
        {
          "internalType": "uint256",
          "name": "endTime",
          "type": "uint256"
        }
      ],
      "name": "addGame",
      "outputs": [],
      "stateMutability": "nonpayable",
      "type": "function"
    },
    {
      "inputs": [
        {
          "internalType": "uint256",
          "name": "_gameId",
          "type": "uint256"
        }
      ],
      "name": "closeGame",
      "outputs": [],
      "stateMutability": "nonpayable",
      "type": "function"
    },
    {
      "inputs": [],
      "name": "getAllGames",
      "outputs": [
        {
          "components": [
            {
              "internalType": "uint256",
              "name": "gameId",
              "type": "uint256"
            },
            {
              "internalType": "string",
              "name": "teamA",
              "type": "string"
            },
            {
              "internalType": "string",
              "name": "teamB",
              "type": "string"
            },
            {
              "internalType": "string",
              "name": "winner",
              "type": "string"
            },
            {
              "internalType": "uint256",
              "name": "totalAmountStaked",
              "type": "uint256"
            },
            {
              "internalType": "uint256",
              "name": "usersCount",
              "type": "uint256"
            },
            {
              "internalType": "uint256",
              "name": "startTime",
              "type": "uint256"
            },
            {
              "internalType": "uint256",
              "name": "endTime",
              "type": "uint256"
            },
            {
              "internalType": "bool",
              "name": "isOpen",
              "type": "bool"
            }
          ],
          "internalType": "struct Betting.Game[]",
          "name": "",
          "type": "tuple[]"
        }
      ],
      "stateMutability": "view",
      "type": "function",
      "constant": true
    },
    {
      "inputs": [],
      "name": "getUserBetsHistory",
      "outputs": [
        {
          "components": [
            {
              "internalType": "uint256",
              "name": "gameId",
              "type": "uint256"
            },
            {
              "internalType": "string",
              "name": "teamA",
              "type": "string"
            },
            {
              "internalType": "string",
              "name": "teamB",
              "type": "string"
            },
            {
              "internalType": "string",
              "name": "winner",
              "type": "string"
            },
            {
              "internalType": "uint256",
              "name": "gameTotalAmountStaked",
              "type": "uint256"
            },
            {
              "internalType": "uint256",
              "name": "usersCount",
              "type": "uint256"
            },
            {
              "internalType": "uint256",
              "name": "startTime",
              "type": "uint256"
            },
            {
              "internalType": "uint256",
              "name": "endTime",
              "type": "uint256"
            },
            {
              "internalType": "string",
              "name": "teamToWin",
              "type": "string"
            },
            {
              "internalType": "bytes32",
              "name": "teamToWinHash",
              "type": "bytes32"
            },
            {
              "internalType": "uint256",
              "name": "userTotalAmountStaked",
              "type": "uint256"
            },
            {
              "internalType": "uint256",
              "name": "userStakePercentage",
              "type": "uint256"
            }
          ],
          "internalType": "struct Betting.History[]",
          "name": "",
          "type": "tuple[]"
        }
      ],
      "stateMutability": "view",
      "type": "function",
      "constant": true
    },
    {
      "inputs": [
        {
          "internalType": "uint256",
          "name": "_gameId",
          "type": "uint256"
        },
        {
          "internalType": "string",
          "name": "_teamToWin",
          "type": "string"
        },
        {
          "internalType": "uint256",
          "name": "_betStakeAmount",
          "type": "uint256"
        }
      ],
      "name": "submitBet",
      "outputs": [],
      "stateMutability": "nonpayable",
      "type": "function"
    },
    {
      "inputs": [
        {
          "internalType": "uint256",
          "name": "_gameId",
          "type": "uint256"
        },
        {
          "internalType": "string",
          "name": "_winner",
          "type": "string"
        }
      ],
      "name": "updateGameWinner",
      "outputs": [],
      "stateMutability": "nonpayable",
      "type": "function"
    },
    {
      "inputs": [
        {
          "internalType": "uint256",
          "name": "_gameId",
          "type": "uint256"
        }
      ],
      "name": "disburseBetFunds",
      "outputs": [
        {
          "internalType": "bool",
          "name": "",
          "type": "bool"
        }
      ],
      "stateMutability": "nonpayable",
      "type": "function"
    }
  ],
  "bytecode": "0x608060405234801561001057600080fd5b50336000806101000a81548173ffffffffffffffffffffffffffffffffffffffff021916908373ffffffffffffffffffffffffffffffffffffffff160217905550600160028190555060006001819055506136b5806100706000396000f3fe6080604052600436106101095760003560e01c8063a50fdbdc11610095578063c4d0500a11610064578063c4d0500a14610367578063d098067d146103a4578063d17f538f146103e1578063d7c81b5514610420578063db1c45f91461044b57610109565b8063a50fdbdc146102a8578063a84d1af0146102d1578063a87430ba146102fa578063c10753291461033757610109565b80638105c676116100dc5780638105c676146101e45780638da5cb5b14610221578063988800431461024c5780639c2f8f4f14610275578063a26759cb1461029e57610109565b8063117a5b901461010e5780631ab75fa4146101535780632d6ef3101461017e57806358324335146101a7575b600080fd5b34801561011a57600080fd5b5061013560048036038101906101309190612748565b610476565b60405161014a999897969594939291906133aa565b60405180910390f35b34801561015f57600080fd5b50610168610699565b60405161017591906130dd565b60405180910390f35b34801561018a57600080fd5b506101a560048036038101906101a09190612748565b610c34565b005b3480156101b357600080fd5b506101ce60048036038101906101c99190612614565b610d8b565b6040516101db919061338f565b60405180910390f35b3480156101f057600080fd5b5061020b60048036038101906102069190612679565b610da3565b604051610218919061338f565b60405180910390f35b34801561022d57600080fd5b50610236610dd1565b60405161024391906130a0565b60405180910390f35b34801561025857600080fd5b50610273600480360381019061026e91906126b5565b610df5565b005b34801561028157600080fd5b5061029c60048036038101906102979190612771565b611013565b005b6102a66111df565b005b3480156102b457600080fd5b506102cf60048036038101906102ca9190612614565b611350565b005b3480156102dd57600080fd5b506102f860048036038101906102f391906127c5565b61151d565b005b34801561030657600080fd5b50610321600480360381019061031c9190612614565b611abf565b60405161032e91906130ff565b60405180910390f35b610351600480360381019061034c919061263d565b611adf565b60405161035e919061338f565b60405180910390f35b34801561037357600080fd5b5061038e60048036038101906103899190612614565b611d49565b60405161039b91906130ff565b60405180910390f35b3480156103b057600080fd5b506103cb60048036038101906103c69190612748565b611d9f565b6040516103d891906130ff565b60405180910390f35b3480156103ed57600080fd5b5061040860048036038101906104039190612679565b611e35565b6040516104179392919061313c565b60405180910390f35b34801561042c57600080fd5b50610435611f04565b604051610442919061338f565b60405180910390f35b34801561045757600080fd5b50610460611f0a565b60405161046d91906130bb565b60405180910390f35b6006602052806000526040600020600091509050806000015490806001018054600181600116156101000203166002900480601f0160208091040260200160405190810160405280929190818152602001828054600181600116156101000203166002900480156105285780601f106104fd57610100808354040283529160200191610528565b820191906000526020600020905b81548152906001019060200180831161050b57829003601f168201915b505050505090806002018054600181600116156101000203166002900480601f0160208091040260200160405190810160405280929190818152602001828054600181600116156101000203166002900480156105c65780601f1061059b576101008083540402835291602001916105c6565b820191906000526020600020905b8154815290600101906020018083116105a957829003601f168201915b505050505090806003018054600181600116156101000203166002900480601f0160208091040260200160405190810160405280929190818152602001828054600181600116156101000203166002900480156106645780601f1061063957610100808354040283529160200191610664565b820191906000526020600020905b81548152906001019060200180831161064757829003601f168201915b5050505050908060040154908060050154908060060154908060070154908060080160009054906101000a900460ff16905089565b60606000600560003373ffffffffffffffffffffffffffffffffffffffff1673ffffffffffffffffffffffffffffffffffffffff16815260200190815260200160002080549050905060608167ffffffffffffffff811180156106fb57600080fd5b5060405190808252806020026020018201604052801561073557816020015b61072261240e565b81526020019060019003908161071a5790505b50905060005b82811015610c2b576000600560003373ffffffffffffffffffffffffffffffffffffffff1673ffffffffffffffffffffffffffffffffffffffff168152602001908152602001600020828154811061078f57fe5b906000526020600020015490506107a4612472565b600660008381526020019081526020016000206040518061012001604052908160008201548152602001600182018054600181600116156101000203166002900480601f0160208091040260200160405190810160405280929190818152602001828054600181600116156101000203166002900480156108665780601f1061083b57610100808354040283529160200191610866565b820191906000526020600020905b81548152906001019060200180831161084957829003601f168201915b50505050508152602001600282018054600181600116156101000203166002900480601f0160208091040260200160405190810160405280929190818152602001828054600181600116156101000203166002900480156109085780601f106108dd57610100808354040283529160200191610908565b820191906000526020600020905b8154815290600101906020018083116108eb57829003601f168201915b50505050508152602001600382018054600181600116156101000203166002900480601f0160208091040260200160405190810160405280929190818152602001828054600181600116156101000203166002900480156109aa5780601f1061097f576101008083540402835291602001916109aa565b820191906000526020600020905b81548152906001019060200180831161098d57829003601f168201915b50505050508152602001600482015481526020016005820154815260200160068201548152602001600782015481526020016008820160009054906101000a900460ff1615151515815250509050610a006124c0565b600760003373ffffffffffffffffffffffffffffffffffffffff1673ffffffffffffffffffffffffffffffffffffffff1681526020019081526020016000206000848152602001908152602001600020604051806060016040529081600082018054600181600116156101000203166002900480601f016020809104026020016040519081016040528092919081815260200182805460018160011615610100020316600290048015610af45780601f10610ac957610100808354040283529160200191610af4565b820191906000526020600020905b815481529060010190602001808311610ad757829003601f168201915b50505050508152602001600182015481526020016002820154815250509050610b1b61240e565b8381600001818152505082602001518160200181905250826040015181604001819052508260c001518160c00181815250508260e001518160e001818152505082608001518160800181815250508260a001518160a00181815250508260600151816060018190525081600001518161010001819052508160200151816101200181815250508160400151816101400181815250506000610bf46064610be68660800151610bd861271088604001516121f990919063ffffffff16565b61226990919063ffffffff16565b6121f990919063ffffffff16565b9050808261016001818152505081878781518110610c0e57fe5b60200260200101819052505050505050808060010191505061073b565b50809250505090565b60008054906101000a900473ffffffffffffffffffffffffffffffffffffffff1673ffffffffffffffffffffffffffffffffffffffff163373ffffffffffffffffffffffffffffffffffffffff1614610cc2576040517f08c379a0000000000000000000000000000000000000000000000000000000008152600401610cb99061324f565b60405180910390fd5b600115156006600083815260200190815260200160002060080160009054906101000a900460ff16151514610d2c576040517f08c379a0000000000000000000000000000000000000000000000000000000008152600401610d239061336f565b60405180910390fd5b60006006600083815260200190815260200160002060080160006101000a81548160ff021916908315150217905550807f24a5dbf244dd4fdeabd46c3805b8bd07f9b99e43d2209810e9ed7a90d649429560405160405180910390a250565b60046020528060005260406000206000915090505481565b60056020528160005260406000208181548110610dbc57fe5b90600052602060002001600091509150505481565b60008054906101000a900473ffffffffffffffffffffffffffffffffffffffff1681565b60008054906101000a900473ffffffffffffffffffffffffffffffffffffffff1673ffffffffffffffffffffffffffffffffffffffff163373ffffffffffffffffffffffffffffffffffffffff1614610e83576040517f08c379a0000000000000000000000000000000000000000000000000000000008152600401610e7a9061324f565b60405180910390fd5b610e8b612472565b600254816000018181525050848160200181905250838160400181905250604051806020016040528060008152508160600181905250600081608001818152505060008160a0018181525050828160c0018181525050818160e001818152505060018161010001901515908115158152505080600660006002548152602001908152602001600020600082015181600001556020820151816001019080519060200190610f399291906124e4565b506040820151816002019080519060200190610f569291906124e4565b506060820151816003019080519060200190610f739291906124e4565b506080820151816004015560a0820151816005015560c0820151816006015560e082015181600701556101008201518160080160006101000a81548160ff021916908315150217905550905050600160026000828254019250508190555081837f0bfce854c1cd16d4f0808949802d6262e3a086711bc7968a170a112860975f63878760405161100492919061317a565b60405180910390a35050505050565b60008054906101000a900473ffffffffffffffffffffffffffffffffffffffff1673ffffffffffffffffffffffffffffffffffffffff163373ffffffffffffffffffffffffffffffffffffffff16146110a1576040517f08c379a00000000000000000000000000000000000000000000000000000000081526004016110989061324f565b60405180910390fd5b600015156006600084815260200190815260200160002060080160009054906101000a900460ff1615151461110b576040517f08c379a0000000000000000000000000000000000000000000000000000000008152600401611102906132ef565b60405180910390fd5b60006006600084815260200190815260200160002060030180546001816001161561010002031660029004905014611178576040517f08c379a000000000000000000000000000000000000000000000000000000000815260040161116f9061330f565b60405180910390fd5b806006600084815260200190815260200160002060030190805190602001906111a29291906124e4565b50817f1da28083458e812c85b645713b82ac43e2ca08cf842ba14d6a80bd456967527f826040516111d3919061311a565b60405180910390a25050565b60011515600360003373ffffffffffffffffffffffffffffffffffffffff1673ffffffffffffffffffffffffffffffffffffffff16815260200190815260200160002060009054906101000a900460ff16151514611272576040517f08c379a00000000000000000000000000000000000000000000000000000000081526004016112699061320f565b60405180910390fd5b34600460003373ffffffffffffffffffffffffffffffffffffffff1673ffffffffffffffffffffffffffffffffffffffff168152602001908152602001600020600082825401925050819055503373ffffffffffffffffffffffffffffffffffffffff167f938318a96a1b6034221032f1d0f084a342ae89cb9ea9e811f1a5b9dfa7dc1bed34600460003373ffffffffffffffffffffffffffffffffffffffff1673ffffffffffffffffffffffffffffffffffffffff1681526020019081526020016000205460405161134692919061344c565b60405180910390a2565b60008054906101000a900473ffffffffffffffffffffffffffffffffffffffff1673ffffffffffffffffffffffffffffffffffffffff168173ffffffffffffffffffffffffffffffffffffffff1614156113df576040517f08c379a00000000000000000000000000000000000000000000000000000000081526004016113d6906132cf565b60405180910390fd5b60011515600360008373ffffffffffffffffffffffffffffffffffffffff1673ffffffffffffffffffffffffffffffffffffffff16815260200190815260200160002060009054906101000a900460ff16151515141561151a576001600360008373ffffffffffffffffffffffffffffffffffffffff1673ffffffffffffffffffffffffffffffffffffffff16815260200190815260200160002060006101000a81548160ff0219169083151502179055506000600460008373ffffffffffffffffffffffffffffffffffffffff1673ffffffffffffffffffffffffffffffffffffffff168152602001908152602001600020819055508073ffffffffffffffffffffffffffffffffffffffff167fc743ccff48012312e9853b6c664d256dbf986977bccfdc1185848ef09092011f60405160405180910390a25b50565b60011515600360003373ffffffffffffffffffffffffffffffffffffffff1673ffffffffffffffffffffffffffffffffffffffff16815260200190815260200160002060009054906101000a900460ff161515146115b0576040517f08c379a00000000000000000000000000000000000000000000000000000000081526004016115a79061320f565b60405180910390fd5b80600460003373ffffffffffffffffffffffffffffffffffffffff1673ffffffffffffffffffffffffffffffffffffffff16815260200190815260200160002054811115611633576040517f08c379a000000000000000000000000000000000000000000000000000000000815260040161162a9061328f565b60405180910390fd5b600115156006600086815260200190815260200160002060080160009054906101000a900460ff1615151461169d576040517f08c379a00000000000000000000000000000000000000000000000000000000081526004016116949061322f565b60405180910390fd5b600082116116e0576040517f08c379a00000000000000000000000000000000000000000000000000000000081526004016116d79061332f565b60405180910390fd5b60003390506000846040516020016116f89190613074565b6040516020818303038152906040528051906020012090506000600760008473ffffffffffffffffffffffffffffffffffffffff1673ffffffffffffffffffffffffffffffffffffffff168152602001908152602001600020600088815260200190815260200160002090506000816002015414156118cb576117796124c0565b8681600001819052508281602001818152505085816040018181525050600560008573ffffffffffffffffffffffffffffffffffffffff1673ffffffffffffffffffffffffffffffffffffffff16815260200190815260200160002088908060018154018082558091505060019003906000526020600020016000909190919091505580600760008673ffffffffffffffffffffffffffffffffffffffff1673ffffffffffffffffffffffffffffffffffffffff16815260200190815260200160002060008a815260200190815260200160002060008201518160000190805190602001906118699291906124e4565b5060208201518160010155604082015181600201559050506118ab6001600660008b8152602001908152602001600020600501546122b390919063ffffffff16565b600660008a81526020019081526020016000206005018190555050611931565b81816001015414611911576040517f08c379a0000000000000000000000000000000000000000000000000000000008152600401611908906131ef565b60405180910390fd5b6119288582600201546122b390919063ffffffff16565b81600201819055505b61198385600460008673ffffffffffffffffffffffffffffffffffffffff1673ffffffffffffffffffffffffffffffffffffffff1681526020019081526020016000205461230890919063ffffffff16565b600460008573ffffffffffffffffffffffffffffffffffffffff1673ffffffffffffffffffffffffffffffffffffffff168152602001908152602001600020819055506119ef85600660008a8152602001908152602001600020600401546122b390919063ffffffff16565b6006600089815260200190815260200160002060040181905550611a1e856001546122b390919063ffffffff16565b600181905550863373ffffffffffffffffffffffffffffffffffffffff167fa9f47223c151f2e248554dd2758229dceb80a21de3877f60ae604e35468cf4ef8888600460003373ffffffffffffffffffffffffffffffffffffffff1673ffffffffffffffffffffffffffffffffffffffff16815260200190815260200160002054604051611aae939291906131b1565b60405180910390a350505050505050565b60036020528060005260406000206000915054906101000a900460ff1681565b600060011515600360003373ffffffffffffffffffffffffffffffffffffffff1673ffffffffffffffffffffffffffffffffffffffff16815260200190815260200160002060009054906101000a900460ff16151514611b74576040517f08c379a0000000000000000000000000000000000000000000000000000000008152600401611b6b9061320f565b60405180910390fd5b81600460003373ffffffffffffffffffffffffffffffffffffffff1673ffffffffffffffffffffffffffffffffffffffff16815260200190815260200160002054811115611bf7576040517f08c379a0000000000000000000000000000000000000000000000000000000008152600401611bee9061328f565b60405180910390fd5b82600460003373ffffffffffffffffffffffffffffffffffffffff1673ffffffffffffffffffffffffffffffffffffffff1681526020019081526020016000206000828254039250508190555060008473ffffffffffffffffffffffffffffffffffffffff1684604051611c6a9061308b565b60006040518083038185875af1925050503d8060008114611ca7576040519150601f19603f3d011682016040523d82523d6000602084013e611cac565b606091505b5050905080611cf0576040517f08c379a0000000000000000000000000000000000000000000000000000000008152600401611ce79061334f565b60405180910390fd5b3373ffffffffffffffffffffffffffffffffffffffff167f333d9f35320f28a9518fc6083975ac7d7465f020712cda7608ca073ea651f26485604051611d36919061338f565b60405180910390a2839250505092915050565b6000600360008373ffffffffffffffffffffffffffffffffffffffff1673ffffffffffffffffffffffffffffffffffffffff16815260200190815260200160002060009054906101000a900460ff169050919050565b60008060009054906101000a900473ffffffffffffffffffffffffffffffffffffffff1673ffffffffffffffffffffffffffffffffffffffff163373ffffffffffffffffffffffffffffffffffffffff1614611e30576040517f08c379a0000000000000000000000000000000000000000000000000000000008152600401611e279061324f565b60405180910390fd5b919050565b600760205281600052604060002060205280600052604060002060009150915050806000018054600181600116156101000203166002900480601f016020809104026020016040519081016040528092919081815260200182805460018160011615610100020316600290048015611eee5780601f10611ec357610100808354040283529160200191611eee565b820191906000526020600020905b815481529060010190602001808311611ed157829003601f168201915b5050505050908060010154908060020154905083565b60025481565b60606000600160025403905060608167ffffffffffffffff81118015611f2f57600080fd5b50604051908082528060200260200182016040528015611f6957816020015b611f56612472565b815260200190600190039081611f4e5790505b50905060005b828110156121f057600660006001830181526020019081526020016000206040518061012001604052908160008201548152602001600182018054600181600116156101000203166002900480601f01602080910402602001604051908101604052809291908181526020018280546001816001161561010002031660029004801561203c5780601f106120115761010080835404028352916020019161203c565b820191906000526020600020905b81548152906001019060200180831161201f57829003601f168201915b50505050508152602001600282018054600181600116156101000203166002900480601f0160208091040260200160405190810160405280929190818152602001828054600181600116156101000203166002900480156120de5780601f106120b3576101008083540402835291602001916120de565b820191906000526020600020905b8154815290600101906020018083116120c157829003601f168201915b50505050508152602001600382018054600181600116156101000203166002900480601f0160208091040260200160405190810160405280929190818152602001828054600181600116156101000203166002900480156121805780601f1061215557610100808354040283529160200191612180565b820191906000526020600020905b81548152906001019060200180831161216357829003601f168201915b50505050508152602001600482015481526020016005820154815260200160068201548152602001600782015481526020016008820160009054906101000a900460ff1615151515815250508282815181106121d857fe5b60200260200101819052508080600101915050611f6f565b50809250505090565b60008083141561220c5760009050612263565b600082840290508284828161221d57fe5b041461225e576040517f08c379a0000000000000000000000000000000000000000000000000000000008152600401612255906132af565b60405180910390fd5b809150505b92915050565b60006122ab83836040518060400160405280601a81526020017f536166654d6174683a206469766973696f6e206279207a65726f000000000000815250612352565b905092915050565b6000808284019050838110156122fe576040517f08c379a00000000000000000000000000000000000000000000000000000000081526004016122f59061326f565b60405180910390fd5b8091505092915050565b600061234a83836040518060400160405280601e81526020017f536166654d6174683a207375627472616374696f6e206f766572666c6f7700008152506123b3565b905092915050565b60008083118290612399576040517f08c379a0000000000000000000000000000000000000000000000000000000008152600401612390919061311a565b60405180910390fd5b5060008385816123a557fe5b049050809150509392505050565b60008383111582906123fb576040517f08c379a00000000000000000000000000000000000000000000000000000000081526004016123f2919061311a565b60405180910390fd5b5060008385039050809150509392505050565b6040518061018001604052806000815260200160608152602001606081526020016060815260200160008152602001600081526020016000815260200160008152602001606081526020016000801916815260200160008152602001600081525090565b60405180610120016040528060008152602001606081526020016060815260200160608152602001600081526020016000815260200160008152602001600081526020016000151581525090565b60405180606001604052806060815260200160008019168152602001600081525090565b828054600181600116156101000203166002900490600052602060002090601f016020900481019282601f1061252557805160ff1916838001178555612553565b82800160010185558215612553579182015b82811115612552578251825591602001919060010190612537565b5b5090506125609190612564565b5090565b5b8082111561257d576000816000905550600101612565565b5090565b6000813590506125908161363a565b92915050565b6000813590506125a581613651565b92915050565b600082601f8301126125bc57600080fd5b81356125cf6125ca826134a2565b613475565b915080825260208301602083018583830111156125eb57600080fd5b6125f68382846135e7565b50505092915050565b60008135905061260e81613668565b92915050565b60006020828403121561262657600080fd5b600061263484828501612581565b91505092915050565b6000806040838503121561265057600080fd5b600061265e85828601612596565b925050602061266f858286016125ff565b9150509250929050565b6000806040838503121561268c57600080fd5b600061269a85828601612581565b92505060206126ab858286016125ff565b9150509250929050565b600080600080608085870312156126cb57600080fd5b600085013567ffffffffffffffff8111156126e557600080fd5b6126f1878288016125ab565b945050602085013567ffffffffffffffff81111561270e57600080fd5b61271a878288016125ab565b935050604061272b878288016125ff565b925050606061273c878288016125ff565b91505092959194509250565b60006020828403121561275a57600080fd5b6000612768848285016125ff565b91505092915050565b6000806040838503121561278457600080fd5b6000612792858286016125ff565b925050602083013567ffffffffffffffff8111156127af57600080fd5b6127bb858286016125ab565b9150509250929050565b6000806000606084860312156127da57600080fd5b60006127e8868287016125ff565b935050602084013567ffffffffffffffff81111561280557600080fd5b612811868287016125ab565b9250506040612822868287016125ff565b9150509250925092565b60006128388383612e6a565b905092915050565b600061284c8383612f3d565b905092915050565b61285d81613583565b82525050565b600061286e826134ee565b6128788185613529565b93508360208202850161288a856134ce565b8060005b858110156128c657848403895281516128a7858261282c565b94506128b28361350f565b925060208a0199505060018101905061288e565b50829750879550505050505092915050565b60006128e3826134f9565b6128ed818561353a565b9350836020820285016128ff856134de565b8060005b8581101561293b578484038952815161291c8582612840565b94506129278361351c565b925060208a01995050600181019050612903565b50829750879550505050505092915050565b612956816135a7565b82525050565b612965816135a7565b82525050565b612974816135b3565b82525050565b612983816135b3565b82525050565b600061299482613504565b61299e8185613556565b93506129ae8185602086016135f6565b6129b781613629565b840191505092915050565b60006129cd82613504565b6129d78185613567565b93506129e78185602086016135f6565b6129f081613629565b840191505092915050565b6000612a0682613504565b612a108185613578565b9350612a208185602086016135f6565b80840191505092915050565b6000612a39603383613567565b91507f596f75277265206e6f7420616c6c6f77656420746f207374616b65206f6e206260008301527f6f7468207369646573206f6620612067616d65000000000000000000000000006020830152604082019050919050565b6000612a9f601383613567565b91507f55736572206e6f742072656769737465726564000000000000000000000000006000830152602082019050919050565b6000612adf602783613567565b91507f546869732067616d65206973206e6f206c6f6e67657220616363657074696e6760008301527f207374616b6573000000000000000000000000000000000000000000000000006020830152604082019050919050565b6000612b45602b83613567565b91507f4f6e6c7920636f6e7472616374206f776e65722063616e20706572666f726d2060008301527f7468697320616374696f6e0000000000000000000000000000000000000000006020830152604082019050919050565b6000612bab601b83613567565b91507f536166654d6174683a206164646974696f6e206f766572666c6f7700000000006000830152602082019050919050565b6000612beb601483613567565b91507f496e73756666696369656e742062616c616e63650000000000000000000000006000830152602082019050919050565b6000612c2b602183613567565b91507f536166654d6174683a206d756c7469706c69636174696f6e206f766572666c6f60008301527f77000000000000000000000000000000000000000000000000000000000000006020830152604082019050919050565b6000612c91601b83613567565b91507f4f776e65722063616e206e6f74206265207265676973746572656400000000006000830152602082019050919050565b6000612cd1602583613567565b91507f43616e206e6f74207570646174652077696e6e6572206f6620616e206f70656e60008301527f2067616d650000000000000000000000000000000000000000000000000000006020830152604082019050919050565b6000612d37601e83613567565b91507f546869732067616d6520616c72656164792068617320612077696e6e657200006000830152602082019050919050565b6000612d7760008361354b565b9150600082019050919050565b6000612d91602783613567565b91507f426574207374616b6520616d6f756e74206d757374206265206772656174657260008301527f207468616e2030000000000000000000000000000000000000000000000000006020830152604082019050919050565b6000612df7601183613567565b91507f5769746864726177616c206661696c65640000000000000000000000000000006000830152602082019050919050565b6000612e37601b83613567565b91507f546869732067616d6520697320616c726561647920636c6f73656400000000006000830152602082019050919050565b600061012083016000830151612e836000860182613056565b5060208301518482036020860152612e9b8282612989565b91505060408301518482036040860152612eb58282612989565b91505060608301518482036060860152612ecf8282612989565b9150506080830151612ee46080860182613056565b5060a0830151612ef760a0860182613056565b5060c0830151612f0a60c0860182613056565b5060e0830151612f1d60e0860182613056565b50610100830151612f3261010086018261294d565b508091505092915050565b600061018083016000830151612f566000860182613056565b5060208301518482036020860152612f6e8282612989565b91505060408301518482036040860152612f888282612989565b91505060608301518482036060860152612fa28282612989565b9150506080830151612fb76080860182613056565b5060a0830151612fca60a0860182613056565b5060c0830151612fdd60c0860182613056565b5060e0830151612ff060e0860182613056565b5061010083015184820361010086015261300a8282612989565b91505061012083015161302161012086018261296b565b50610140830151613036610140860182613056565b5061016083015161304b610160860182613056565b508091505092915050565b61305f816135dd565b82525050565b61306e816135dd565b82525050565b600061308082846129fb565b915081905092915050565b600061309682612d6a565b9150819050919050565b60006020820190506130b56000830184612854565b92915050565b600060208201905081810360008301526130d58184612863565b905092915050565b600060208201905081810360008301526130f781846128d8565b905092915050565b6000602082019050613114600083018461295c565b92915050565b6000602082019050818103600083015261313481846129c2565b905092915050565b6000606082019050818103600083015261315681866129c2565b9050613165602083018561297a565b6131726040830184613065565b949350505050565b6000604082019050818103600083015261319481856129c2565b905081810360208301526131a881846129c2565b90509392505050565b600060608201905081810360008301526131cb81866129c2565b90506131da6020830185613065565b6131e76040830184613065565b949350505050565b6000602082019050818103600083015261320881612a2c565b9050919050565b6000602082019050818103600083015261322881612a92565b9050919050565b6000602082019050818103600083015261324881612ad2565b9050919050565b6000602082019050818103600083015261326881612b38565b9050919050565b6000602082019050818103600083015261328881612b9e565b9050919050565b600060208201905081810360008301526132a881612bde565b9050919050565b600060208201905081810360008301526132c881612c1e565b9050919050565b600060208201905081810360008301526132e881612c84565b9050919050565b6000602082019050818103600083015261330881612cc4565b9050919050565b6000602082019050818103600083015261332881612d2a565b9050919050565b6000602082019050818103600083015261334881612d84565b9050919050565b6000602082019050818103600083015261336881612dea565b9050919050565b6000602082019050818103600083015261338881612e2a565b9050919050565b60006020820190506133a46000830184613065565b92915050565b6000610120820190506133c0600083018c613065565b81810360208301526133d2818b6129c2565b905081810360408301526133e6818a6129c2565b905081810360608301526133fa81896129c2565b90506134096080830188613065565b61341660a0830187613065565b61342360c0830186613065565b61343060e0830185613065565b61343e61010083018461295c565b9a9950505050505050505050565b60006040820190506134616000830185613065565b61346e6020830184613065565b9392505050565b6000604051905081810181811067ffffffffffffffff8211171561349857600080fd5b8060405250919050565b600067ffffffffffffffff8211156134b957600080fd5b601f19601f8301169050602081019050919050565b6000819050602082019050919050565b6000819050602082019050919050565b600081519050919050565b600081519050919050565b600081519050919050565b6000602082019050919050565b6000602082019050919050565b600082825260208201905092915050565b600082825260208201905092915050565b600081905092915050565b600082825260208201905092915050565b600082825260208201905092915050565b600081905092915050565b600061358e826135bd565b9050919050565b60006135a0826135bd565b9050919050565b60008115159050919050565b6000819050919050565b600073ffffffffffffffffffffffffffffffffffffffff82169050919050565b6000819050919050565b82818337600083830152505050565b60005b838110156136145780820151818401526020810190506135f9565b83811115613623576000848401525b50505050565b6000601f19601f8301169050919050565b61364381613583565b811461364e57600080fd5b50565b61365a81613595565b811461366557600080fd5b50565b613671816135dd565b811461367c57600080fd5b5056fea2646970667358221220f0050a65c8d2f13ce72a5bb2e49b1a5fa9e6db34183e7e108bda398ae4ee18b864736f6c63430007010033",
  "immutableReferences": {},
  "source": "// SPDX-License-Identifier: MIT\npragma solidity >=0.5.0 <0.9.0;\npragma experimental ABIEncoderV2;\n\nlibrary SafeMath {\n    /**\n     * @dev Returns the addition of two unsigned integers, reverting on\n     * overflow.\n     *\n     * Counterpart to Solidity's `+` operator.\n     *\n     * Requirements:\n     *\n     * - Addition cannot overflow.\n     */\n    function add(uint256 a, uint256 b) internal pure returns (uint256) {\n        uint256 c = a + b;\n        require(c >= a, \"SafeMath: addition overflow\");\n\n        return c;\n    }\n\n    /**\n     * @dev Returns the subtraction of two unsigned integers, reverting on\n     * overflow (when the result is negative).\n     *\n     * Counterpart to Solidity's `-` operator.\n     *\n     * Requirements:\n     *\n     * - Subtraction cannot overflow.\n     */\n    function sub(uint256 a, uint256 b) internal pure returns (uint256) {\n        return sub(a, b, \"SafeMath: subtraction overflow\");\n    }\n\n    /**\n     * @dev Returns the subtraction of two unsigned integers, reverting with custom message on\n     * overflow (when the result is negative).\n     *\n     * Counterpart to Solidity's `-` operator.\n     *\n     * Requirements:\n     *\n     * - Subtraction cannot overflow.\n     */\n    function sub(uint256 a, uint256 b, string memory errorMessage) internal pure returns (uint256) {\n        require(b <= a, errorMessage);\n        uint256 c = a - b;\n\n        return c;\n    }\n\n    /**\n     * @dev Returns the multiplication of two unsigned integers, reverting on\n     * overflow.\n     *\n     * Counterpart to Solidity's `*` operator.\n     *\n     * Requirements:\n     *\n     * - Multiplication cannot overflow.\n     */\n    function mul(uint256 a, uint256 b) internal pure returns (uint256) {\n        // Gas optimization: this is cheaper than requiring 'a' not being zero, but the\n        // benefit is lost if 'b' is also tested.\n        // See: https://github.com/OpenZeppelin/openzeppelin-contracts/pull/522\n        if (a == 0) {\n            return 0;\n        }\n\n        uint256 c = a * b;\n        require(c / a == b, \"SafeMath: multiplication overflow\");\n\n        return c;\n    }\n\n    /**\n     * @dev Returns the integer division of two unsigned integers. Reverts on\n     * division by zero. The result is rounded towards zero.\n     *\n     * Counterpart to Solidity's `/` operator. Note: this function uses a\n     * `revert` opcode (which leaves remaining gas untouched) while Solidity\n     * uses an invalid opcode to revert (consuming all remaining gas).\n     *\n     * Requirements:\n     *\n     * - The divisor cannot be zero.\n     */\n    function div(uint256 a, uint256 b) internal pure returns (uint256) {\n        return div(a, b, \"SafeMath: division by zero\");\n    }\n\n    /**\n     * @dev Returns the integer division of two unsigned integers. Reverts with custom message on\n     * division by zero. The result is rounded towards zero.\n     *\n     * Counterpart to Solidity's `/` operator. Note: this function uses a\n     * `revert` opcode (which leaves remaining gas untouched) while Solidity\n     * uses an invalid opcode to revert (consuming all remaining gas).\n     *\n     * Requirements:\n     *\n     * - The divisor cannot be zero.\n     */\n    function div(uint256 a, uint256 b, string memory errorMessage) internal pure returns (uint256) {\n        require(b > 0, errorMessage);\n        uint256 c = a / b;\n        // assert(a == b * c + a % b); // There is no case in which this doesn't hold\n\n        return c;\n    }\n\n    /**\n     * @dev Returns the remainder of dividing two unsigned integers. (unsigned integer modulo),\n     * Reverts when dividing by zero.\n     *\n     * Counterpart to Solidity's `%` operator. This function uses a `revert`\n     * opcode (which leaves remaining gas untouched) while Solidity uses an\n     * invalid opcode to revert (consuming all remaining gas).\n     *\n     * Requirements:\n     *\n     * - The divisor cannot be zero.\n     */\n    function mod(uint256 a, uint256 b) internal pure returns (uint256) {\n        return mod(a, b, \"SafeMath: modulo by zero\");\n    }\n\n    /**\n     * @dev Returns the remainder of dividing two unsigned integers. (unsigned integer modulo),\n     * Reverts with custom message when dividing by zero.\n     *\n     * Counterpart to Solidity's `%` operator. This function uses a `revert`\n     * opcode (which leaves remaining gas untouched) while Solidity uses an\n     * invalid opcode to revert (consuming all remaining gas).\n     *\n     * Requirements:\n     *\n     * - The divisor cannot be zero.\n     */\n    function mod(uint256 a, uint256 b, string memory errorMessage) internal pure returns (uint256) {\n        require(b != 0, errorMessage);\n        return a % b;\n    }\n}\n\n// TODOs\n// Anotate functions with comments\n// USE Open zieppelin as much as possible\n// USE pausable contract\n// CHECK for possible re-enterecy pitfalls\n\ncontract Betting {\n  using SafeMath for uint256;\n  struct Game {\n    uint256 gameId;\n    string teamA;\n    string teamB;\n    string winner;\n    uint256 totalAmountStaked;\n    uint256 usersCount;\n    uint256 startTime;\n    uint256 endTime;\n    bool isOpen;\n  }\n\n  struct Stake {\n    string teamToWin;\n    bytes32 teamToWinHash;\n    uint256 totalAmountStaked;\n  }\n\n  struct History {\n    uint256 gameId;\n    string teamA;\n    string teamB;\n    string winner;\n    uint256 gameTotalAmountStaked;\n    uint256 usersCount;\n    uint256 startTime;\n    uint256 endTime;\n    string teamToWin;\n    bytes32 teamToWinHash;\n    uint256 userTotalAmountStaked;\n    uint256 userStakePercentage;\n  }\n\n  address public owner;\n  uint256 private appBalance;\n  uint256 public gameId;\n  mapping (address => bool) public users;\n  mapping (address => uint256) public usersBalance;\n  mapping (address => uint256[]) public usersBetList;\n  mapping (uint256 => Game) public games;\n  mapping (address => mapping (uint256 => Stake)) public allBets;\n\n  constructor() {\n    owner = msg.sender;\n    gameId = 1;\n    appBalance = 0;\n  }\n\n  modifier isOwner {\n    require(msg.sender == owner, \"Only contract owner can perform this action\");\n    _;\n  }\n\n  modifier isSignedIn {\n    require(users[msg.sender] == true, \"User not registered\");\n    _;\n  }\n\n  modifier checkAmount(uint256 _amount) {\n    require(_amount <= usersBalance[msg.sender], \"Insufficient balance\");\n    _;\n  }\n\n  function signInUser(address _address) external {\n    require(_address != owner, \"Owner can not be registered\");\n    if(!users[_address] == true) {\n      users[_address] = true;\n      usersBalance[_address] = 0;\n\n      emit LogSignInUser(_address);\n    }\n  }\n\n  function signInStatus(address _address) external view returns (bool) {\n    return users[_address];\n  } \n\n  function addFunds() external payable isSignedIn { // Fund user in app wallet\n    usersBalance[msg.sender] += msg.value;\n    emit LogAddFunds(msg.sender, msg.value, usersBalance[msg.sender]);\n  }\n\n  function withdrawFunds(address payable _to, uint256 _amount) external payable isSignedIn checkAmount(_amount) returns (uint256) { // Withdraw funds to external wallet\n    usersBalance[msg.sender] -= _amount;\n    (bool success, ) = _to.call{value: _amount}(\"\");\n    require(success, \"Withdrawal failed\");\n    emit LogWithdrawFunds(msg.sender, _amount);\n    return _amount;\n  }\n\n  function addGame(string memory teamA, string memory teamB, uint256 startTime, uint256 endTime) external isOwner {\n    Game memory game;\n      game.gameId = gameId;\n      game.teamA = teamA;\n      game.teamB = teamB;\n      game.winner = \"\";\n      game.totalAmountStaked = 0;\n      game.usersCount = 0;\n      game.startTime = startTime;\n      game.endTime = endTime;\n      game.isOpen = true;\n\n    games[gameId] = game;\n    gameId += 1;\n    emit LogAddGame(teamA, teamB, startTime, endTime);\n  }\n\n  function closeGame(uint256 _gameId) external isOwner {\n    require(games[_gameId].isOpen == true, \"This game is already closed\");\n    games[_gameId].isOpen = false;\n    emit LogCloseGame(_gameId);\n  }\n\n  function getAllGames() external view returns (Game[] memory) {\n    uint256 resultLength = gameId - 1;\n    Game[] memory result = new Game[](resultLength);\n    for(uint256 i = 0; i < resultLength; i++) {\n      result[i] = games[i + 1];\n    }\n    return result;\n  }\n\n  function getUserBetsHistory() external view returns (History[] memory) {\n    uint256 resultLength = usersBetList[msg.sender].length;\n    History[] memory result = new History[](resultLength);\n\n    for (uint256 i = 0; i < resultLength; i++) {\n      uint256 id = usersBetList[msg.sender][i];\n      Game memory game = games[id];\n      Stake memory stake = allBets[msg.sender][id];\n      History memory history;\n\n      history.gameId = id;\n      history.teamA = game.teamA;\n      history.teamB = game.teamB;\n      history.startTime = game.startTime;\n      history.endTime = game.endTime;\n      history.gameTotalAmountStaked = game.totalAmountStaked;\n      history.usersCount = game.usersCount;\n      history.winner = game.winner;\n      history.teamToWin = stake.teamToWin;\n      history.teamToWinHash = stake.teamToWinHash;\n      history.userTotalAmountStaked = stake.totalAmountStaked;\n\n      uint256 userStakePercentage = stake.totalAmountStaked.mul(10000).div(game.totalAmountStaked).mul(100);\n      history.userStakePercentage = userStakePercentage; // will be stored as actualPercentage * 10000 e.g 12.5 would equal 125000. This is because of solidity's inablity to handle floating number properly\n\n      result[i] = history;\n    }\n\n    return result;\n  }\n\n  function submitBet(uint256 _gameId, string memory _teamToWin, uint256 _betStakeAmount) external isSignedIn checkAmount(_betStakeAmount) { // Register a bet with money from app wallet\n    require(games[_gameId].isOpen == true, \"This game is no longer accepting stakes\");\n    require(_betStakeAmount > 0, \"Bet stake amount must be greater than 0\");\n    address user = msg.sender;\n    bytes32 teamToWinHash = keccak256(abi.encodePacked(_teamToWin));\n    Stake storage bet = allBets[user][_gameId];\n\n    // User might be staking this bet for the first time or increasing thier initial stake\n    if(bet.totalAmountStaked == 0) {\n      Stake memory newBet;\n      newBet.teamToWin = _teamToWin;\n      newBet.teamToWinHash = teamToWinHash;\n      newBet.totalAmountStaked =  _betStakeAmount;\n\n      usersBetList[user].push(_gameId);\n      allBets[user][_gameId] = newBet;\n      games[_gameId].usersCount = games[_gameId].usersCount.add(1);\n    } else {\n      require(bet.teamToWinHash == teamToWinHash, \"You're not allowed to stake on both sides of a game\");\n      bet.totalAmountStaked = bet.totalAmountStaked.add(_betStakeAmount);\n    }\n\n    usersBalance[user] = usersBalance[user].sub(_betStakeAmount);\n    games[_gameId].totalAmountStaked = games[_gameId].totalAmountStaked.add(_betStakeAmount);\n    appBalance = appBalance.add(_betStakeAmount);\n\n    emit LogSubmitBet(msg.sender, _gameId, _teamToWin, _betStakeAmount, usersBalance[msg.sender]);\n  }\n\n  function updateGameWinner(uint256 _gameId, string memory _winner) external isOwner {\n    require(games[_gameId].isOpen == false, \"Can not update winner of an open game\");\n    require(bytes(games[_gameId].winner).length == 0, \"This game already has a winner\");\n\n    games[_gameId].winner = _winner;\n    emit LogUpdateGameWinner(_gameId, _winner);\n  }\n\n  function disburseBetFunds(uint256 _gameId) external isOwner returns (bool) {\n\n  }\n\n  // Events\n  event LogSignInUser(address indexed _address);\n  event LogAddFunds(address indexed _sender, uint256 _amount, uint256 _userBalance);\n  event LogWithdrawFunds(address indexed _to, uint256 _amount);\n  event LogAddGame(string _teamA, string _teamB, uint256 indexed _startTime, uint256 indexed _endTime);\n  event LogSubmitBet(address indexed _user, uint256 indexed _gameId, string _sideToWin, uint256 _betStakeAmount, uint256 _userBalance);\n  event LogUpdateGameWinner(uint256 indexed _gameId, string _winner);\n  event LogDisburseBetFunds(uint256 indexed _gameId);\n  event LogCloseGame(uint256 indexed _gameId);\n  \n}\n",
  "sourcePath": "/Users/mac/Desktop/blockchain-developer-bootcamp-final-project/contracts/Betting.sol",
  "compiler": {
    "name": "solc",
    "version": "0.7.1+commit.f4a555be.Emscripten.clang"
  },
  "schemaVersion": "3.4.3",
  "updatedAt": "2021-10-26T22:28:25.577Z",
  "networkType": "ethereum",
  "devdoc": {
    "kind": "dev",
    "methods": {},
    "version": 1
  },
  "userdoc": {
    "kind": "user",
    "methods": {},
    "version": 1
  }
}