{
  "contractName": "Betting",
  "abi": [
    {
      "inputs": [],
      "stateMutability": "nonpayable",
      "type": "constructor"
    },
    {
      "anonymous": false,
      "inputs": [
        {
          "indexed": true,
          "internalType": "address",
          "name": "_sender",
          "type": "address"
        },
        {
          "indexed": false,
          "internalType": "uint256",
          "name": "_amount",
          "type": "uint256"
        }
      ],
      "name": "LogAddFunds",
      "type": "event"
    },
    {
      "anonymous": false,
      "inputs": [
        {
          "indexed": false,
          "internalType": "string",
          "name": "_teamA",
          "type": "string"
        },
        {
          "indexed": false,
          "internalType": "string",
          "name": "_teamB",
          "type": "string"
        },
        {
          "indexed": true,
          "internalType": "uint256",
          "name": "_startTime",
          "type": "uint256"
        },
        {
          "indexed": true,
          "internalType": "uint256",
          "name": "_endTime",
          "type": "uint256"
        }
      ],
      "name": "LogAddGame",
      "type": "event"
    },
    {
      "anonymous": false,
      "inputs": [
        {
          "indexed": true,
          "internalType": "uint256",
          "name": "_gameId",
          "type": "uint256"
        }
      ],
      "name": "LogCloseGame",
      "type": "event"
    },
    {
      "anonymous": false,
      "inputs": [
        {
          "indexed": true,
          "internalType": "uint256",
          "name": "_gameId",
          "type": "uint256"
        }
      ],
      "name": "LogDisburseBetFunds",
      "type": "event"
    },
    {
      "anonymous": false,
      "inputs": [
        {
          "indexed": true,
          "internalType": "address payable",
          "name": "_address",
          "type": "address"
        }
      ],
      "name": "LogSignInUser",
      "type": "event"
    },
    {
      "anonymous": false,
      "inputs": [
        {
          "indexed": true,
          "internalType": "address",
          "name": "_user",
          "type": "address"
        },
        {
          "indexed": true,
          "internalType": "uint256",
          "name": "_gameId",
          "type": "uint256"
        },
        {
          "indexed": false,
          "internalType": "string",
          "name": "_sideToWin",
          "type": "string"
        },
        {
          "indexed": false,
          "internalType": "uint256",
          "name": "_betStakeAmount",
          "type": "uint256"
        },
        {
          "indexed": false,
          "internalType": "uint256",
          "name": "_appBalance",
          "type": "uint256"
        }
      ],
      "name": "LogSubmitBet",
      "type": "event"
    },
    {
      "anonymous": false,
      "inputs": [
        {
          "indexed": true,
          "internalType": "uint256",
          "name": "_gameId",
          "type": "uint256"
        },
        {
          "indexed": false,
          "internalType": "string",
          "name": "_winner",
          "type": "string"
        }
      ],
      "name": "LogUpdateGameWinner",
      "type": "event"
    },
    {
      "anonymous": false,
      "inputs": [
        {
          "indexed": true,
          "internalType": "address",
          "name": "_to",
          "type": "address"
        },
        {
          "indexed": false,
          "internalType": "uint256",
          "name": "_amount",
          "type": "uint256"
        }
      ],
      "name": "LogWithdrawFunds",
      "type": "event"
    },
    {
      "inputs": [],
      "name": "gameId",
      "outputs": [
        {
          "internalType": "uint256",
          "name": "",
          "type": "uint256"
        }
      ],
      "stateMutability": "view",
      "type": "function",
      "constant": true
    },
    {
      "inputs": [
        {
          "internalType": "uint256",
          "name": "",
          "type": "uint256"
        }
      ],
      "name": "games",
      "outputs": [
        {
          "internalType": "string",
          "name": "teamA",
          "type": "string"
        },
        {
          "internalType": "string",
          "name": "teamB",
          "type": "string"
        },
        {
          "internalType": "string",
          "name": "winner",
          "type": "string"
        },
        {
          "internalType": "uint256",
          "name": "totalAmountStaked",
          "type": "uint256"
        },
        {
          "internalType": "uint256",
          "name": "usersCount",
          "type": "uint256"
        },
        {
          "internalType": "uint256",
          "name": "startTime",
          "type": "uint256"
        },
        {
          "internalType": "uint256",
          "name": "endTime",
          "type": "uint256"
        },
        {
          "internalType": "bool",
          "name": "isOpen",
          "type": "bool"
        }
      ],
      "stateMutability": "view",
      "type": "function",
      "constant": true
    },
    {
      "inputs": [
        {
          "internalType": "address",
          "name": "",
          "type": "address"
        }
      ],
      "name": "users",
      "outputs": [
        {
          "internalType": "bool",
          "name": "",
          "type": "bool"
        }
      ],
      "stateMutability": "view",
      "type": "function",
      "constant": true
    },
    {
      "inputs": [
        {
          "internalType": "address",
          "name": "",
          "type": "address"
        }
      ],
      "name": "usersBalance",
      "outputs": [
        {
          "internalType": "uint256",
          "name": "",
          "type": "uint256"
        }
      ],
      "stateMutability": "view",
      "type": "function",
      "constant": true
    },
    {
      "inputs": [
        {
          "internalType": "address",
          "name": "",
          "type": "address"
        },
        {
          "internalType": "uint256",
          "name": "",
          "type": "uint256"
        }
      ],
      "name": "usersStakings",
      "outputs": [
        {
          "internalType": "string",
          "name": "teamToWin",
          "type": "string"
        },
        {
          "internalType": "bytes32",
          "name": "teamToWinHash",
          "type": "bytes32"
        },
        {
          "internalType": "uint256",
          "name": "totalAmountStaked",
          "type": "uint256"
        },
        {
          "internalType": "uint256",
          "name": "stakePercentage",
          "type": "uint256"
        }
      ],
      "stateMutability": "view",
      "type": "function",
      "constant": true
    },
    {
      "inputs": [
        {
          "internalType": "address payable",
          "name": "_address",
          "type": "address"
        }
      ],
      "name": "signInUser",
      "outputs": [],
      "stateMutability": "nonpayable",
      "type": "function"
    },
    {
      "inputs": [],
      "name": "addFunds",
      "outputs": [],
      "stateMutability": "payable",
      "type": "function",
      "payable": true
    },
    {
      "inputs": [
        {
          "internalType": "address payable",
          "name": "_to",
          "type": "address"
        },
        {
          "internalType": "uint256",
          "name": "_amount",
          "type": "uint256"
        }
      ],
      "name": "withdrawFunds",
      "outputs": [
        {
          "internalType": "uint256",
          "name": "",
          "type": "uint256"
        }
      ],
      "stateMutability": "payable",
      "type": "function",
      "payable": true
    },
    {
      "inputs": [
        {
          "internalType": "string",
          "name": "teamA",
          "type": "string"
        },
        {
          "internalType": "string",
          "name": "teamB",
          "type": "string"
        },
        {
          "internalType": "uint256",
          "name": "startTime",
          "type": "uint256"
        },
        {
          "internalType": "uint256",
          "name": "endTime",
          "type": "uint256"
        }
      ],
      "name": "addGame",
      "outputs": [],
      "stateMutability": "nonpayable",
      "type": "function"
    },
    {
      "inputs": [
        {
          "internalType": "uint256",
          "name": "_gameId",
          "type": "uint256"
        }
      ],
      "name": "closeGame",
      "outputs": [],
      "stateMutability": "nonpayable",
      "type": "function"
    },
    {
      "inputs": [],
      "name": "getAllGames",
      "outputs": [
        {
          "components": [
            {
              "internalType": "string",
              "name": "teamA",
              "type": "string"
            },
            {
              "internalType": "string",
              "name": "teamB",
              "type": "string"
            },
            {
              "internalType": "string",
              "name": "winner",
              "type": "string"
            },
            {
              "internalType": "uint256",
              "name": "totalAmountStaked",
              "type": "uint256"
            },
            {
              "internalType": "uint256",
              "name": "usersCount",
              "type": "uint256"
            },
            {
              "internalType": "uint256",
              "name": "startTime",
              "type": "uint256"
            },
            {
              "internalType": "uint256",
              "name": "endTime",
              "type": "uint256"
            },
            {
              "internalType": "bool",
              "name": "isOpen",
              "type": "bool"
            }
          ],
          "internalType": "struct Betting.Game[]",
          "name": "",
          "type": "tuple[]"
        }
      ],
      "stateMutability": "view",
      "type": "function",
      "constant": true
    },
    {
      "inputs": [
        {
          "internalType": "uint256",
          "name": "_gameId",
          "type": "uint256"
        },
        {
          "internalType": "string",
          "name": "_teamToWin",
          "type": "string"
        },
        {
          "internalType": "uint256",
          "name": "_betStakeAmount",
          "type": "uint256"
        }
      ],
      "name": "submitBet",
      "outputs": [],
      "stateMutability": "nonpayable",
      "type": "function"
    },
    {
      "inputs": [
        {
          "internalType": "uint256",
          "name": "_gameId",
          "type": "uint256"
        },
        {
          "internalType": "string",
          "name": "_winner",
          "type": "string"
        }
      ],
      "name": "updateGameWinner",
      "outputs": [],
      "stateMutability": "nonpayable",
      "type": "function"
    },
    {
      "inputs": [
        {
          "internalType": "uint256",
          "name": "_gameId",
          "type": "uint256"
        }
      ],
      "name": "disburseBetFunds",
      "outputs": [
        {
          "internalType": "bool",
          "name": "",
          "type": "bool"
        }
      ],
      "stateMutability": "nonpayable",
      "type": "function"
    }
  ],
  "bytecode": "0x608060405234801561001057600080fd5b50336000806101000a81548173ffffffffffffffffffffffffffffffffffffffff021916908373ffffffffffffffffffffffffffffffffffffffff16021790555060016002819055506000600181905550612c1e806100706000396000f3fe6080604052600436106100dd5760003560e01c8063a84d1af01161007f578063c4c9cf1f11610059578063c4c9cf1f146102a7578063d098067d146102e7578063d7c81b5514610324578063db1c45f91461034f576100dd565b8063a84d1af014610211578063a87430ba1461023a578063c107532914610277576100dd565b806398880043116100bb578063988800431461018c5780639c2f8f4f146101b5578063a26759cb146101de578063a50fdbdc146101e8576100dd565b8063117a5b90146100e25780632d6ef31014610126578063583243351461014f575b600080fd5b3480156100ee57600080fd5b5061010960048036038101906101049190611f26565b61037a565b60405161011d98979695949392919061278b565b60405180910390f35b34801561013257600080fd5b5061014d60048036038101906101489190611f26565b610597565b005b34801561015b57600080fd5b5061017660048036038101906101719190611dc9565b6106ee565b60405161018391906129fc565b60405180910390f35b34801561019857600080fd5b506101b360048036038101906101ae9190611e93565b610706565b005b3480156101c157600080fd5b506101dc60048036038101906101d79190611f4f565b61090c565b005b6101e6610ad8565b005b3480156101f457600080fd5b5061020f600480360381019061020a9190611df2565b610c08565b005b34801561021d57600080fd5b5061023860048036038101906102339190611fa3565b610dd5565b005b34801561024657600080fd5b50610261600480360381019061025c9190611dc9565b611332565b60405161026e91906126cb565b60405180910390f35b610291600480360381019061028c9190611e1b565b611352565b60405161029e91906129fc565b60405180910390f35b3480156102b357600080fd5b506102ce60048036038101906102c99190611e57565b6115bc565b6040516102de9493929190612708565b60405180910390f35b3480156102f357600080fd5b5061030e60048036038101906103099190611f26565b611691565b60405161031b91906126cb565b60405180910390f35b34801561033057600080fd5b50610339611727565b60405161034691906129fc565b60405180910390f35b34801561035b57600080fd5b5061036461172d565b60405161037191906126a9565b60405180910390f35b6005602052806000526040600020600091509050806000018054600181600116156101000203166002900480601f0160208091040260200160405190810160405280929190818152602001828054600181600116156101000203166002900480156104265780601f106103fb57610100808354040283529160200191610426565b820191906000526020600020905b81548152906001019060200180831161040957829003601f168201915b505050505090806001018054600181600116156101000203166002900480601f0160208091040260200160405190810160405280929190818152602001828054600181600116156101000203166002900480156104c45780601f10610499576101008083540402835291602001916104c4565b820191906000526020600020905b8154815290600101906020018083116104a757829003601f168201915b505050505090806002018054600181600116156101000203166002900480601f0160208091040260200160405190810160405280929190818152602001828054600181600116156101000203166002900480156105625780601f1061053757610100808354040283529160200191610562565b820191906000526020600020905b81548152906001019060200180831161054557829003601f168201915b5050505050908060030154908060040154908060050154908060060154908060070160009054906101000a900460ff16905088565b60008054906101000a900473ffffffffffffffffffffffffffffffffffffffff1673ffffffffffffffffffffffffffffffffffffffff163373ffffffffffffffffffffffffffffffffffffffff1614610625576040517f08c379a000000000000000000000000000000000000000000000000000000000815260040161061c906128bc565b60405180910390fd5b600115156005600083815260200190815260200160002060070160009054906101000a900460ff1615151461068f576040517f08c379a0000000000000000000000000000000000000000000000000000000008152600401610686906129dc565b60405180910390fd5b60006005600083815260200190815260200160002060070160006101000a81548160ff021916908315150217905550807f24a5dbf244dd4fdeabd46c3805b8bd07f9b99e43d2209810e9ed7a90d649429560405160405180910390a250565b60046020528060005260406000206000915090505481565b60008054906101000a900473ffffffffffffffffffffffffffffffffffffffff1673ffffffffffffffffffffffffffffffffffffffff163373ffffffffffffffffffffffffffffffffffffffff1614610794576040517f08c379a000000000000000000000000000000000000000000000000000000000815260040161078b906128bc565b60405180910390fd5b61079c611c27565b84816000018190525083816020018190525060405180602001604052806000815250816040018190525060008160600181815250506000816080018181525050828160a0018181525050818160c001818152505060018160e0019015159081151581525050806005600060025481526020019081526020016000206000820151816000019080519060200190610833929190611c6e565b506020820151816001019080519060200190610850929190611c6e565b50604082015181600201908051906020019061086d929190611c6e565b50606082015181600301556080820151816004015560a0820151816005015560c0820151816006015560e08201518160070160006101000a81548160ff021916908315150217905550905050600160026000828254019250508190555081837f0bfce854c1cd16d4f0808949802d6262e3a086711bc7968a170a112860975f6387876040516108fd929190612754565b60405180910390a35050505050565b60008054906101000a900473ffffffffffffffffffffffffffffffffffffffff1673ffffffffffffffffffffffffffffffffffffffff163373ffffffffffffffffffffffffffffffffffffffff161461099a576040517f08c379a0000000000000000000000000000000000000000000000000000000008152600401610991906128bc565b60405180910390fd5b600015156005600084815260200190815260200160002060070160009054906101000a900460ff16151514610a04576040517f08c379a00000000000000000000000000000000000000000000000000000000081526004016109fb9061295c565b60405180910390fd5b60006005600084815260200190815260200160002060020180546001816001161561010002031660029004905014610a71576040517f08c379a0000000000000000000000000000000000000000000000000000000008152600401610a689061297c565b60405180910390fd5b80600560008481526020019081526020016000206002019080519060200190610a9b929190611c6e565b50817f1da28083458e812c85b645713b82ac43e2ca08cf842ba14d6a80bd456967527f82604051610acc91906126e6565b60405180910390a25050565b60011515600360003373ffffffffffffffffffffffffffffffffffffffff1673ffffffffffffffffffffffffffffffffffffffff16815260200190815260200160002060009054906101000a900460ff16151514610b6b576040517f08c379a0000000000000000000000000000000000000000000000000000000008152600401610b629061287c565b60405180910390fd5b34600460003373ffffffffffffffffffffffffffffffffffffffff1673ffffffffffffffffffffffffffffffffffffffff168152602001908152602001600020600082825401925050819055503373ffffffffffffffffffffffffffffffffffffffff167ff10a70d7840292e5567b3acea76264b1528c1c5c45625420169815099f702d1b34604051610bfe91906129fc565b60405180910390a2565b60008054906101000a900473ffffffffffffffffffffffffffffffffffffffff1673ffffffffffffffffffffffffffffffffffffffff168173ffffffffffffffffffffffffffffffffffffffff161415610c97576040517f08c379a0000000000000000000000000000000000000000000000000000000008152600401610c8e9061293c565b60405180910390fd5b60011515600360008373ffffffffffffffffffffffffffffffffffffffff1673ffffffffffffffffffffffffffffffffffffffff16815260200190815260200160002060009054906101000a900460ff161515151415610dd2576001600360008373ffffffffffffffffffffffffffffffffffffffff1673ffffffffffffffffffffffffffffffffffffffff16815260200190815260200160002060006101000a81548160ff0219169083151502179055506000600460008373ffffffffffffffffffffffffffffffffffffffff1673ffffffffffffffffffffffffffffffffffffffff168152602001908152602001600020819055508073ffffffffffffffffffffffffffffffffffffffff167fc743ccff48012312e9853b6c664d256dbf986977bccfdc1185848ef09092011f60405160405180910390a25b50565b60011515600360003373ffffffffffffffffffffffffffffffffffffffff1673ffffffffffffffffffffffffffffffffffffffff16815260200190815260200160002060009054906101000a900460ff16151514610e68576040517f08c379a0000000000000000000000000000000000000000000000000000000008152600401610e5f9061287c565b60405180910390fd5b80600460003373ffffffffffffffffffffffffffffffffffffffff1673ffffffffffffffffffffffffffffffffffffffff16815260200190815260200160002054811115610eeb576040517f08c379a0000000000000000000000000000000000000000000000000000000008152600401610ee2906128fc565b60405180910390fd5b600115156005600086815260200190815260200160002060070160009054906101000a900460ff16151514610f55576040517f08c379a0000000000000000000000000000000000000000000000000000000008152600401610f4c9061289c565b60405180910390fd5b60008211610f98576040517f08c379a0000000000000000000000000000000000000000000000000000000008152600401610f8f9061299c565b60405180910390fd5b6000339050600084604051602001610fb0919061267d565b6040516020818303038152906040528051906020012090506000600660008473ffffffffffffffffffffffffffffffffffffffff1673ffffffffffffffffffffffffffffffffffffffff1681526020019081526020016000206000888152602001908152602001600020905060008160020154141561112757611031611cee565b868160000181905250828160200181815250508581604001818152505080600660008673ffffffffffffffffffffffffffffffffffffffff1673ffffffffffffffffffffffffffffffffffffffff16815260200190815260200160002060008a815260200190815260200160002060008201518160000190805190602001906110bb929190611c6e565b506020820151816001015560408201518160020155606082015181600301559050506111076001600560008b815260200190815260200160002060040154611a1290919063ffffffff16565b600560008a8152602001908152602001600020600401819055505061118d565b8181600101541461116d576040517f08c379a00000000000000000000000000000000000000000000000000000000081526004016111649061285c565b60405180910390fd5b611184858260020154611a1290919063ffffffff16565b81600201819055505b6111df85600460008673ffffffffffffffffffffffffffffffffffffffff1673ffffffffffffffffffffffffffffffffffffffff16815260200190815260200160002054611a6790919063ffffffff16565b600460008573ffffffffffffffffffffffffffffffffffffffff1673ffffffffffffffffffffffffffffffffffffffff1681526020019081526020016000208190555061124b85600560008a815260200190815260200160002060030154611a1290919063ffffffff16565b600560008981526020019081526020016000206003018190555061127a85600154611a1290919063ffffffff16565b60018190555060008160020154905060006112c760646112b9600560008d81526020019081526020016000206003015485611ab190919063ffffffff16565b611afb90919063ffffffff16565b9050808360030181905550883373ffffffffffffffffffffffffffffffffffffffff167fa9f47223c151f2e248554dd2758229dceb80a21de3877f60ae604e35468cf4ef8a8a60015460405161131f9392919061281e565b60405180910390a3505050505050505050565b60036020528060005260406000206000915054906101000a900460ff1681565b600060011515600360003373ffffffffffffffffffffffffffffffffffffffff1673ffffffffffffffffffffffffffffffffffffffff16815260200190815260200160002060009054906101000a900460ff161515146113e7576040517f08c379a00000000000000000000000000000000000000000000000000000000081526004016113de9061287c565b60405180910390fd5b81600460003373ffffffffffffffffffffffffffffffffffffffff1673ffffffffffffffffffffffffffffffffffffffff1681526020019081526020016000205481111561146a576040517f08c379a0000000000000000000000000000000000000000000000000000000008152600401611461906128fc565b60405180910390fd5b82600460003373ffffffffffffffffffffffffffffffffffffffff1673ffffffffffffffffffffffffffffffffffffffff1681526020019081526020016000206000828254039250508190555060008473ffffffffffffffffffffffffffffffffffffffff16846040516114dd90612694565b60006040518083038185875af1925050503d806000811461151a576040519150601f19603f3d011682016040523d82523d6000602084013e61151f565b606091505b5050905080611563576040517f08c379a000000000000000000000000000000000000000000000000000000000815260040161155a906129bc565b60405180910390fd5b3373ffffffffffffffffffffffffffffffffffffffff167f333d9f35320f28a9518fc6083975ac7d7465f020712cda7608ca073ea651f264856040516115a991906129fc565b60405180910390a2839250505092915050565b600660205281600052604060002060205280600052604060002060009150915050806000018054600181600116156101000203166002900480601f0160208091040260200160405190810160405280929190818152602001828054600181600116156101000203166002900480156116755780601f1061164a57610100808354040283529160200191611675565b820191906000526020600020905b81548152906001019060200180831161165857829003601f168201915b5050505050908060010154908060020154908060030154905084565b60008060009054906101000a900473ffffffffffffffffffffffffffffffffffffffff1673ffffffffffffffffffffffffffffffffffffffff163373ffffffffffffffffffffffffffffffffffffffff1614611722576040517f08c379a0000000000000000000000000000000000000000000000000000000008152600401611719906128bc565b60405180910390fd5b919050565b60025481565b60606000600160025403905060608167ffffffffffffffff8111801561175257600080fd5b5060405190808252806020026020018201604052801561178c57816020015b611779611c27565b8152602001906001900390816117715790505b50905060005b82811015611a09576005600060018301815260200190815260200160002060405180610100016040529081600082018054600181600116156101000203166002900480601f0160208091040260200160405190810160405280929190818152602001828054600181600116156101000203166002900480156118555780601f1061182a57610100808354040283529160200191611855565b820191906000526020600020905b81548152906001019060200180831161183857829003601f168201915b50505050508152602001600182018054600181600116156101000203166002900480601f0160208091040260200160405190810160405280929190818152602001828054600181600116156101000203166002900480156118f75780601f106118cc576101008083540402835291602001916118f7565b820191906000526020600020905b8154815290600101906020018083116118da57829003601f168201915b50505050508152602001600282018054600181600116156101000203166002900480601f0160208091040260200160405190810160405280929190818152602001828054600181600116156101000203166002900480156119995780601f1061196e57610100808354040283529160200191611999565b820191906000526020600020905b81548152906001019060200180831161197c57829003601f168201915b50505050508152602001600382015481526020016004820154815260200160058201548152602001600682015481526020016007820160009054906101000a900460ff1615151515815250508282815181106119f157fe5b60200260200101819052508080600101915050611792565b50809250505090565b600080828401905083811015611a5d576040517f08c379a0000000000000000000000000000000000000000000000000000000008152600401611a54906128dc565b60405180910390fd5b8091505092915050565b6000611aa983836040518060400160405280601e81526020017f536166654d6174683a207375627472616374696f6e206f766572666c6f770000815250611b6b565b905092915050565b6000611af383836040518060400160405280601a81526020017f536166654d6174683a206469766973696f6e206279207a65726f000000000000815250611bc6565b905092915050565b600080831415611b0e5760009050611b65565b6000828402905082848281611b1f57fe5b0414611b60576040517f08c379a0000000000000000000000000000000000000000000000000000000008152600401611b579061291c565b60405180910390fd5b809150505b92915050565b6000838311158290611bb3576040517f08c379a0000000000000000000000000000000000000000000000000000000008152600401611baa91906126e6565b60405180910390fd5b5060008385039050809150509392505050565b60008083118290611c0d576040517f08c379a0000000000000000000000000000000000000000000000000000000008152600401611c0491906126e6565b60405180910390fd5b506000838581611c1957fe5b049050809150509392505050565b604051806101000160405280606081526020016060815260200160608152602001600081526020016000815260200160008152602001600081526020016000151581525090565b828054600181600116156101000203166002900490600052602060002090601f016020900481019282601f10611caf57805160ff1916838001178555611cdd565b82800160010185558215611cdd579182015b82811115611cdc578251825591602001919060010190611cc1565b5b509050611cea9190611d19565b5090565b6040518060800160405280606081526020016000801916815260200160008152602001600081525090565b5b80821115611d32576000816000905550600101611d1a565b5090565b600081359050611d4581612ba3565b92915050565b600081359050611d5a81612bba565b92915050565b600082601f830112611d7157600080fd5b8135611d84611d7f82612a44565b612a17565b91508082526020830160208301858383011115611da057600080fd5b611dab838284612b50565b50505092915050565b600081359050611dc381612bd1565b92915050565b600060208284031215611ddb57600080fd5b6000611de984828501611d36565b91505092915050565b600060208284031215611e0457600080fd5b6000611e1284828501611d4b565b91505092915050565b60008060408385031215611e2e57600080fd5b6000611e3c85828601611d4b565b9250506020611e4d85828601611db4565b9150509250929050565b60008060408385031215611e6a57600080fd5b6000611e7885828601611d36565b9250506020611e8985828601611db4565b9150509250929050565b60008060008060808587031215611ea957600080fd5b600085013567ffffffffffffffff811115611ec357600080fd5b611ecf87828801611d60565b945050602085013567ffffffffffffffff811115611eec57600080fd5b611ef887828801611d60565b9350506040611f0987828801611db4565b9250506060611f1a87828801611db4565b91505092959194509250565b600060208284031215611f3857600080fd5b6000611f4684828501611db4565b91505092915050565b60008060408385031215611f6257600080fd5b6000611f7085828601611db4565b925050602083013567ffffffffffffffff811115611f8d57600080fd5b611f9985828601611d60565b9150509250929050565b600080600060608486031215611fb857600080fd5b6000611fc686828701611db4565b935050602084013567ffffffffffffffff811115611fe357600080fd5b611fef86828701611d60565b925050604061200086828701611db4565b9150509250925092565b600061201683836125a1565b905092915050565b600061202982612a80565b6120338185612aa3565b93508360208202850161204585612a70565b8060005b858110156120815784840389528151612062858261200a565b945061206d83612a96565b925060208a01995050600181019050612049565b50829750879550505050505092915050565b61209c81612b10565b82525050565b6120ab81612b10565b82525050565b6120ba81612b1c565b82525050565b60006120cb82612a8b565b6120d58185612abf565b93506120e5818560208601612b5f565b6120ee81612b92565b840191505092915050565b600061210482612a8b565b61210e8185612ad0565b935061211e818560208601612b5f565b61212781612b92565b840191505092915050565b600061213d82612a8b565b6121478185612ae1565b9350612157818560208601612b5f565b80840191505092915050565b6000612170603383612ad0565b91507f596f75277265206e6f7420616c6c6f77656420746f207374616b65206f6e206260008301527f6f7468207369646573206f6620612067616d65000000000000000000000000006020830152604082019050919050565b60006121d6601383612ad0565b91507f55736572206e6f742072656769737465726564000000000000000000000000006000830152602082019050919050565b6000612216602783612ad0565b91507f546869732067616d65206973206e6f206c6f6e67657220616363657074696e6760008301527f207374616b6573000000000000000000000000000000000000000000000000006020830152604082019050919050565b600061227c602b83612ad0565b91507f4f6e6c7920636f6e7472616374206f776e65722063616e20706572666f726d2060008301527f7468697320616374696f6e0000000000000000000000000000000000000000006020830152604082019050919050565b60006122e2601b83612ad0565b91507f536166654d6174683a206164646974696f6e206f766572666c6f7700000000006000830152602082019050919050565b6000612322601483612ad0565b91507f496e73756666696369656e742062616c616e63650000000000000000000000006000830152602082019050919050565b6000612362602183612ad0565b91507f536166654d6174683a206d756c7469706c69636174696f6e206f766572666c6f60008301527f77000000000000000000000000000000000000000000000000000000000000006020830152604082019050919050565b60006123c8601b83612ad0565b91507f4f776e65722063616e206e6f74206265207265676973746572656400000000006000830152602082019050919050565b6000612408602583612ad0565b91507f43616e206e6f74207570646174652077696e6e6572206f6620616e206f70656e60008301527f2067616d650000000000000000000000000000000000000000000000000000006020830152604082019050919050565b600061246e601e83612ad0565b91507f546869732067616d6520616c72656164792068617320612077696e6e657200006000830152602082019050919050565b60006124ae600083612ab4565b9150600082019050919050565b60006124c8602783612ad0565b91507f426574207374616b6520616d6f756e74206d757374206265206772656174657260008301527f207468616e2030000000000000000000000000000000000000000000000000006020830152604082019050919050565b600061252e601183612ad0565b91507f5769746864726177616c206661696c65640000000000000000000000000000006000830152602082019050919050565b600061256e601b83612ad0565b91507f546869732067616d6520697320616c726561647920636c6f73656400000000006000830152602082019050919050565b60006101008301600083015184820360008601526125bf82826120c0565b915050602083015184820360208601526125d982826120c0565b915050604083015184820360408601526125f382826120c0565b9150506060830151612608606086018261265f565b50608083015161261b608086018261265f565b5060a083015161262e60a086018261265f565b5060c083015161264160c086018261265f565b5060e083015161265460e0860182612093565b508091505092915050565b61266881612b46565b82525050565b61267781612b46565b82525050565b60006126898284612132565b915081905092915050565b600061269f826124a1565b9150819050919050565b600060208201905081810360008301526126c3818461201e565b905092915050565b60006020820190506126e060008301846120a2565b92915050565b6000602082019050818103600083015261270081846120f9565b905092915050565b6000608082019050818103600083015261272281876120f9565b905061273160208301866120b1565b61273e604083018561266e565b61274b606083018461266e565b95945050505050565b6000604082019050818103600083015261276e81856120f9565b9050818103602083015261278281846120f9565b90509392505050565b60006101008201905081810360008301526127a6818b6120f9565b905081810360208301526127ba818a6120f9565b905081810360408301526127ce81896120f9565b90506127dd606083018861266e565b6127ea608083018761266e565b6127f760a083018661266e565b61280460c083018561266e565b61281160e08301846120a2565b9998505050505050505050565b6000606082019050818103600083015261283881866120f9565b9050612847602083018561266e565b612854604083018461266e565b949350505050565b6000602082019050818103600083015261287581612163565b9050919050565b60006020820190508181036000830152612895816121c9565b9050919050565b600060208201905081810360008301526128b581612209565b9050919050565b600060208201905081810360008301526128d58161226f565b9050919050565b600060208201905081810360008301526128f5816122d5565b9050919050565b6000602082019050818103600083015261291581612315565b9050919050565b6000602082019050818103600083015261293581612355565b9050919050565b60006020820190508181036000830152612955816123bb565b9050919050565b60006020820190508181036000830152612975816123fb565b9050919050565b6000602082019050818103600083015261299581612461565b9050919050565b600060208201905081810360008301526129b5816124bb565b9050919050565b600060208201905081810360008301526129d581612521565b9050919050565b600060208201905081810360008301526129f581612561565b9050919050565b6000602082019050612a11600083018461266e565b92915050565b6000604051905081810181811067ffffffffffffffff82111715612a3a57600080fd5b8060405250919050565b600067ffffffffffffffff821115612a5b57600080fd5b601f19601f8301169050602081019050919050565b6000819050602082019050919050565b600081519050919050565b600081519050919050565b6000602082019050919050565b600082825260208201905092915050565b600081905092915050565b600082825260208201905092915050565b600082825260208201905092915050565b600081905092915050565b6000612af782612b26565b9050919050565b6000612b0982612b26565b9050919050565b60008115159050919050565b6000819050919050565b600073ffffffffffffffffffffffffffffffffffffffff82169050919050565b6000819050919050565b82818337600083830152505050565b60005b83811015612b7d578082015181840152602081019050612b62565b83811115612b8c576000848401525b50505050565b6000601f19601f8301169050919050565b612bac81612aec565b8114612bb757600080fd5b50565b612bc381612afe565b8114612bce57600080fd5b50565b612bda81612b46565b8114612be557600080fd5b5056fea2646970667358221220d67689866dfd796df635838ce474c87d2f61d48d1b5b82957f6a9d853dbf0c3664736f6c63430007010033",
  "immutableReferences": {},
  "source": "// SPDX-License-Identifier: MIT\npragma solidity >=0.5.0 <0.9.0;\npragma experimental ABIEncoderV2;\n\nlibrary SafeMath {\n    /**\n     * @dev Returns the addition of two unsigned integers, reverting on\n     * overflow.\n     *\n     * Counterpart to Solidity's `+` operator.\n     *\n     * Requirements:\n     *\n     * - Addition cannot overflow.\n     */\n    function add(uint256 a, uint256 b) internal pure returns (uint256) {\n        uint256 c = a + b;\n        require(c >= a, \"SafeMath: addition overflow\");\n\n        return c;\n    }\n\n    /**\n     * @dev Returns the subtraction of two unsigned integers, reverting on\n     * overflow (when the result is negative).\n     *\n     * Counterpart to Solidity's `-` operator.\n     *\n     * Requirements:\n     *\n     * - Subtraction cannot overflow.\n     */\n    function sub(uint256 a, uint256 b) internal pure returns (uint256) {\n        return sub(a, b, \"SafeMath: subtraction overflow\");\n    }\n\n    /**\n     * @dev Returns the subtraction of two unsigned integers, reverting with custom message on\n     * overflow (when the result is negative).\n     *\n     * Counterpart to Solidity's `-` operator.\n     *\n     * Requirements:\n     *\n     * - Subtraction cannot overflow.\n     */\n    function sub(uint256 a, uint256 b, string memory errorMessage) internal pure returns (uint256) {\n        require(b <= a, errorMessage);\n        uint256 c = a - b;\n\n        return c;\n    }\n\n    /**\n     * @dev Returns the multiplication of two unsigned integers, reverting on\n     * overflow.\n     *\n     * Counterpart to Solidity's `*` operator.\n     *\n     * Requirements:\n     *\n     * - Multiplication cannot overflow.\n     */\n    function mul(uint256 a, uint256 b) internal pure returns (uint256) {\n        // Gas optimization: this is cheaper than requiring 'a' not being zero, but the\n        // benefit is lost if 'b' is also tested.\n        // See: https://github.com/OpenZeppelin/openzeppelin-contracts/pull/522\n        if (a == 0) {\n            return 0;\n        }\n\n        uint256 c = a * b;\n        require(c / a == b, \"SafeMath: multiplication overflow\");\n\n        return c;\n    }\n\n    /**\n     * @dev Returns the integer division of two unsigned integers. Reverts on\n     * division by zero. The result is rounded towards zero.\n     *\n     * Counterpart to Solidity's `/` operator. Note: this function uses a\n     * `revert` opcode (which leaves remaining gas untouched) while Solidity\n     * uses an invalid opcode to revert (consuming all remaining gas).\n     *\n     * Requirements:\n     *\n     * - The divisor cannot be zero.\n     */\n    function div(uint256 a, uint256 b) internal pure returns (uint256) {\n        return div(a, b, \"SafeMath: division by zero\");\n    }\n\n    /**\n     * @dev Returns the integer division of two unsigned integers. Reverts with custom message on\n     * division by zero. The result is rounded towards zero.\n     *\n     * Counterpart to Solidity's `/` operator. Note: this function uses a\n     * `revert` opcode (which leaves remaining gas untouched) while Solidity\n     * uses an invalid opcode to revert (consuming all remaining gas).\n     *\n     * Requirements:\n     *\n     * - The divisor cannot be zero.\n     */\n    function div(uint256 a, uint256 b, string memory errorMessage) internal pure returns (uint256) {\n        require(b > 0, errorMessage);\n        uint256 c = a / b;\n        // assert(a == b * c + a % b); // There is no case in which this doesn't hold\n\n        return c;\n    }\n\n    /**\n     * @dev Returns the remainder of dividing two unsigned integers. (unsigned integer modulo),\n     * Reverts when dividing by zero.\n     *\n     * Counterpart to Solidity's `%` operator. This function uses a `revert`\n     * opcode (which leaves remaining gas untouched) while Solidity uses an\n     * invalid opcode to revert (consuming all remaining gas).\n     *\n     * Requirements:\n     *\n     * - The divisor cannot be zero.\n     */\n    function mod(uint256 a, uint256 b) internal pure returns (uint256) {\n        return mod(a, b, \"SafeMath: modulo by zero\");\n    }\n\n    /**\n     * @dev Returns the remainder of dividing two unsigned integers. (unsigned integer modulo),\n     * Reverts with custom message when dividing by zero.\n     *\n     * Counterpart to Solidity's `%` operator. This function uses a `revert`\n     * opcode (which leaves remaining gas untouched) while Solidity uses an\n     * invalid opcode to revert (consuming all remaining gas).\n     *\n     * Requirements:\n     *\n     * - The divisor cannot be zero.\n     */\n    function mod(uint256 a, uint256 b, string memory errorMessage) internal pure returns (uint256) {\n        require(b != 0, errorMessage);\n        return a % b;\n    }\n}\n\n// TODOs\n// Anotate functions with comments\n// USE Open zieppelin as much as possible\n// USE pausable contract\n// CHECK for possible re-enterecy pitfalls\n\ncontract Betting {\n  using SafeMath for uint256;\n  struct Game {\n    string teamA;\n    string teamB;\n    string winner;\n    uint256 totalAmountStaked;\n    uint256 usersCount;\n    uint256 startTime;\n    uint256 endTime;\n    bool isOpen;\n  }\n\n  struct Stake {\n    string teamToWin;\n    bytes32 teamToWinHash;\n    uint256 totalAmountStaked;\n    uint256 stakePercentage;\n  }\n\n  address private owner;\n  uint256 private appBalance;\n  uint256 public gameId;\n  mapping (address => bool) public users;\n  mapping (address => uint256) public usersBalance;\n  mapping (uint256 => Game) public games;\n  mapping (address => mapping (uint256 => Stake)) public usersStakings;\n\n  constructor() {\n    owner = msg.sender;\n    gameId = 1;\n    appBalance = 0;\n  }\n\n  modifier isOwner {\n    require(msg.sender == owner, \"Only contract owner can perform this action\");\n    _;\n  }\n\n  modifier isSignedIn {\n    require(users[msg.sender] == true, \"User not registered\");\n    _;\n  }\n\n  modifier checkAmount(uint256 _amount) {\n    require(_amount <= usersBalance[msg.sender], \"Insufficient balance\");\n    _;\n  }\n\n  function signInUser(address payable _address) external {\n    require(_address != owner, \"Owner can not be registered\");\n    if(!users[_address] == true) {\n      users[_address] = true;\n      usersBalance[_address] = 0;\n\n      emit LogSignInUser(_address);\n    }\n  }\n\n  function addFunds() external payable isSignedIn { // Fund user in app wallet\n    usersBalance[msg.sender] += msg.value;\n    emit LogAddFunds(msg.sender, msg.value);\n  }\n\n  function withdrawFunds(address payable _to, uint256 _amount) external payable isSignedIn checkAmount(_amount) returns (uint256) { // Withdraw funds to external wallet\n    usersBalance[msg.sender] -= _amount;\n    (bool success, ) = _to.call{value: _amount}(\"\");\n    require(success, \"Withdrawal failed\");\n    emit LogWithdrawFunds(msg.sender, _amount);\n    return _amount;\n  }\n\n  function addGame(string memory teamA, string memory teamB, uint256 startTime, uint256 endTime) external isOwner {\n    Game memory game;\n      game.teamA = teamA;\n      game.teamB = teamB;\n      game.winner = \"\";\n      game.totalAmountStaked = 0;\n      game.usersCount = 0;\n      game.startTime = startTime;\n      game.endTime = endTime;\n      game.isOpen = true;\n\n    games[gameId] = game;\n    gameId += 1;\n    emit LogAddGame(teamA, teamB, startTime, endTime);\n  }\n\n  function closeGame(uint256 _gameId) external isOwner {\n    require(games[_gameId].isOpen == true, \"This game is already closed\");\n    games[_gameId].isOpen = false;\n    emit LogCloseGame(_gameId);\n  }\n\n  function getAllGames() external view returns (Game[] memory) {\n    uint256 resultLength = gameId - 1;\n    Game[] memory result = new Game[](resultLength);\n    for(uint256 i = 0; i < resultLength; i++) {\n      result[i] = games[i + 1];\n    }\n    return result;\n  }\n\n  function submitBet(uint256 _gameId, string memory _teamToWin, uint256 _betStakeAmount) external isSignedIn checkAmount(_betStakeAmount) { // Register a bet with money from app wallet\n    require(games[_gameId].isOpen == true, \"This game is no longer accepting stakes\");\n    require(_betStakeAmount > 0, \"Bet stake amount must be greater than 0\");\n    address user = msg.sender;\n    bytes32 teamToWinHash = keccak256(abi.encodePacked(_teamToWin));\n    Stake storage userStaking = usersStakings[user][_gameId];\n\n    // User might be staking this bet for the first time or increasing thier initial stake\n    if(userStaking.totalAmountStaked == 0) {\n      Stake memory stake;\n      stake.teamToWin = _teamToWin;\n      stake.teamToWinHash = teamToWinHash;\n      stake.totalAmountStaked =  _betStakeAmount;\n\n      usersStakings[user][_gameId] = stake;\n      games[_gameId].usersCount = games[_gameId].usersCount.add(1);\n    } else {\n      require(userStaking.teamToWinHash == teamToWinHash, \"You're not allowed to stake on both sides of a game\");\n      userStaking.totalAmountStaked = userStaking.totalAmountStaked.add(_betStakeAmount);\n    }\n\n    usersBalance[user] = usersBalance[user].sub(_betStakeAmount);\n    games[_gameId].totalAmountStaked = games[_gameId].totalAmountStaked.add(_betStakeAmount);\n    appBalance = appBalance.add(_betStakeAmount);\n\n    // Compute user's stake percentage WRT total stake on this game\n    uint256 userTotalAmountStaked = userStaking.totalAmountStaked;\n    uint256 stakePercentage = userTotalAmountStaked.div(games[_gameId].totalAmountStaked).mul(100);\n    userStaking.stakePercentage = stakePercentage;\n    emit LogSubmitBet(msg.sender, _gameId, _teamToWin, _betStakeAmount, appBalance);\n  }\n\n  function updateGameWinner(uint256 _gameId, string memory _winner) external isOwner {\n    require(games[_gameId].isOpen == false, \"Can not update winner of an open game\");\n    require(bytes(games[_gameId].winner).length == 0, \"This game already has a winner\");\n\n    games[_gameId].winner = _winner;\n    emit LogUpdateGameWinner(_gameId, _winner);\n  }\n\n  function disburseBetFunds(uint256 _gameId) external isOwner returns (bool) {\n\n  }\n\n  // Events\n  event LogSignInUser(address payable indexed _address);\n  event LogAddFunds(address indexed _sender, uint256 _amount);\n  event LogWithdrawFunds(address indexed _to, uint256 _amount);\n  event LogAddGame(string _teamA, string _teamB, uint256 indexed _startTime, uint256 indexed _endTime);\n  event LogSubmitBet(address indexed _user, uint256 indexed _gameId, string _sideToWin, uint256 _betStakeAmount, uint256 _appBalance);\n  event LogUpdateGameWinner(uint256 indexed _gameId, string _winner);\n  event LogDisburseBetFunds(uint256 indexed _gameId);\n  event LogCloseGame(uint256 indexed _gameId);\n  \n}\n",
  "sourcePath": "/Users/mac/Desktop/blockchain-developer-bootcamp-final-project/contracts/Betting.sol",
  "compiler": {
    "name": "solc",
    "version": "0.7.1+commit.f4a555be.Emscripten.clang"
  },
  "schemaVersion": "3.4.3",
  "updatedAt": "2021-10-21T18:35:09.267Z",
  "networkType": "ethereum",
  "devdoc": {
    "kind": "dev",
    "methods": {},
    "version": 1
  },
  "userdoc": {
    "kind": "user",
    "methods": {},
    "version": 1
  }
}