{
  "contractName": "Betting",
  "abi": [
    {
      "inputs": [],
      "stateMutability": "nonpayable",
      "type": "constructor"
    },
    {
      "anonymous": false,
      "inputs": [
        {
          "indexed": true,
          "internalType": "address",
          "name": "_sender",
          "type": "address"
        },
        {
          "indexed": false,
          "internalType": "uint256",
          "name": "_amount",
          "type": "uint256"
        }
      ],
      "name": "LogAddFunds",
      "type": "event"
    },
    {
      "anonymous": false,
      "inputs": [
        {
          "indexed": false,
          "internalType": "string",
          "name": "_teamA",
          "type": "string"
        },
        {
          "indexed": false,
          "internalType": "string",
          "name": "_teamB",
          "type": "string"
        },
        {
          "indexed": true,
          "internalType": "uint256",
          "name": "_startTime",
          "type": "uint256"
        },
        {
          "indexed": true,
          "internalType": "uint256",
          "name": "_endTime",
          "type": "uint256"
        }
      ],
      "name": "LogAddGame",
      "type": "event"
    },
    {
      "anonymous": false,
      "inputs": [
        {
          "indexed": true,
          "internalType": "uint256",
          "name": "_gameId",
          "type": "uint256"
        }
      ],
      "name": "LogCloseGame",
      "type": "event"
    },
    {
      "anonymous": false,
      "inputs": [
        {
          "indexed": true,
          "internalType": "uint256",
          "name": "_gameId",
          "type": "uint256"
        }
      ],
      "name": "LogDisburseBetFunds",
      "type": "event"
    },
    {
      "anonymous": false,
      "inputs": [
        {
          "indexed": true,
          "internalType": "address payable",
          "name": "_address",
          "type": "address"
        }
      ],
      "name": "LogRegisterUser",
      "type": "event"
    },
    {
      "anonymous": false,
      "inputs": [
        {
          "indexed": true,
          "internalType": "address",
          "name": "_user",
          "type": "address"
        },
        {
          "indexed": true,
          "internalType": "uint256",
          "name": "_gameId",
          "type": "uint256"
        },
        {
          "indexed": false,
          "internalType": "string",
          "name": "_sideToWin",
          "type": "string"
        },
        {
          "indexed": false,
          "internalType": "uint256",
          "name": "_betStakeAmount",
          "type": "uint256"
        },
        {
          "indexed": false,
          "internalType": "uint256",
          "name": "_appBalance",
          "type": "uint256"
        }
      ],
      "name": "LogSubmitBet",
      "type": "event"
    },
    {
      "anonymous": false,
      "inputs": [
        {
          "indexed": true,
          "internalType": "uint256",
          "name": "_gameId",
          "type": "uint256"
        },
        {
          "indexed": false,
          "internalType": "string",
          "name": "_winner",
          "type": "string"
        }
      ],
      "name": "LogUpdateGameWinner",
      "type": "event"
    },
    {
      "anonymous": false,
      "inputs": [
        {
          "indexed": true,
          "internalType": "address",
          "name": "_to",
          "type": "address"
        },
        {
          "indexed": false,
          "internalType": "uint256",
          "name": "_amount",
          "type": "uint256"
        }
      ],
      "name": "LogWithdrawFunds",
      "type": "event"
    },
    {
      "inputs": [],
      "name": "gameId",
      "outputs": [
        {
          "internalType": "uint256",
          "name": "",
          "type": "uint256"
        }
      ],
      "stateMutability": "view",
      "type": "function",
      "constant": true
    },
    {
      "inputs": [
        {
          "internalType": "uint256",
          "name": "",
          "type": "uint256"
        }
      ],
      "name": "games",
      "outputs": [
        {
          "internalType": "string",
          "name": "teamA",
          "type": "string"
        },
        {
          "internalType": "string",
          "name": "teamB",
          "type": "string"
        },
        {
          "internalType": "string",
          "name": "winner",
          "type": "string"
        },
        {
          "internalType": "uint256",
          "name": "totalAmountStaked",
          "type": "uint256"
        },
        {
          "internalType": "uint256",
          "name": "usersCount",
          "type": "uint256"
        },
        {
          "internalType": "uint256",
          "name": "startTime",
          "type": "uint256"
        },
        {
          "internalType": "uint256",
          "name": "endTime",
          "type": "uint256"
        },
        {
          "internalType": "bool",
          "name": "isOpen",
          "type": "bool"
        }
      ],
      "stateMutability": "view",
      "type": "function",
      "constant": true
    },
    {
      "inputs": [
        {
          "internalType": "address",
          "name": "",
          "type": "address"
        }
      ],
      "name": "users",
      "outputs": [
        {
          "internalType": "bool",
          "name": "",
          "type": "bool"
        }
      ],
      "stateMutability": "view",
      "type": "function",
      "constant": true
    },
    {
      "inputs": [
        {
          "internalType": "address",
          "name": "",
          "type": "address"
        }
      ],
      "name": "usersBalance",
      "outputs": [
        {
          "internalType": "uint256",
          "name": "",
          "type": "uint256"
        }
      ],
      "stateMutability": "view",
      "type": "function",
      "constant": true
    },
    {
      "inputs": [
        {
          "internalType": "address",
          "name": "",
          "type": "address"
        },
        {
          "internalType": "uint256",
          "name": "",
          "type": "uint256"
        }
      ],
      "name": "usersStakings",
      "outputs": [
        {
          "internalType": "string",
          "name": "teamToWin",
          "type": "string"
        },
        {
          "internalType": "bytes32",
          "name": "teamToWinHash",
          "type": "bytes32"
        },
        {
          "internalType": "uint256",
          "name": "totalAmountStaked",
          "type": "uint256"
        },
        {
          "internalType": "uint256",
          "name": "stakePercentage",
          "type": "uint256"
        }
      ],
      "stateMutability": "view",
      "type": "function",
      "constant": true
    },
    {
      "inputs": [
        {
          "internalType": "address payable",
          "name": "_address",
          "type": "address"
        }
      ],
      "name": "registerUser",
      "outputs": [
        {
          "internalType": "bool",
          "name": "",
          "type": "bool"
        }
      ],
      "stateMutability": "nonpayable",
      "type": "function"
    },
    {
      "inputs": [],
      "name": "addFunds",
      "outputs": [],
      "stateMutability": "payable",
      "type": "function",
      "payable": true
    },
    {
      "inputs": [
        {
          "internalType": "address payable",
          "name": "_to",
          "type": "address"
        },
        {
          "internalType": "uint256",
          "name": "_amount",
          "type": "uint256"
        }
      ],
      "name": "withdrawFunds",
      "outputs": [
        {
          "internalType": "uint256",
          "name": "",
          "type": "uint256"
        }
      ],
      "stateMutability": "payable",
      "type": "function",
      "payable": true
    },
    {
      "inputs": [
        {
          "internalType": "string",
          "name": "teamA",
          "type": "string"
        },
        {
          "internalType": "string",
          "name": "teamB",
          "type": "string"
        },
        {
          "internalType": "uint256",
          "name": "startTime",
          "type": "uint256"
        },
        {
          "internalType": "uint256",
          "name": "endTime",
          "type": "uint256"
        }
      ],
      "name": "addGame",
      "outputs": [],
      "stateMutability": "nonpayable",
      "type": "function"
    },
    {
      "inputs": [
        {
          "internalType": "uint256",
          "name": "_gameId",
          "type": "uint256"
        }
      ],
      "name": "closeGame",
      "outputs": [],
      "stateMutability": "nonpayable",
      "type": "function"
    },
    {
      "inputs": [],
      "name": "getAllGames",
      "outputs": [
        {
          "components": [
            {
              "internalType": "string",
              "name": "teamA",
              "type": "string"
            },
            {
              "internalType": "string",
              "name": "teamB",
              "type": "string"
            },
            {
              "internalType": "string",
              "name": "winner",
              "type": "string"
            },
            {
              "internalType": "uint256",
              "name": "totalAmountStaked",
              "type": "uint256"
            },
            {
              "internalType": "uint256",
              "name": "usersCount",
              "type": "uint256"
            },
            {
              "internalType": "uint256",
              "name": "startTime",
              "type": "uint256"
            },
            {
              "internalType": "uint256",
              "name": "endTime",
              "type": "uint256"
            },
            {
              "internalType": "bool",
              "name": "isOpen",
              "type": "bool"
            }
          ],
          "internalType": "struct Betting.Game[]",
          "name": "",
          "type": "tuple[]"
        }
      ],
      "stateMutability": "view",
      "type": "function",
      "constant": true
    },
    {
      "inputs": [
        {
          "internalType": "uint256",
          "name": "_gameId",
          "type": "uint256"
        },
        {
          "internalType": "string",
          "name": "_teamToWin",
          "type": "string"
        },
        {
          "internalType": "uint256",
          "name": "_betStakeAmount",
          "type": "uint256"
        }
      ],
      "name": "submitBet",
      "outputs": [],
      "stateMutability": "nonpayable",
      "type": "function"
    },
    {
      "inputs": [
        {
          "internalType": "uint256",
          "name": "_gameId",
          "type": "uint256"
        },
        {
          "internalType": "string",
          "name": "_winner",
          "type": "string"
        }
      ],
      "name": "updateGameWinner",
      "outputs": [],
      "stateMutability": "nonpayable",
      "type": "function"
    },
    {
      "inputs": [
        {
          "internalType": "uint256",
          "name": "_gameId",
          "type": "uint256"
        }
      ],
      "name": "disburseBetFunds",
      "outputs": [
        {
          "internalType": "bool",
          "name": "",
          "type": "bool"
        }
      ],
      "stateMutability": "nonpayable",
      "type": "function"
    }
  ],
  "bytecode": "0x608060405234801561001057600080fd5b50336000806101000a81548173ffffffffffffffffffffffffffffffffffffffff021916908373ffffffffffffffffffffffffffffffffffffffff16021790555060016002819055506000600181905550612be0806100706000396000f3fe6080604052600436106100dd5760003560e01c8063a84d1af01161007f578063c4c9cf1f11610059578063c4c9cf1f146102bb578063d098067d146102fb578063d7c81b5514610338578063db1c45f914610363576100dd565b8063a84d1af014610225578063a87430ba1461024e578063c10753291461028b576100dd565b806358324335116100bb578063583243351461018c57806398880043146101c95780639c2f8f4f146101f2578063a26759cb1461021b576100dd565b8063117a5b90146100e25780632199d5cd146101265780632d6ef31014610163575b600080fd5b3480156100ee57600080fd5b5061010960048036038101906101049190611ee8565b61038e565b60405161011d98979695949392919061274d565b60405180910390f35b34801561013257600080fd5b5061014d60048036038101906101489190611db4565b6105ab565b60405161015a919061268d565b60405180910390f35b34801561016f57600080fd5b5061018a60048036038101906101859190611ee8565b610726565b005b34801561019857600080fd5b506101b360048036038101906101ae9190611d8b565b61087d565b6040516101c091906129be565b60405180910390f35b3480156101d557600080fd5b506101f060048036038101906101eb9190611e55565b610895565b005b3480156101fe57600080fd5b5061021960048036038101906102149190611f11565b610a9b565b005b610223610c67565b005b34801561023157600080fd5b5061024c60048036038101906102479190611f65565b610d97565b005b34801561025a57600080fd5b5061027560048036038101906102709190611d8b565b6112f4565b604051610282919061268d565b60405180910390f35b6102a560048036038101906102a09190611ddd565b611314565b6040516102b291906129be565b60405180910390f35b3480156102c757600080fd5b506102e260048036038101906102dd9190611e19565b61157e565b6040516102f294939291906126ca565b60405180910390f35b34801561030757600080fd5b50610322600480360381019061031d9190611ee8565b611653565b60405161032f919061268d565b60405180910390f35b34801561034457600080fd5b5061034d6116e9565b60405161035a91906129be565b60405180910390f35b34801561036f57600080fd5b506103786116ef565b604051610385919061266b565b60405180910390f35b6005602052806000526040600020600091509050806000018054600181600116156101000203166002900480601f01602080910402602001604051908101604052809291908181526020018280546001816001161561010002031660029004801561043a5780601f1061040f5761010080835404028352916020019161043a565b820191906000526020600020905b81548152906001019060200180831161041d57829003601f168201915b505050505090806001018054600181600116156101000203166002900480601f0160208091040260200160405190810160405280929190818152602001828054600181600116156101000203166002900480156104d85780601f106104ad576101008083540402835291602001916104d8565b820191906000526020600020905b8154815290600101906020018083116104bb57829003601f168201915b505050505090806002018054600181600116156101000203166002900480601f0160208091040260200160405190810160405280929190818152602001828054600181600116156101000203166002900480156105765780601f1061054b57610100808354040283529160200191610576565b820191906000526020600020905b81548152906001019060200180831161055957829003601f168201915b5050505050908060030154908060040154908060050154908060060154908060070160009054906101000a900460ff16905088565b60008060009054906101000a900473ffffffffffffffffffffffffffffffffffffffff1673ffffffffffffffffffffffffffffffffffffffff168273ffffffffffffffffffffffffffffffffffffffff16141561063d576040517f08c379a0000000000000000000000000000000000000000000000000000000008152600401610634906128fe565b60405180910390fd5b6001600360008473ffffffffffffffffffffffffffffffffffffffff1673ffffffffffffffffffffffffffffffffffffffff16815260200190815260200160002060006101000a81548160ff0219169083151502179055506000600460008473ffffffffffffffffffffffffffffffffffffffff1673ffffffffffffffffffffffffffffffffffffffff168152602001908152602001600020819055508173ffffffffffffffffffffffffffffffffffffffff167fcda0fcefcc35e40f9e67854cea108227feafd78620a80d4e94227a299827564a60405160405180910390a260019050919050565b60008054906101000a900473ffffffffffffffffffffffffffffffffffffffff1673ffffffffffffffffffffffffffffffffffffffff163373ffffffffffffffffffffffffffffffffffffffff16146107b4576040517f08c379a00000000000000000000000000000000000000000000000000000000081526004016107ab9061287e565b60405180910390fd5b600115156005600083815260200190815260200160002060070160009054906101000a900460ff1615151461081e576040517f08c379a00000000000000000000000000000000000000000000000000000000081526004016108159061299e565b60405180910390fd5b60006005600083815260200190815260200160002060070160006101000a81548160ff021916908315150217905550807f24a5dbf244dd4fdeabd46c3805b8bd07f9b99e43d2209810e9ed7a90d649429560405160405180910390a250565b60046020528060005260406000206000915090505481565b60008054906101000a900473ffffffffffffffffffffffffffffffffffffffff1673ffffffffffffffffffffffffffffffffffffffff163373ffffffffffffffffffffffffffffffffffffffff1614610923576040517f08c379a000000000000000000000000000000000000000000000000000000000815260040161091a9061287e565b60405180910390fd5b61092b611be9565b84816000018190525083816020018190525060405180602001604052806000815250816040018190525060008160600181815250506000816080018181525050828160a0018181525050818160c001818152505060018160e00190151590811515815250508060056000600254815260200190815260200160002060008201518160000190805190602001906109c2929190611c30565b5060208201518160010190805190602001906109df929190611c30565b5060408201518160020190805190602001906109fc929190611c30565b50606082015181600301556080820151816004015560a0820151816005015560c0820151816006015560e08201518160070160006101000a81548160ff021916908315150217905550905050600160026000828254019250508190555081837f0bfce854c1cd16d4f0808949802d6262e3a086711bc7968a170a112860975f638787604051610a8c929190612716565b60405180910390a35050505050565b60008054906101000a900473ffffffffffffffffffffffffffffffffffffffff1673ffffffffffffffffffffffffffffffffffffffff163373ffffffffffffffffffffffffffffffffffffffff1614610b29576040517f08c379a0000000000000000000000000000000000000000000000000000000008152600401610b209061287e565b60405180910390fd5b600015156005600084815260200190815260200160002060070160009054906101000a900460ff16151514610b93576040517f08c379a0000000000000000000000000000000000000000000000000000000008152600401610b8a9061291e565b60405180910390fd5b60006005600084815260200190815260200160002060020180546001816001161561010002031660029004905014610c00576040517f08c379a0000000000000000000000000000000000000000000000000000000008152600401610bf79061293e565b60405180910390fd5b80600560008481526020019081526020016000206002019080519060200190610c2a929190611c30565b50817f1da28083458e812c85b645713b82ac43e2ca08cf842ba14d6a80bd456967527f82604051610c5b91906126a8565b60405180910390a25050565b60011515600360003373ffffffffffffffffffffffffffffffffffffffff1673ffffffffffffffffffffffffffffffffffffffff16815260200190815260200160002060009054906101000a900460ff16151514610cfa576040517f08c379a0000000000000000000000000000000000000000000000000000000008152600401610cf19061283e565b60405180910390fd5b34600460003373ffffffffffffffffffffffffffffffffffffffff1673ffffffffffffffffffffffffffffffffffffffff168152602001908152602001600020600082825401925050819055503373ffffffffffffffffffffffffffffffffffffffff167ff10a70d7840292e5567b3acea76264b1528c1c5c45625420169815099f702d1b34604051610d8d91906129be565b60405180910390a2565b60011515600360003373ffffffffffffffffffffffffffffffffffffffff1673ffffffffffffffffffffffffffffffffffffffff16815260200190815260200160002060009054906101000a900460ff16151514610e2a576040517f08c379a0000000000000000000000000000000000000000000000000000000008152600401610e219061283e565b60405180910390fd5b80600460003373ffffffffffffffffffffffffffffffffffffffff1673ffffffffffffffffffffffffffffffffffffffff16815260200190815260200160002054811115610ead576040517f08c379a0000000000000000000000000000000000000000000000000000000008152600401610ea4906128be565b60405180910390fd5b600115156005600086815260200190815260200160002060070160009054906101000a900460ff16151514610f17576040517f08c379a0000000000000000000000000000000000000000000000000000000008152600401610f0e9061285e565b60405180910390fd5b60008211610f5a576040517f08c379a0000000000000000000000000000000000000000000000000000000008152600401610f519061295e565b60405180910390fd5b6000339050600084604051602001610f72919061263f565b6040516020818303038152906040528051906020012090506000600660008473ffffffffffffffffffffffffffffffffffffffff1673ffffffffffffffffffffffffffffffffffffffff168152602001908152602001600020600088815260200190815260200160002090506000816002015414156110e957610ff3611cb0565b868160000181905250828160200181815250508581604001818152505080600660008673ffffffffffffffffffffffffffffffffffffffff1673ffffffffffffffffffffffffffffffffffffffff16815260200190815260200160002060008a8152602001908152602001600020600082015181600001908051906020019061107d929190611c30565b506020820151816001015560408201518160020155606082015181600301559050506110c96001600560008b8152602001908152602001600020600401546119d490919063ffffffff16565b600560008a8152602001908152602001600020600401819055505061114f565b8181600101541461112f576040517f08c379a00000000000000000000000000000000000000000000000000000000081526004016111269061281e565b60405180910390fd5b6111468582600201546119d490919063ffffffff16565b81600201819055505b6111a185600460008673ffffffffffffffffffffffffffffffffffffffff1673ffffffffffffffffffffffffffffffffffffffff16815260200190815260200160002054611a2990919063ffffffff16565b600460008573ffffffffffffffffffffffffffffffffffffffff1673ffffffffffffffffffffffffffffffffffffffff1681526020019081526020016000208190555061120d85600560008a8152602001908152602001600020600301546119d490919063ffffffff16565b600560008981526020019081526020016000206003018190555061123c856001546119d490919063ffffffff16565b6001819055506000816002015490506000611289606461127b600560008d81526020019081526020016000206003015485611a7390919063ffffffff16565b611abd90919063ffffffff16565b9050808360030181905550883373ffffffffffffffffffffffffffffffffffffffff167fa9f47223c151f2e248554dd2758229dceb80a21de3877f60ae604e35468cf4ef8a8a6001546040516112e1939291906127e0565b60405180910390a3505050505050505050565b60036020528060005260406000206000915054906101000a900460ff1681565b600060011515600360003373ffffffffffffffffffffffffffffffffffffffff1673ffffffffffffffffffffffffffffffffffffffff16815260200190815260200160002060009054906101000a900460ff161515146113a9576040517f08c379a00000000000000000000000000000000000000000000000000000000081526004016113a09061283e565b60405180910390fd5b81600460003373ffffffffffffffffffffffffffffffffffffffff1673ffffffffffffffffffffffffffffffffffffffff1681526020019081526020016000205481111561142c576040517f08c379a0000000000000000000000000000000000000000000000000000000008152600401611423906128be565b60405180910390fd5b82600460003373ffffffffffffffffffffffffffffffffffffffff1673ffffffffffffffffffffffffffffffffffffffff1681526020019081526020016000206000828254039250508190555060008473ffffffffffffffffffffffffffffffffffffffff168460405161149f90612656565b60006040518083038185875af1925050503d80600081146114dc576040519150601f19603f3d011682016040523d82523d6000602084013e6114e1565b606091505b5050905080611525576040517f08c379a000000000000000000000000000000000000000000000000000000000815260040161151c9061297e565b60405180910390fd5b3373ffffffffffffffffffffffffffffffffffffffff167f333d9f35320f28a9518fc6083975ac7d7465f020712cda7608ca073ea651f2648560405161156b91906129be565b60405180910390a2839250505092915050565b600660205281600052604060002060205280600052604060002060009150915050806000018054600181600116156101000203166002900480601f0160208091040260200160405190810160405280929190818152602001828054600181600116156101000203166002900480156116375780601f1061160c57610100808354040283529160200191611637565b820191906000526020600020905b81548152906001019060200180831161161a57829003601f168201915b5050505050908060010154908060020154908060030154905084565b60008060009054906101000a900473ffffffffffffffffffffffffffffffffffffffff1673ffffffffffffffffffffffffffffffffffffffff163373ffffffffffffffffffffffffffffffffffffffff16146116e4576040517f08c379a00000000000000000000000000000000000000000000000000000000081526004016116db9061287e565b60405180910390fd5b919050565b60025481565b60606000600160025403905060608167ffffffffffffffff8111801561171457600080fd5b5060405190808252806020026020018201604052801561174e57816020015b61173b611be9565b8152602001906001900390816117335790505b50905060005b828110156119cb576005600060018301815260200190815260200160002060405180610100016040529081600082018054600181600116156101000203166002900480601f0160208091040260200160405190810160405280929190818152602001828054600181600116156101000203166002900480156118175780601f106117ec57610100808354040283529160200191611817565b820191906000526020600020905b8154815290600101906020018083116117fa57829003601f168201915b50505050508152602001600182018054600181600116156101000203166002900480601f0160208091040260200160405190810160405280929190818152602001828054600181600116156101000203166002900480156118b95780601f1061188e576101008083540402835291602001916118b9565b820191906000526020600020905b81548152906001019060200180831161189c57829003601f168201915b50505050508152602001600282018054600181600116156101000203166002900480601f01602080910402602001604051908101604052809291908181526020018280546001816001161561010002031660029004801561195b5780601f106119305761010080835404028352916020019161195b565b820191906000526020600020905b81548152906001019060200180831161193e57829003601f168201915b50505050508152602001600382015481526020016004820154815260200160058201548152602001600682015481526020016007820160009054906101000a900460ff1615151515815250508282815181106119b357fe5b60200260200101819052508080600101915050611754565b50809250505090565b600080828401905083811015611a1f576040517f08c379a0000000000000000000000000000000000000000000000000000000008152600401611a169061289e565b60405180910390fd5b8091505092915050565b6000611a6b83836040518060400160405280601e81526020017f536166654d6174683a207375627472616374696f6e206f766572666c6f770000815250611b2d565b905092915050565b6000611ab583836040518060400160405280601a81526020017f536166654d6174683a206469766973696f6e206279207a65726f000000000000815250611b88565b905092915050565b600080831415611ad05760009050611b27565b6000828402905082848281611ae157fe5b0414611b22576040517f08c379a0000000000000000000000000000000000000000000000000000000008152600401611b19906128de565b60405180910390fd5b809150505b92915050565b6000838311158290611b75576040517f08c379a0000000000000000000000000000000000000000000000000000000008152600401611b6c91906126a8565b60405180910390fd5b5060008385039050809150509392505050565b60008083118290611bcf576040517f08c379a0000000000000000000000000000000000000000000000000000000008152600401611bc691906126a8565b60405180910390fd5b506000838581611bdb57fe5b049050809150509392505050565b604051806101000160405280606081526020016060815260200160608152602001600081526020016000815260200160008152602001600081526020016000151581525090565b828054600181600116156101000203166002900490600052602060002090601f016020900481019282601f10611c7157805160ff1916838001178555611c9f565b82800160010185558215611c9f579182015b82811115611c9e578251825591602001919060010190611c83565b5b509050611cac9190611cdb565b5090565b6040518060800160405280606081526020016000801916815260200160008152602001600081525090565b5b80821115611cf4576000816000905550600101611cdc565b5090565b600081359050611d0781612b65565b92915050565b600081359050611d1c81612b7c565b92915050565b600082601f830112611d3357600080fd5b8135611d46611d4182612a06565b6129d9565b91508082526020830160208301858383011115611d6257600080fd5b611d6d838284612b12565b50505092915050565b600081359050611d8581612b93565b92915050565b600060208284031215611d9d57600080fd5b6000611dab84828501611cf8565b91505092915050565b600060208284031215611dc657600080fd5b6000611dd484828501611d0d565b91505092915050565b60008060408385031215611df057600080fd5b6000611dfe85828601611d0d565b9250506020611e0f85828601611d76565b9150509250929050565b60008060408385031215611e2c57600080fd5b6000611e3a85828601611cf8565b9250506020611e4b85828601611d76565b9150509250929050565b60008060008060808587031215611e6b57600080fd5b600085013567ffffffffffffffff811115611e8557600080fd5b611e9187828801611d22565b945050602085013567ffffffffffffffff811115611eae57600080fd5b611eba87828801611d22565b9350506040611ecb87828801611d76565b9250506060611edc87828801611d76565b91505092959194509250565b600060208284031215611efa57600080fd5b6000611f0884828501611d76565b91505092915050565b60008060408385031215611f2457600080fd5b6000611f3285828601611d76565b925050602083013567ffffffffffffffff811115611f4f57600080fd5b611f5b85828601611d22565b9150509250929050565b600080600060608486031215611f7a57600080fd5b6000611f8886828701611d76565b935050602084013567ffffffffffffffff811115611fa557600080fd5b611fb186828701611d22565b9250506040611fc286828701611d76565b9150509250925092565b6000611fd88383612563565b905092915050565b6000611feb82612a42565b611ff58185612a65565b93508360208202850161200785612a32565b8060005b8581101561204357848403895281516120248582611fcc565b945061202f83612a58565b925060208a0199505060018101905061200b565b50829750879550505050505092915050565b61205e81612ad2565b82525050565b61206d81612ad2565b82525050565b61207c81612ade565b82525050565b600061208d82612a4d565b6120978185612a81565b93506120a7818560208601612b21565b6120b081612b54565b840191505092915050565b60006120c682612a4d565b6120d08185612a92565b93506120e0818560208601612b21565b6120e981612b54565b840191505092915050565b60006120ff82612a4d565b6121098185612aa3565b9350612119818560208601612b21565b80840191505092915050565b6000612132603383612a92565b91507f596f75277265206e6f7420616c6c6f77656420746f207374616b65206f6e206260008301527f6f7468207369646573206f6620612067616d65000000000000000000000000006020830152604082019050919050565b6000612198601383612a92565b91507f55736572206e6f742072656769737465726564000000000000000000000000006000830152602082019050919050565b60006121d8602783612a92565b91507f546869732067616d65206973206e6f206c6f6e67657220616363657074696e6760008301527f207374616b6573000000000000000000000000000000000000000000000000006020830152604082019050919050565b600061223e602b83612a92565b91507f4f6e6c7920636f6e7472616374206f776e65722063616e20706572666f726d2060008301527f7468697320616374696f6e0000000000000000000000000000000000000000006020830152604082019050919050565b60006122a4601b83612a92565b91507f536166654d6174683a206164646974696f6e206f766572666c6f7700000000006000830152602082019050919050565b60006122e4601483612a92565b91507f496e73756666696369656e742062616c616e63650000000000000000000000006000830152602082019050919050565b6000612324602183612a92565b91507f536166654d6174683a206d756c7469706c69636174696f6e206f766572666c6f60008301527f77000000000000000000000000000000000000000000000000000000000000006020830152604082019050919050565b600061238a601b83612a92565b91507f4f776e65722063616e206e6f74206265207265676973746572656400000000006000830152602082019050919050565b60006123ca602583612a92565b91507f43616e206e6f74207570646174652077696e6e6572206f6620616e206f70656e60008301527f2067616d650000000000000000000000000000000000000000000000000000006020830152604082019050919050565b6000612430601e83612a92565b91507f546869732067616d6520616c72656164792068617320612077696e6e657200006000830152602082019050919050565b6000612470600083612a76565b9150600082019050919050565b600061248a602783612a92565b91507f426574207374616b6520616d6f756e74206d757374206265206772656174657260008301527f207468616e2030000000000000000000000000000000000000000000000000006020830152604082019050919050565b60006124f0601183612a92565b91507f5769746864726177616c206661696c65640000000000000000000000000000006000830152602082019050919050565b6000612530601b83612a92565b91507f546869732067616d6520697320616c726561647920636c6f73656400000000006000830152602082019050919050565b60006101008301600083015184820360008601526125818282612082565b9150506020830151848203602086015261259b8282612082565b915050604083015184820360408601526125b58282612082565b91505060608301516125ca6060860182612621565b5060808301516125dd6080860182612621565b5060a08301516125f060a0860182612621565b5060c083015161260360c0860182612621565b5060e083015161261660e0860182612055565b508091505092915050565b61262a81612b08565b82525050565b61263981612b08565b82525050565b600061264b82846120f4565b915081905092915050565b600061266182612463565b9150819050919050565b600060208201905081810360008301526126858184611fe0565b905092915050565b60006020820190506126a26000830184612064565b92915050565b600060208201905081810360008301526126c281846120bb565b905092915050565b600060808201905081810360008301526126e481876120bb565b90506126f36020830186612073565b6127006040830185612630565b61270d6060830184612630565b95945050505050565b6000604082019050818103600083015261273081856120bb565b9050818103602083015261274481846120bb565b90509392505050565b6000610100820190508181036000830152612768818b6120bb565b9050818103602083015261277c818a6120bb565b9050818103604083015261279081896120bb565b905061279f6060830188612630565b6127ac6080830187612630565b6127b960a0830186612630565b6127c660c0830185612630565b6127d360e0830184612064565b9998505050505050505050565b600060608201905081810360008301526127fa81866120bb565b90506128096020830185612630565b6128166040830184612630565b949350505050565b6000602082019050818103600083015261283781612125565b9050919050565b600060208201905081810360008301526128578161218b565b9050919050565b60006020820190508181036000830152612877816121cb565b9050919050565b6000602082019050818103600083015261289781612231565b9050919050565b600060208201905081810360008301526128b781612297565b9050919050565b600060208201905081810360008301526128d7816122d7565b9050919050565b600060208201905081810360008301526128f781612317565b9050919050565b600060208201905081810360008301526129178161237d565b9050919050565b60006020820190508181036000830152612937816123bd565b9050919050565b6000602082019050818103600083015261295781612423565b9050919050565b600060208201905081810360008301526129778161247d565b9050919050565b60006020820190508181036000830152612997816124e3565b9050919050565b600060208201905081810360008301526129b781612523565b9050919050565b60006020820190506129d36000830184612630565b92915050565b6000604051905081810181811067ffffffffffffffff821117156129fc57600080fd5b8060405250919050565b600067ffffffffffffffff821115612a1d57600080fd5b601f19601f8301169050602081019050919050565b6000819050602082019050919050565b600081519050919050565b600081519050919050565b6000602082019050919050565b600082825260208201905092915050565b600081905092915050565b600082825260208201905092915050565b600082825260208201905092915050565b600081905092915050565b6000612ab982612ae8565b9050919050565b6000612acb82612ae8565b9050919050565b60008115159050919050565b6000819050919050565b600073ffffffffffffffffffffffffffffffffffffffff82169050919050565b6000819050919050565b82818337600083830152505050565b60005b83811015612b3f578082015181840152602081019050612b24565b83811115612b4e576000848401525b50505050565b6000601f19601f8301169050919050565b612b6e81612aae565b8114612b7957600080fd5b50565b612b8581612ac0565b8114612b9057600080fd5b50565b612b9c81612b08565b8114612ba757600080fd5b5056fea2646970667358221220676e865be115ffbd4dc2f10ca6f9afbee1c253dbf596cf36ab4a8aa6a722efc364736f6c63430007010033",
  "immutableReferences": {},
  "source": "// SPDX-License-Identifier: MIT\npragma solidity >=0.5.0 <0.9.0;\npragma experimental ABIEncoderV2;\n\nlibrary SafeMath {\n    /**\n     * @dev Returns the addition of two unsigned integers, reverting on\n     * overflow.\n     *\n     * Counterpart to Solidity's `+` operator.\n     *\n     * Requirements:\n     *\n     * - Addition cannot overflow.\n     */\n    function add(uint256 a, uint256 b) internal pure returns (uint256) {\n        uint256 c = a + b;\n        require(c >= a, \"SafeMath: addition overflow\");\n\n        return c;\n    }\n\n    /**\n     * @dev Returns the subtraction of two unsigned integers, reverting on\n     * overflow (when the result is negative).\n     *\n     * Counterpart to Solidity's `-` operator.\n     *\n     * Requirements:\n     *\n     * - Subtraction cannot overflow.\n     */\n    function sub(uint256 a, uint256 b) internal pure returns (uint256) {\n        return sub(a, b, \"SafeMath: subtraction overflow\");\n    }\n\n    /**\n     * @dev Returns the subtraction of two unsigned integers, reverting with custom message on\n     * overflow (when the result is negative).\n     *\n     * Counterpart to Solidity's `-` operator.\n     *\n     * Requirements:\n     *\n     * - Subtraction cannot overflow.\n     */\n    function sub(uint256 a, uint256 b, string memory errorMessage) internal pure returns (uint256) {\n        require(b <= a, errorMessage);\n        uint256 c = a - b;\n\n        return c;\n    }\n\n    /**\n     * @dev Returns the multiplication of two unsigned integers, reverting on\n     * overflow.\n     *\n     * Counterpart to Solidity's `*` operator.\n     *\n     * Requirements:\n     *\n     * - Multiplication cannot overflow.\n     */\n    function mul(uint256 a, uint256 b) internal pure returns (uint256) {\n        // Gas optimization: this is cheaper than requiring 'a' not being zero, but the\n        // benefit is lost if 'b' is also tested.\n        // See: https://github.com/OpenZeppelin/openzeppelin-contracts/pull/522\n        if (a == 0) {\n            return 0;\n        }\n\n        uint256 c = a * b;\n        require(c / a == b, \"SafeMath: multiplication overflow\");\n\n        return c;\n    }\n\n    /**\n     * @dev Returns the integer division of two unsigned integers. Reverts on\n     * division by zero. The result is rounded towards zero.\n     *\n     * Counterpart to Solidity's `/` operator. Note: this function uses a\n     * `revert` opcode (which leaves remaining gas untouched) while Solidity\n     * uses an invalid opcode to revert (consuming all remaining gas).\n     *\n     * Requirements:\n     *\n     * - The divisor cannot be zero.\n     */\n    function div(uint256 a, uint256 b) internal pure returns (uint256) {\n        return div(a, b, \"SafeMath: division by zero\");\n    }\n\n    /**\n     * @dev Returns the integer division of two unsigned integers. Reverts with custom message on\n     * division by zero. The result is rounded towards zero.\n     *\n     * Counterpart to Solidity's `/` operator. Note: this function uses a\n     * `revert` opcode (which leaves remaining gas untouched) while Solidity\n     * uses an invalid opcode to revert (consuming all remaining gas).\n     *\n     * Requirements:\n     *\n     * - The divisor cannot be zero.\n     */\n    function div(uint256 a, uint256 b, string memory errorMessage) internal pure returns (uint256) {\n        require(b > 0, errorMessage);\n        uint256 c = a / b;\n        // assert(a == b * c + a % b); // There is no case in which this doesn't hold\n\n        return c;\n    }\n\n    /**\n     * @dev Returns the remainder of dividing two unsigned integers. (unsigned integer modulo),\n     * Reverts when dividing by zero.\n     *\n     * Counterpart to Solidity's `%` operator. This function uses a `revert`\n     * opcode (which leaves remaining gas untouched) while Solidity uses an\n     * invalid opcode to revert (consuming all remaining gas).\n     *\n     * Requirements:\n     *\n     * - The divisor cannot be zero.\n     */\n    function mod(uint256 a, uint256 b) internal pure returns (uint256) {\n        return mod(a, b, \"SafeMath: modulo by zero\");\n    }\n\n    /**\n     * @dev Returns the remainder of dividing two unsigned integers. (unsigned integer modulo),\n     * Reverts with custom message when dividing by zero.\n     *\n     * Counterpart to Solidity's `%` operator. This function uses a `revert`\n     * opcode (which leaves remaining gas untouched) while Solidity uses an\n     * invalid opcode to revert (consuming all remaining gas).\n     *\n     * Requirements:\n     *\n     * - The divisor cannot be zero.\n     */\n    function mod(uint256 a, uint256 b, string memory errorMessage) internal pure returns (uint256) {\n        require(b != 0, errorMessage);\n        return a % b;\n    }\n}\n\n// TODOs\n// Anotate functions with comments\n// USE Open zieppelin as much as possible\n// USE pausable contract\n// CHECK for possible re-enterecy pitfalls\n\ncontract Betting {\n  using SafeMath for uint256;\n  struct Game {\n    string teamA;\n    string teamB;\n    string winner;\n    uint256 totalAmountStaked;\n    uint256 usersCount;\n    uint256 startTime;\n    uint256 endTime;\n    bool isOpen;\n  }\n\n  struct Stake {\n    string teamToWin;\n    bytes32 teamToWinHash;\n    uint256 totalAmountStaked;\n    uint256 stakePercentage;\n  }\n\n  address private owner;\n  uint256 private appBalance;\n  uint256 public gameId;\n  mapping (address => bool) public users;\n  mapping (address => uint256) public usersBalance;\n  mapping (uint256 => Game) public games;\n  mapping (address => mapping (uint256 => Stake)) public usersStakings;\n\n  constructor() {\n    owner = msg.sender;\n    gameId = 1;\n    appBalance = 0;\n  }\n\n  modifier isOwner {\n    require(msg.sender == owner, \"Only contract owner can perform this action\");\n    _;\n  }\n\n  modifier isRegistered {\n    require(users[msg.sender] == true, \"User not registered\");\n    _;\n  }\n\n  modifier checkAmount(uint256 _amount) {\n    require(_amount <= usersBalance[msg.sender], \"Insufficient balance\");\n    _;\n  }\n\n  function registerUser(address payable _address) external returns (bool) { // Register new user\n    require(_address != owner, \"Owner can not be registered\");\n\n    users[_address] = true;\n    usersBalance[_address] = 0;\n\n    emit LogRegisterUser(_address);\n    return true;\n  }\n\n  function addFunds() external payable isRegistered { // Fund user in app wallet\n    usersBalance[msg.sender] += msg.value;\n    emit LogAddFunds(msg.sender, msg.value);\n  }\n\n  function withdrawFunds(address payable _to, uint256 _amount) external payable isRegistered checkAmount(_amount) returns (uint256) { // Withdraw funds to external wallet\n    usersBalance[msg.sender] -= _amount;\n    (bool success, ) = _to.call{value: _amount}(\"\");\n    require(success, \"Withdrawal failed\");\n    emit LogWithdrawFunds(msg.sender, _amount);\n    return _amount;\n  }\n\n  function addGame(string memory teamA, string memory teamB, uint256 startTime, uint256 endTime) external isOwner {\n    Game memory game;\n      game.teamA = teamA;\n      game.teamB = teamB;\n      game.winner = \"\";\n      game.totalAmountStaked = 0;\n      game.usersCount = 0;\n      game.startTime = startTime;\n      game.endTime = endTime;\n      game.isOpen = true;\n\n    games[gameId] = game;\n    gameId += 1;\n    emit LogAddGame(teamA, teamB, startTime, endTime);\n  }\n\n  function closeGame(uint256 _gameId) external isOwner {\n    require(games[_gameId].isOpen == true, \"This game is already closed\");\n    games[_gameId].isOpen = false;\n    emit LogCloseGame(_gameId);\n  }\n\n  function getAllGames() external view returns (Game[] memory) {\n    uint256 resultLength = gameId - 1;\n    Game[] memory result = new Game[](resultLength);\n    for(uint256 i = 0; i < resultLength; i++) {\n      result[i] = games[i + 1];\n    }\n    return result;\n  }\n\n  function submitBet(uint256 _gameId, string memory _teamToWin, uint256 _betStakeAmount) external isRegistered checkAmount(_betStakeAmount) { // Register a bet with money from app wallet\n    require(games[_gameId].isOpen == true, \"This game is no longer accepting stakes\");\n    require(_betStakeAmount > 0, \"Bet stake amount must be greater than 0\");\n    address user = msg.sender;\n    bytes32 teamToWinHash = keccak256(abi.encodePacked(_teamToWin));\n    Stake storage userStaking = usersStakings[user][_gameId];\n\n    // User might be staking this bet for the first time or increasing thier initial stake\n    if(userStaking.totalAmountStaked == 0) {\n      Stake memory stake;\n      stake.teamToWin = _teamToWin;\n      stake.teamToWinHash = teamToWinHash;\n      stake.totalAmountStaked =  _betStakeAmount;\n\n      usersStakings[user][_gameId] = stake;\n      games[_gameId].usersCount = games[_gameId].usersCount.add(1);\n    } else {\n      require(userStaking.teamToWinHash == teamToWinHash, \"You're not allowed to stake on both sides of a game\");\n      userStaking.totalAmountStaked = userStaking.totalAmountStaked.add(_betStakeAmount);\n    }\n\n    usersBalance[user] = usersBalance[user].sub(_betStakeAmount);\n    games[_gameId].totalAmountStaked = games[_gameId].totalAmountStaked.add(_betStakeAmount);\n    appBalance = appBalance.add(_betStakeAmount);\n\n    // Compute user's stake percentage WRT total stake on this game\n    uint256 userTotalAmountStaked = userStaking.totalAmountStaked;\n    uint256 stakePercentage = userTotalAmountStaked.div(games[_gameId].totalAmountStaked).mul(100);\n    userStaking.stakePercentage = stakePercentage;\n    emit LogSubmitBet(msg.sender, _gameId, _teamToWin, _betStakeAmount, appBalance);\n  }\n\n  function updateGameWinner(uint256 _gameId, string memory _winner) external isOwner {\n    require(games[_gameId].isOpen == false, \"Can not update winner of an open game\");\n    require(bytes(games[_gameId].winner).length == 0, \"This game already has a winner\");\n\n    games[_gameId].winner = _winner;\n    emit LogUpdateGameWinner(_gameId, _winner);\n  }\n\n  function disburseBetFunds(uint256 _gameId) external isOwner returns (bool) {\n\n  }\n\n  // Events\n  event LogRegisterUser(address payable indexed _address);\n  event LogAddFunds(address indexed _sender, uint256 _amount);\n  event LogWithdrawFunds(address indexed _to, uint256 _amount);\n  event LogAddGame(string _teamA, string _teamB, uint256 indexed _startTime, uint256 indexed _endTime);\n  event LogSubmitBet(address indexed _user, uint256 indexed _gameId, string _sideToWin, uint256 _betStakeAmount, uint256 _appBalance);\n  event LogUpdateGameWinner(uint256 indexed _gameId, string _winner);\n  event LogDisburseBetFunds(uint256 indexed _gameId);\n  event LogCloseGame(uint256 indexed _gameId);\n  \n}\n",
  "sourcePath": "/Users/mac/Desktop/blockchain-developer-bootcamp-final-project/contracts/Betting.sol",
  "compiler": {
    "name": "solc",
    "version": "0.7.1+commit.f4a555be.Emscripten.clang"
  },
  "schemaVersion": "3.4.3",
  "updatedAt": "2021-10-20T16:38:18.258Z",
  "networkType": "ethereum",
  "devdoc": {
    "kind": "dev",
    "methods": {},
    "version": 1
  },
  "userdoc": {
    "kind": "user",
    "methods": {},
    "version": 1
  }
}