{
  "contractName": "Betting",
  "abi": [
    {
      "inputs": [],
      "stateMutability": "nonpayable",
      "type": "constructor"
    },
    {
      "anonymous": false,
      "inputs": [
        {
          "indexed": true,
          "internalType": "address",
          "name": "_sender",
          "type": "address"
        },
        {
          "indexed": false,
          "internalType": "uint256",
          "name": "_amount",
          "type": "uint256"
        },
        {
          "indexed": false,
          "internalType": "uint256",
          "name": "_userBalance",
          "type": "uint256"
        }
      ],
      "name": "LogAddFunds",
      "type": "event"
    },
    {
      "anonymous": false,
      "inputs": [
        {
          "indexed": false,
          "internalType": "string",
          "name": "_teamA",
          "type": "string"
        },
        {
          "indexed": false,
          "internalType": "string",
          "name": "_teamB",
          "type": "string"
        },
        {
          "indexed": true,
          "internalType": "uint256",
          "name": "_startTime",
          "type": "uint256"
        },
        {
          "indexed": true,
          "internalType": "uint256",
          "name": "_endTime",
          "type": "uint256"
        }
      ],
      "name": "LogAddGame",
      "type": "event"
    },
    {
      "anonymous": false,
      "inputs": [
        {
          "indexed": true,
          "internalType": "uint256",
          "name": "_gameId",
          "type": "uint256"
        }
      ],
      "name": "LogCloseGame",
      "type": "event"
    },
    {
      "anonymous": false,
      "inputs": [
        {
          "indexed": true,
          "internalType": "uint256",
          "name": "_gameId",
          "type": "uint256"
        }
      ],
      "name": "LogDisburseBetFunds",
      "type": "event"
    },
    {
      "anonymous": false,
      "inputs": [
        {
          "indexed": true,
          "internalType": "address",
          "name": "_address",
          "type": "address"
        }
      ],
      "name": "LogSignInUser",
      "type": "event"
    },
    {
      "anonymous": false,
      "inputs": [
        {
          "indexed": true,
          "internalType": "address",
          "name": "_user",
          "type": "address"
        },
        {
          "indexed": true,
          "internalType": "uint256",
          "name": "_gameId",
          "type": "uint256"
        },
        {
          "indexed": false,
          "internalType": "string",
          "name": "_sideToWin",
          "type": "string"
        },
        {
          "indexed": false,
          "internalType": "uint256",
          "name": "_betStakeAmount",
          "type": "uint256"
        },
        {
          "indexed": false,
          "internalType": "uint256",
          "name": "_userBalance",
          "type": "uint256"
        }
      ],
      "name": "LogSubmitBet",
      "type": "event"
    },
    {
      "anonymous": false,
      "inputs": [
        {
          "indexed": true,
          "internalType": "uint256",
          "name": "_gameId",
          "type": "uint256"
        },
        {
          "indexed": false,
          "internalType": "string",
          "name": "_winner",
          "type": "string"
        }
      ],
      "name": "LogUpdateGameWinner",
      "type": "event"
    },
    {
      "anonymous": false,
      "inputs": [
        {
          "indexed": true,
          "internalType": "address",
          "name": "_to",
          "type": "address"
        },
        {
          "indexed": false,
          "internalType": "uint256",
          "name": "_amount",
          "type": "uint256"
        }
      ],
      "name": "LogWithdrawFunds",
      "type": "event"
    },
    {
      "anonymous": false,
      "inputs": [
        {
          "indexed": true,
          "internalType": "address",
          "name": "previousOwner",
          "type": "address"
        },
        {
          "indexed": true,
          "internalType": "address",
          "name": "newOwner",
          "type": "address"
        }
      ],
      "name": "OwnershipTransferred",
      "type": "event"
    },
    {
      "anonymous": false,
      "inputs": [
        {
          "indexed": false,
          "internalType": "address",
          "name": "account",
          "type": "address"
        }
      ],
      "name": "Paused",
      "type": "event"
    },
    {
      "anonymous": false,
      "inputs": [
        {
          "indexed": false,
          "internalType": "address",
          "name": "account",
          "type": "address"
        }
      ],
      "name": "Unpaused",
      "type": "event"
    },
    {
      "inputs": [
        {
          "internalType": "address",
          "name": "",
          "type": "address"
        },
        {
          "internalType": "uint256",
          "name": "",
          "type": "uint256"
        }
      ],
      "name": "allBets",
      "outputs": [
        {
          "internalType": "string",
          "name": "teamToWin",
          "type": "string"
        },
        {
          "internalType": "bytes32",
          "name": "teamToWinHash",
          "type": "bytes32"
        },
        {
          "internalType": "uint256",
          "name": "totalAmountStaked",
          "type": "uint256"
        }
      ],
      "stateMutability": "view",
      "type": "function",
      "constant": true
    },
    {
      "inputs": [],
      "name": "gameId",
      "outputs": [
        {
          "internalType": "uint256",
          "name": "",
          "type": "uint256"
        }
      ],
      "stateMutability": "view",
      "type": "function",
      "constant": true
    },
    {
      "inputs": [
        {
          "internalType": "uint256",
          "name": "",
          "type": "uint256"
        }
      ],
      "name": "games",
      "outputs": [
        {
          "internalType": "uint256",
          "name": "gameId",
          "type": "uint256"
        },
        {
          "internalType": "string",
          "name": "teamA",
          "type": "string"
        },
        {
          "internalType": "string",
          "name": "teamB",
          "type": "string"
        },
        {
          "internalType": "string",
          "name": "winner",
          "type": "string"
        },
        {
          "internalType": "uint256",
          "name": "totalAmountStaked",
          "type": "uint256"
        },
        {
          "internalType": "uint256",
          "name": "usersCount",
          "type": "uint256"
        },
        {
          "internalType": "uint256",
          "name": "startTime",
          "type": "uint256"
        },
        {
          "internalType": "uint256",
          "name": "endTime",
          "type": "uint256"
        },
        {
          "internalType": "bool",
          "name": "isOpen",
          "type": "bool"
        }
      ],
      "stateMutability": "view",
      "type": "function",
      "constant": true
    },
    {
      "inputs": [],
      "name": "owner",
      "outputs": [
        {
          "internalType": "address",
          "name": "",
          "type": "address"
        }
      ],
      "stateMutability": "view",
      "type": "function",
      "constant": true
    },
    {
      "inputs": [],
      "name": "paused",
      "outputs": [
        {
          "internalType": "bool",
          "name": "",
          "type": "bool"
        }
      ],
      "stateMutability": "view",
      "type": "function",
      "constant": true
    },
    {
      "inputs": [],
      "name": "renounceOwnership",
      "outputs": [],
      "stateMutability": "nonpayable",
      "type": "function"
    },
    {
      "inputs": [
        {
          "internalType": "address",
          "name": "newOwner",
          "type": "address"
        }
      ],
      "name": "transferOwnership",
      "outputs": [],
      "stateMutability": "nonpayable",
      "type": "function"
    },
    {
      "inputs": [
        {
          "internalType": "address",
          "name": "",
          "type": "address"
        }
      ],
      "name": "users",
      "outputs": [
        {
          "internalType": "bool",
          "name": "",
          "type": "bool"
        }
      ],
      "stateMutability": "view",
      "type": "function",
      "constant": true
    },
    {
      "inputs": [
        {
          "internalType": "address",
          "name": "",
          "type": "address"
        }
      ],
      "name": "usersBalance",
      "outputs": [
        {
          "internalType": "uint256",
          "name": "",
          "type": "uint256"
        }
      ],
      "stateMutability": "view",
      "type": "function",
      "constant": true
    },
    {
      "inputs": [
        {
          "internalType": "address",
          "name": "",
          "type": "address"
        },
        {
          "internalType": "uint256",
          "name": "",
          "type": "uint256"
        }
      ],
      "name": "usersBetList",
      "outputs": [
        {
          "internalType": "uint256",
          "name": "",
          "type": "uint256"
        }
      ],
      "stateMutability": "view",
      "type": "function",
      "constant": true
    },
    {
      "inputs": [
        {
          "internalType": "address",
          "name": "_address",
          "type": "address"
        }
      ],
      "name": "signInUser",
      "outputs": [],
      "stateMutability": "nonpayable",
      "type": "function"
    },
    {
      "inputs": [
        {
          "internalType": "address",
          "name": "_address",
          "type": "address"
        }
      ],
      "name": "signInStatus",
      "outputs": [
        {
          "internalType": "bool",
          "name": "",
          "type": "bool"
        }
      ],
      "stateMutability": "view",
      "type": "function",
      "constant": true
    },
    {
      "inputs": [],
      "name": "addFunds",
      "outputs": [],
      "stateMutability": "payable",
      "type": "function",
      "payable": true
    },
    {
      "inputs": [
        {
          "internalType": "address payable",
          "name": "_to",
          "type": "address"
        },
        {
          "internalType": "uint256",
          "name": "_amount",
          "type": "uint256"
        }
      ],
      "name": "withdrawFunds",
      "outputs": [
        {
          "internalType": "uint256",
          "name": "",
          "type": "uint256"
        }
      ],
      "stateMutability": "payable",
      "type": "function",
      "payable": true
    },
    {
      "inputs": [
        {
          "internalType": "string",
          "name": "teamA",
          "type": "string"
        },
        {
          "internalType": "string",
          "name": "teamB",
          "type": "string"
        },
        {
          "internalType": "uint256",
          "name": "startTime",
          "type": "uint256"
        },
        {
          "internalType": "uint256",
          "name": "endTime",
          "type": "uint256"
        }
      ],
      "name": "addGame",
      "outputs": [],
      "stateMutability": "nonpayable",
      "type": "function"
    },
    {
      "inputs": [
        {
          "internalType": "uint256",
          "name": "_gameId",
          "type": "uint256"
        }
      ],
      "name": "closeGame",
      "outputs": [],
      "stateMutability": "nonpayable",
      "type": "function"
    },
    {
      "inputs": [],
      "name": "getAllGames",
      "outputs": [
        {
          "components": [
            {
              "internalType": "uint256",
              "name": "gameId",
              "type": "uint256"
            },
            {
              "internalType": "string",
              "name": "teamA",
              "type": "string"
            },
            {
              "internalType": "string",
              "name": "teamB",
              "type": "string"
            },
            {
              "internalType": "string",
              "name": "winner",
              "type": "string"
            },
            {
              "internalType": "uint256",
              "name": "totalAmountStaked",
              "type": "uint256"
            },
            {
              "internalType": "uint256",
              "name": "usersCount",
              "type": "uint256"
            },
            {
              "internalType": "uint256",
              "name": "startTime",
              "type": "uint256"
            },
            {
              "internalType": "uint256",
              "name": "endTime",
              "type": "uint256"
            },
            {
              "internalType": "bool",
              "name": "isOpen",
              "type": "bool"
            }
          ],
          "internalType": "struct Betting.Game[]",
          "name": "",
          "type": "tuple[]"
        }
      ],
      "stateMutability": "view",
      "type": "function",
      "constant": true
    },
    {
      "inputs": [],
      "name": "getUserBetsHistory",
      "outputs": [
        {
          "components": [
            {
              "internalType": "uint256",
              "name": "gameId",
              "type": "uint256"
            },
            {
              "internalType": "string",
              "name": "teamA",
              "type": "string"
            },
            {
              "internalType": "string",
              "name": "teamB",
              "type": "string"
            },
            {
              "internalType": "string",
              "name": "winner",
              "type": "string"
            },
            {
              "internalType": "uint256",
              "name": "gameTotalAmountStaked",
              "type": "uint256"
            },
            {
              "internalType": "uint256",
              "name": "usersCount",
              "type": "uint256"
            },
            {
              "internalType": "uint256",
              "name": "startTime",
              "type": "uint256"
            },
            {
              "internalType": "uint256",
              "name": "endTime",
              "type": "uint256"
            },
            {
              "internalType": "string",
              "name": "teamToWin",
              "type": "string"
            },
            {
              "internalType": "bytes32",
              "name": "teamToWinHash",
              "type": "bytes32"
            },
            {
              "internalType": "uint256",
              "name": "userTotalAmountStaked",
              "type": "uint256"
            },
            {
              "internalType": "uint256",
              "name": "userStakePercentage",
              "type": "uint256"
            }
          ],
          "internalType": "struct Betting.History[]",
          "name": "",
          "type": "tuple[]"
        }
      ],
      "stateMutability": "view",
      "type": "function",
      "constant": true
    },
    {
      "inputs": [
        {
          "internalType": "uint256",
          "name": "_gameId",
          "type": "uint256"
        },
        {
          "internalType": "string",
          "name": "_teamToWin",
          "type": "string"
        },
        {
          "internalType": "uint256",
          "name": "_betStakeAmount",
          "type": "uint256"
        }
      ],
      "name": "submitBet",
      "outputs": [],
      "stateMutability": "nonpayable",
      "type": "function"
    },
    {
      "inputs": [
        {
          "internalType": "uint256",
          "name": "_gameId",
          "type": "uint256"
        },
        {
          "internalType": "string",
          "name": "_winner",
          "type": "string"
        }
      ],
      "name": "updateGameWinner",
      "outputs": [],
      "stateMutability": "nonpayable",
      "type": "function"
    },
    {
      "inputs": [
        {
          "internalType": "uint256",
          "name": "_gameId",
          "type": "uint256"
        }
      ],
      "name": "disburseBetFunds",
      "outputs": [
        {
          "internalType": "bool",
          "name": "",
          "type": "bool"
        }
      ],
      "stateMutability": "nonpayable",
      "type": "function"
    }
  ],
  "bytecode": "0x60806040523480156200001157600080fd5b5062000032620000266200006260201b60201c565b6200006a60201b60201c565b60008060146101000a81548160ff021916908315150217905550600160028190555060006001819055506200012e565b600033905090565b60008060009054906101000a900473ffffffffffffffffffffffffffffffffffffffff169050816000806101000a81548173ffffffffffffffffffffffffffffffffffffffff021916908373ffffffffffffffffffffffffffffffffffffffff1602179055508173ffffffffffffffffffffffffffffffffffffffff168173ffffffffffffffffffffffffffffffffffffffff167f8be0079c531659141344cd1fd0a4f28419497f9722a3daafe3b4186f6b6457e060405160405180910390a35050565b613c60806200013e6000396000f3fe60806040526004361061012a5760003560e01c8063a26759cb116100ab578063c4d0500a1161006f578063c4d0500a146103ca578063d098067d14610407578063d17f538f14610444578063d7c81b5514610483578063db1c45f9146104ae578063f2fde38b146104d95761012a565b8063a26759cb14610301578063a50fdbdc1461030b578063a84d1af014610334578063a87430ba1461035d578063c10753291461039a5761012a565b8063715018a6116100f2578063715018a6146102305780638105c676146102475780638da5cb5b1461028457806398880043146102af5780639c2f8f4f146102d85761012a565b8063117a5b901461012f5780631ab75fa4146101745780632d6ef3101461019f57806358324335146101c85780635c975abb14610205575b600080fd5b34801561013b57600080fd5b5061015660048036038101906101519190612ac5565b610502565b60405161016b99989796959493929190613701565b60405180910390f35b34801561018057600080fd5b506101896106f5565b6040516101969190613434565b60405180910390f35b3480156101ab57600080fd5b506101c660048036038101906101c19190612ac5565b610cff565b005b3480156101d457600080fd5b506101ef60048036038101906101ea9190612991565b610e8c565b6040516101fc91906136e6565b60405180910390f35b34801561021157600080fd5b5061021a610ea4565b6040516102279190613456565b60405180910390f35b34801561023c57600080fd5b50610245610eba565b005b34801561025357600080fd5b5061026e600480360381019061026991906129f6565b610f42565b60405161027b91906136e6565b60405180910390f35b34801561029057600080fd5b50610299610f73565b6040516102a691906133f7565b60405180910390f35b3480156102bb57600080fd5b506102d660048036038101906102d19190612a32565b610f9c565b005b3480156102e457600080fd5b506102ff60048036038101906102fa9190612aee565b6111b1565b005b6103096113ab565b005b34801561031757600080fd5b50610332600480360381019061032d9190612991565b61156d565b005b34801561034057600080fd5b5061035b60048036038101906103569190612b42565b611769565b005b34801561036957600080fd5b50610384600480360381019061037f9190612991565b611d30565b6040516103919190613456565b60405180910390f35b6103b460048036038101906103af91906129ba565b611d50565b6040516103c191906136e6565b60405180910390f35b3480156103d657600080fd5b506103f160048036038101906103ec9190612991565b61200b565b6040516103fe9190613456565b60405180910390f35b34801561041357600080fd5b5061042e60048036038101906104299190612ac5565b6120a9565b60405161043b9190613456565b60405180910390f35b34801561045057600080fd5b5061046b600480360381019061046691906129f6565b612174565b60405161047a93929190613493565b60405180910390f35b34801561048f57600080fd5b50610498612233565b6040516104a591906136e6565b60405180910390f35b3480156104ba57600080fd5b506104c3612239565b6040516104d09190613412565b60405180910390f35b3480156104e557600080fd5b5061050060048036038101906104fb9190612991565b6125ad565b005b600660205280600052604060002060009150905080600001549080600101805461052b90613a9d565b80601f016020809104026020016040519081016040528092919081815260200182805461055790613a9d565b80156105a45780601f10610579576101008083540402835291602001916105a4565b820191906000526020600020905b81548152906001019060200180831161058757829003601f168201915b5050505050908060020180546105b990613a9d565b80601f01602080910402602001604051908101604052809291908181526020018280546105e590613a9d565b80156106325780601f1061060757610100808354040283529160200191610632565b820191906000526020600020905b81548152906001019060200180831161061557829003601f168201915b50505050509080600301805461064790613a9d565b80601f016020809104026020016040519081016040528092919081815260200182805461067390613a9d565b80156106c05780601f10610695576101008083540402835291602001916106c0565b820191906000526020600020905b8154815290600101906020018083116106a357829003601f168201915b5050505050908060040154908060050154908060060154908060070154908060080160009054906101000a900460ff16905089565b60606106ff610ea4565b1561073f576040517f08c379a0000000000000000000000000000000000000000000000000000000008152600401610736906135e6565b60405180910390fd5b6000600560003373ffffffffffffffffffffffffffffffffffffffff1673ffffffffffffffffffffffffffffffffffffffff16815260200190815260200160002080549050905060008167ffffffffffffffff8111156107c8577f4e487b7100000000000000000000000000000000000000000000000000000000600052604160045260246000fd5b60405190808252806020026020018201604052801561080157816020015b6107ee612771565b8152602001906001900390816107e65790505b50905060005b82811015610cf6576000600560003373ffffffffffffffffffffffffffffffffffffffff1673ffffffffffffffffffffffffffffffffffffffff1681526020019081526020016000208281548110610888577f4e487b7100000000000000000000000000000000000000000000000000000000600052603260045260246000fd5b9060005260206000200154905060006006600083815260200190815260200160002060405180610120016040529081600082015481526020016001820180546108d090613a9d565b80601f01602080910402602001604051908101604052809291908181526020018280546108fc90613a9d565b80156109495780601f1061091e57610100808354040283529160200191610949565b820191906000526020600020905b81548152906001019060200180831161092c57829003601f168201915b5050505050815260200160028201805461096290613a9d565b80601f016020809104026020016040519081016040528092919081815260200182805461098e90613a9d565b80156109db5780601f106109b0576101008083540402835291602001916109db565b820191906000526020600020905b8154815290600101906020018083116109be57829003601f168201915b505050505081526020016003820180546109f490613a9d565b80601f0160208091040260200160405190810160405280929190818152602001828054610a2090613a9d565b8015610a6d5780601f10610a4257610100808354040283529160200191610a6d565b820191906000526020600020905b815481529060010190602001808311610a5057829003601f168201915b50505050508152602001600482015481526020016005820154815260200160068201548152602001600782015481526020016008820160009054906101000a900460ff16151515158152505090506000600760003373ffffffffffffffffffffffffffffffffffffffff1673ffffffffffffffffffffffffffffffffffffffff1681526020019081526020016000206000848152602001908152602001600020604051806060016040529081600082018054610b2890613a9d565b80601f0160208091040260200160405190810160405280929190818152602001828054610b5490613a9d565b8015610ba15780601f10610b7657610100808354040283529160200191610ba1565b820191906000526020600020905b815481529060010190602001808311610b8457829003601f168201915b50505050508152602001600182015481526020016002820154815250509050610bc8612771565b8381600001818152505082602001518160200181905250826040015181604001819052508260c001518160c00181815250508260e001518160e001818152505082608001518160800181815250508260a001518160a0018181525050826060015181606001819052508160000151816101000181905250816020015181610120018181525050816040015181610140018181525050600060648460800151610c709190613969565b6127108460400151610c829190613969565b610c8c9190613938565b9050808261016001818152505081878781518110610cd3577f4e487b7100000000000000000000000000000000000000000000000000000000600052603260045260246000fd5b602002602001018190525050505050508080610cee90613acf565b915050610807565b50809250505090565b610d076126a5565b73ffffffffffffffffffffffffffffffffffffffff16610d25610f73565b73ffffffffffffffffffffffffffffffffffffffff1614610d7b576040517f08c379a0000000000000000000000000000000000000000000000000000000008152600401610d7290613606565b60405180910390fd5b610d83610ea4565b15610dc3576040517f08c379a0000000000000000000000000000000000000000000000000000000008152600401610dba906135e6565b60405180910390fd5b600115156006600083815260200190815260200160002060080160009054906101000a900460ff16151514610e2d576040517f08c379a0000000000000000000000000000000000000000000000000000000008152600401610e24906136c6565b60405180910390fd5b60006006600083815260200190815260200160002060080160006101000a81548160ff021916908315150217905550807f24a5dbf244dd4fdeabd46c3805b8bd07f9b99e43d2209810e9ed7a90d649429560405160405180910390a250565b60046020528060005260406000206000915090505481565b60008060149054906101000a900460ff16905090565b610ec26126a5565b73ffffffffffffffffffffffffffffffffffffffff16610ee0610f73565b73ffffffffffffffffffffffffffffffffffffffff1614610f36576040517f08c379a0000000000000000000000000000000000000000000000000000000008152600401610f2d90613606565b60405180910390fd5b610f4060006126ad565b565b60056020528160005260406000208181548110610f5e57600080fd5b90600052602060002001600091509150505481565b60008060009054906101000a900473ffffffffffffffffffffffffffffffffffffffff16905090565b610fa46126a5565b73ffffffffffffffffffffffffffffffffffffffff16610fc2610f73565b73ffffffffffffffffffffffffffffffffffffffff1614611018576040517f08c379a000000000000000000000000000000000000000000000000000000000815260040161100f90613606565b60405180910390fd5b6110206127d5565b600254816000018181525050848160200181905250838160400181905250604051806020016040528060008152508160600181905250600081608001818152505060008160a0018181525050828160c0018181525050818160e0018181525050600181610100019015159081151581525050806006600060025481526020019081526020016000206000820151816000015560208201518160010190805190602001906110ce929190612823565b5060408201518160020190805190602001906110eb929190612823565b506060820151816003019080519060200190611108929190612823565b506080820151816004015560a0820151816005015560c0820151816006015560e082015181600701556101008201518160080160006101000a81548160ff02191690831515021790555090505060016002600082825461116891906138e2565b9250508190555081837f0bfce854c1cd16d4f0808949802d6262e3a086711bc7968a170a112860975f6387876040516111a29291906134d1565b60405180910390a35050505050565b6111b96126a5565b73ffffffffffffffffffffffffffffffffffffffff166111d7610f73565b73ffffffffffffffffffffffffffffffffffffffff161461122d576040517f08c379a000000000000000000000000000000000000000000000000000000000815260040161122490613606565b60405180910390fd5b611235610ea4565b15611275576040517f08c379a000000000000000000000000000000000000000000000000000000000815260040161126c906135e6565b60405180910390fd5b600015156006600084815260200190815260200160002060080160009054906101000a900460ff161515146112df576040517f08c379a00000000000000000000000000000000000000000000000000000000081526004016112d690613646565b60405180910390fd5b600060066000848152602001908152602001600020600301805461130290613a9d565b905014611344576040517f08c379a000000000000000000000000000000000000000000000000000000000815260040161133b90613666565b60405180910390fd5b8060066000848152602001908152602001600020600301908051906020019061136e929190612823565b50817f1da28083458e812c85b645713b82ac43e2ca08cf842ba14d6a80bd456967527f8260405161139f9190613471565b60405180910390a25050565b60011515600360003373ffffffffffffffffffffffffffffffffffffffff1673ffffffffffffffffffffffffffffffffffffffff16815260200190815260200160002060009054906101000a900460ff1615151461143e576040517f08c379a000000000000000000000000000000000000000000000000000000000815260040161143590613586565b60405180910390fd5b611446610ea4565b15611486576040517f08c379a000000000000000000000000000000000000000000000000000000000815260040161147d906135e6565b60405180910390fd5b34600460003373ffffffffffffffffffffffffffffffffffffffff1673ffffffffffffffffffffffffffffffffffffffff16815260200190815260200160002060008282546114d591906138e2565b925050819055503373ffffffffffffffffffffffffffffffffffffffff167f938318a96a1b6034221032f1d0f084a342ae89cb9ea9e811f1a5b9dfa7dc1bed34600460003373ffffffffffffffffffffffffffffffffffffffff1673ffffffffffffffffffffffffffffffffffffffff168152602001908152602001600020546040516115639291906137a3565b60405180910390a2565b611575610ea4565b156115b5576040517f08c379a00000000000000000000000000000000000000000000000000000000081526004016115ac906135e6565b60405180910390fd5b6115bd610f73565b73ffffffffffffffffffffffffffffffffffffffff168173ffffffffffffffffffffffffffffffffffffffff16141561162b576040517f08c379a000000000000000000000000000000000000000000000000000000000815260040161162290613626565b60405180910390fd5b60011515600360008373ffffffffffffffffffffffffffffffffffffffff1673ffffffffffffffffffffffffffffffffffffffff16815260200190815260200160002060009054906101000a900460ff161515151415611766576001600360008373ffffffffffffffffffffffffffffffffffffffff1673ffffffffffffffffffffffffffffffffffffffff16815260200190815260200160002060006101000a81548160ff0219169083151502179055506000600460008373ffffffffffffffffffffffffffffffffffffffff1673ffffffffffffffffffffffffffffffffffffffff168152602001908152602001600020819055508073ffffffffffffffffffffffffffffffffffffffff167fc743ccff48012312e9853b6c664d256dbf986977bccfdc1185848ef09092011f60405160405180910390a25b50565b60011515600360003373ffffffffffffffffffffffffffffffffffffffff1673ffffffffffffffffffffffffffffffffffffffff16815260200190815260200160002060009054906101000a900460ff161515146117fc576040517f08c379a00000000000000000000000000000000000000000000000000000000081526004016117f390613586565b60405180910390fd5b80600460003373ffffffffffffffffffffffffffffffffffffffff1673ffffffffffffffffffffffffffffffffffffffff1681526020019081526020016000205481111561187f576040517f08c379a0000000000000000000000000000000000000000000000000000000008152600401611876906135c6565b60405180910390fd5b611887610ea4565b156118c7576040517f08c379a00000000000000000000000000000000000000000000000000000000081526004016118be906135e6565b60405180910390fd5b600115156006600086815260200190815260200160002060080160009054906101000a900460ff16151514611931576040517f08c379a0000000000000000000000000000000000000000000000000000000008152600401611928906135a6565b60405180910390fd5b60008211611974576040517f08c379a000000000000000000000000000000000000000000000000000000000815260040161196b90613686565b60405180910390fd5b600033905060008460405160200161198c91906133cb565b6040516020818303038152906040528051906020012090506000600760008473ffffffffffffffffffffffffffffffffffffffff1673ffffffffffffffffffffffffffffffffffffffff16815260200190815260200160002060008881526020019081526020016000209050600081600201541415611b5857611a0d6128a9565b8681600001819052508281602001818152505085816040018181525050600560008573ffffffffffffffffffffffffffffffffffffffff1673ffffffffffffffffffffffffffffffffffffffff16815260200190815260200160002088908060018154018082558091505060019003906000526020600020016000909190919091505580600760008673ffffffffffffffffffffffffffffffffffffffff1673ffffffffffffffffffffffffffffffffffffffff16815260200190815260200160002060008a81526020019081526020016000206000820151816000019080519060200190611afd929190612823565b5060208201518160010155604082015181600201559050506001600660008a815260200190815260200160002060050154611b3891906138e2565b600660008a81526020019081526020016000206005018190555050611bb7565b81816001015414611b9e576040517f08c379a0000000000000000000000000000000000000000000000000000000008152600401611b9590613546565b60405180910390fd5b848160020154611bae91906138e2565b81600201819055505b84600460008573ffffffffffffffffffffffffffffffffffffffff1673ffffffffffffffffffffffffffffffffffffffff16815260200190815260200160002054611c0291906139c3565b600460008573ffffffffffffffffffffffffffffffffffffffff1673ffffffffffffffffffffffffffffffffffffffff16815260200190815260200160002081905550846006600089815260200190815260200160002060040154611c6791906138e2565b600660008981526020019081526020016000206004018190555084600154611c8f91906138e2565b600181905550863373ffffffffffffffffffffffffffffffffffffffff167fa9f47223c151f2e248554dd2758229dceb80a21de3877f60ae604e35468cf4ef8888600460003373ffffffffffffffffffffffffffffffffffffffff1673ffffffffffffffffffffffffffffffffffffffff16815260200190815260200160002054604051611d1f93929190613508565b60405180910390a350505050505050565b60036020528060005260406000206000915054906101000a900460ff1681565b600060011515600360003373ffffffffffffffffffffffffffffffffffffffff1673ffffffffffffffffffffffffffffffffffffffff16815260200190815260200160002060009054906101000a900460ff16151514611de5576040517f08c379a0000000000000000000000000000000000000000000000000000000008152600401611ddc90613586565b60405180910390fd5b81600460003373ffffffffffffffffffffffffffffffffffffffff1673ffffffffffffffffffffffffffffffffffffffff16815260200190815260200160002054811115611e68576040517f08c379a0000000000000000000000000000000000000000000000000000000008152600401611e5f906135c6565b60405180910390fd5b611e70610ea4565b15611eb0576040517f08c379a0000000000000000000000000000000000000000000000000000000008152600401611ea7906135e6565b60405180910390fd5b82600460003373ffffffffffffffffffffffffffffffffffffffff1673ffffffffffffffffffffffffffffffffffffffff1681526020019081526020016000206000828254611eff91906139c3565b9250508190555060008473ffffffffffffffffffffffffffffffffffffffff1684604051611f2c906133e2565b60006040518083038185875af1925050503d8060008114611f69576040519150601f19603f3d011682016040523d82523d6000602084013e611f6e565b606091505b5050905080611fb2576040517f08c379a0000000000000000000000000000000000000000000000000000000008152600401611fa9906136a6565b60405180910390fd5b3373ffffffffffffffffffffffffffffffffffffffff167f333d9f35320f28a9518fc6083975ac7d7465f020712cda7608ca073ea651f26485604051611ff891906136e6565b60405180910390a2839250505092915050565b6000612015610ea4565b15612055576040517f08c379a000000000000000000000000000000000000000000000000000000000815260040161204c906135e6565b60405180910390fd5b600360008373ffffffffffffffffffffffffffffffffffffffff1673ffffffffffffffffffffffffffffffffffffffff16815260200190815260200160002060009054906101000a900460ff169050919050565b60006120b36126a5565b73ffffffffffffffffffffffffffffffffffffffff166120d1610f73565b73ffffffffffffffffffffffffffffffffffffffff1614612127576040517f08c379a000000000000000000000000000000000000000000000000000000000815260040161211e90613606565b60405180910390fd5b61212f610ea4565b1561216f576040517f08c379a0000000000000000000000000000000000000000000000000000000008152600401612166906135e6565b60405180910390fd5b919050565b6007602052816000526040600020602052806000526040600020600091509150508060000180546121a490613a9d565b80601f01602080910402602001604051908101604052809291908181526020018280546121d090613a9d565b801561221d5780601f106121f25761010080835404028352916020019161221d565b820191906000526020600020905b81548152906001019060200180831161220057829003601f168201915b5050505050908060010154908060020154905083565b60025481565b6060612243610ea4565b15612283576040517f08c379a000000000000000000000000000000000000000000000000000000000815260040161227a906135e6565b60405180910390fd5b6000600160025461229491906139c3565b905060008167ffffffffffffffff8111156122d8577f4e487b7100000000000000000000000000000000000000000000000000000000600052604160045260246000fd5b60405190808252806020026020018201604052801561231157816020015b6122fe6127d5565b8152602001906001900390816122f65790505b50905060005b828110156125a4576006600060018361233091906138e2565b8152602001908152602001600020604051806101200160405290816000820154815260200160018201805461236490613a9d565b80601f016020809104026020016040519081016040528092919081815260200182805461239090613a9d565b80156123dd5780601f106123b2576101008083540402835291602001916123dd565b820191906000526020600020905b8154815290600101906020018083116123c057829003601f168201915b505050505081526020016002820180546123f690613a9d565b80601f016020809104026020016040519081016040528092919081815260200182805461242290613a9d565b801561246f5780601f106124445761010080835404028352916020019161246f565b820191906000526020600020905b81548152906001019060200180831161245257829003601f168201915b5050505050815260200160038201805461248890613a9d565b80601f01602080910402602001604051908101604052809291908181526020018280546124b490613a9d565b80156125015780601f106124d657610100808354040283529160200191612501565b820191906000526020600020905b8154815290600101906020018083116124e457829003601f168201915b50505050508152602001600482015481526020016005820154815260200160068201548152602001600782015481526020016008820160009054906101000a900460ff161515151581525050828281518110612586577f4e487b7100000000000000000000000000000000000000000000000000000000600052603260045260246000fd5b6020026020010181905250808061259c90613acf565b915050612317565b50809250505090565b6125b56126a5565b73ffffffffffffffffffffffffffffffffffffffff166125d3610f73565b73ffffffffffffffffffffffffffffffffffffffff1614612629576040517f08c379a000000000000000000000000000000000000000000000000000000000815260040161262090613606565b60405180910390fd5b600073ffffffffffffffffffffffffffffffffffffffff168173ffffffffffffffffffffffffffffffffffffffff161415612699576040517f08c379a000000000000000000000000000000000000000000000000000000000815260040161269090613566565b60405180910390fd5b6126a2816126ad565b50565b600033905090565b60008060009054906101000a900473ffffffffffffffffffffffffffffffffffffffff169050816000806101000a81548173ffffffffffffffffffffffffffffffffffffffff021916908373ffffffffffffffffffffffffffffffffffffffff1602179055508173ffffffffffffffffffffffffffffffffffffffff168173ffffffffffffffffffffffffffffffffffffffff167f8be0079c531659141344cd1fd0a4f28419497f9722a3daafe3b4186f6b6457e060405160405180910390a35050565b6040518061018001604052806000815260200160608152602001606081526020016060815260200160008152602001600081526020016000815260200160008152602001606081526020016000801916815260200160008152602001600081525090565b60405180610120016040528060008152602001606081526020016060815260200160608152602001600081526020016000815260200160008152602001600081526020016000151581525090565b82805461282f90613a9d565b90600052602060002090601f0160209004810192826128515760008555612898565b82601f1061286a57805160ff1916838001178555612898565b82800160010185558215612898579182015b8281111561289757825182559160200191906001019061287c565b5b5090506128a591906128cd565b5090565b60405180606001604052806060815260200160008019168152602001600081525090565b5b808211156128e65760008160009055506001016128ce565b5090565b60006128fd6128f8846137fd565b6137cc565b90508281526020810184848401111561291557600080fd5b612920848285613a5b565b509392505050565b60008135905061293781613be5565b92915050565b60008135905061294c81613bfc565b92915050565b600082601f83011261296357600080fd5b81356129738482602086016128ea565b91505092915050565b60008135905061298b81613c13565b92915050565b6000602082840312156129a357600080fd5b60006129b184828501612928565b91505092915050565b600080604083850312156129cd57600080fd5b60006129db8582860161293d565b92505060206129ec8582860161297c565b9150509250929050565b60008060408385031215612a0957600080fd5b6000612a1785828601612928565b9250506020612a288582860161297c565b9150509250929050565b60008060008060808587031215612a4857600080fd5b600085013567ffffffffffffffff811115612a6257600080fd5b612a6e87828801612952565b945050602085013567ffffffffffffffff811115612a8b57600080fd5b612a9787828801612952565b9350506040612aa88782880161297c565b9250506060612ab98782880161297c565b91505092959194509250565b600060208284031215612ad757600080fd5b6000612ae58482850161297c565b91505092915050565b60008060408385031215612b0157600080fd5b6000612b0f8582860161297c565b925050602083013567ffffffffffffffff811115612b2c57600080fd5b612b3885828601612952565b9150509250929050565b600080600060608486031215612b5757600080fd5b6000612b658682870161297c565b935050602084013567ffffffffffffffff811115612b8257600080fd5b612b8e86828701612952565b9250506040612b9f8682870161297c565b9150509250925092565b6000612bb583836131c1565b905092915050565b6000612bc98383613294565b905092915050565b612bda816139f7565b82525050565b6000612beb8261384d565b612bf58185613888565b935083602082028501612c078561382d565b8060005b85811015612c435784840389528151612c248582612ba9565b9450612c2f8361386e565b925060208a01995050600181019050612c0b565b50829750879550505050505092915050565b6000612c6082613858565b612c6a8185613899565b935083602082028501612c7c8561383d565b8060005b85811015612cb85784840389528151612c998582612bbd565b9450612ca48361387b565b925060208a01995050600181019050612c80565b50829750879550505050505092915050565b612cd381613a1b565b82525050565b612ce281613a1b565b82525050565b612cf181613a27565b82525050565b612d0081613a27565b82525050565b6000612d1182613863565b612d1b81856138b5565b9350612d2b818560208601613a6a565b612d3481613bd4565b840191505092915050565b6000612d4a82613863565b612d5481856138c6565b9350612d64818560208601613a6a565b612d6d81613bd4565b840191505092915050565b6000612d8382613863565b612d8d81856138d7565b9350612d9d818560208601613a6a565b80840191505092915050565b6000612db66033836138c6565b91507f596f75277265206e6f7420616c6c6f77656420746f207374616b65206f6e206260008301527f6f7468207369646573206f6620612067616d65000000000000000000000000006020830152604082019050919050565b6000612e1c6026836138c6565b91507f4f776e61626c653a206e6577206f776e657220697320746865207a65726f206160008301527f64647265737300000000000000000000000000000000000000000000000000006020830152604082019050919050565b6000612e826013836138c6565b91507f55736572206e6f742072656769737465726564000000000000000000000000006000830152602082019050919050565b6000612ec26027836138c6565b91507f546869732067616d65206973206e6f206c6f6e67657220616363657074696e6760008301527f207374616b6573000000000000000000000000000000000000000000000000006020830152604082019050919050565b6000612f286014836138c6565b91507f496e73756666696369656e742062616c616e63650000000000000000000000006000830152602082019050919050565b6000612f686010836138c6565b91507f5061757361626c653a20706175736564000000000000000000000000000000006000830152602082019050919050565b6000612fa86020836138c6565b91507f4f776e61626c653a2063616c6c6572206973206e6f7420746865206f776e65726000830152602082019050919050565b6000612fe8601b836138c6565b91507f4f776e65722063616e206e6f74206265207265676973746572656400000000006000830152602082019050919050565b60006130286025836138c6565b91507f43616e206e6f74207570646174652077696e6e6572206f6620616e206f70656e60008301527f2067616d650000000000000000000000000000000000000000000000000000006020830152604082019050919050565b600061308e601e836138c6565b91507f546869732067616d6520616c72656164792068617320612077696e6e657200006000830152602082019050919050565b60006130ce6000836138aa565b9150600082019050919050565b60006130e86027836138c6565b91507f426574207374616b6520616d6f756e74206d757374206265206772656174657260008301527f207468616e2030000000000000000000000000000000000000000000000000006020830152604082019050919050565b600061314e6011836138c6565b91507f5769746864726177616c206661696c65640000000000000000000000000000006000830152602082019050919050565b600061318e601b836138c6565b91507f546869732067616d6520697320616c726561647920636c6f73656400000000006000830152602082019050919050565b6000610120830160008301516131da60008601826133ad565b50602083015184820360208601526131f28282612d06565b9150506040830151848203604086015261320c8282612d06565b915050606083015184820360608601526132268282612d06565b915050608083015161323b60808601826133ad565b5060a083015161324e60a08601826133ad565b5060c083015161326160c08601826133ad565b5060e083015161327460e08601826133ad565b50610100830151613289610100860182612cca565b508091505092915050565b6000610180830160008301516132ad60008601826133ad565b50602083015184820360208601526132c58282612d06565b915050604083015184820360408601526132df8282612d06565b915050606083015184820360608601526132f98282612d06565b915050608083015161330e60808601826133ad565b5060a083015161332160a08601826133ad565b5060c083015161333460c08601826133ad565b5060e083015161334760e08601826133ad565b506101008301518482036101008601526133618282612d06565b915050610120830151613378610120860182612ce8565b5061014083015161338d6101408601826133ad565b506101608301516133a26101608601826133ad565b508091505092915050565b6133b681613a51565b82525050565b6133c581613a51565b82525050565b60006133d78284612d78565b915081905092915050565b60006133ed826130c1565b9150819050919050565b600060208201905061340c6000830184612bd1565b92915050565b6000602082019050818103600083015261342c8184612be0565b905092915050565b6000602082019050818103600083015261344e8184612c55565b905092915050565b600060208201905061346b6000830184612cd9565b92915050565b6000602082019050818103600083015261348b8184612d3f565b905092915050565b600060608201905081810360008301526134ad8186612d3f565b90506134bc6020830185612cf7565b6134c960408301846133bc565b949350505050565b600060408201905081810360008301526134eb8185612d3f565b905081810360208301526134ff8184612d3f565b90509392505050565b600060608201905081810360008301526135228186612d3f565b905061353160208301856133bc565b61353e60408301846133bc565b949350505050565b6000602082019050818103600083015261355f81612da9565b9050919050565b6000602082019050818103600083015261357f81612e0f565b9050919050565b6000602082019050818103600083015261359f81612e75565b9050919050565b600060208201905081810360008301526135bf81612eb5565b9050919050565b600060208201905081810360008301526135df81612f1b565b9050919050565b600060208201905081810360008301526135ff81612f5b565b9050919050565b6000602082019050818103600083015261361f81612f9b565b9050919050565b6000602082019050818103600083015261363f81612fdb565b9050919050565b6000602082019050818103600083015261365f8161301b565b9050919050565b6000602082019050818103600083015261367f81613081565b9050919050565b6000602082019050818103600083015261369f816130db565b9050919050565b600060208201905081810360008301526136bf81613141565b9050919050565b600060208201905081810360008301526136df81613181565b9050919050565b60006020820190506136fb60008301846133bc565b92915050565b600061012082019050613717600083018c6133bc565b8181036020830152613729818b612d3f565b9050818103604083015261373d818a612d3f565b905081810360608301526137518189612d3f565b905061376060808301886133bc565b61376d60a08301876133bc565b61377a60c08301866133bc565b61378760e08301856133bc565b613795610100830184612cd9565b9a9950505050505050505050565b60006040820190506137b860008301856133bc565b6137c560208301846133bc565b9392505050565b6000604051905081810181811067ffffffffffffffff821117156137f3576137f2613ba5565b5b8060405250919050565b600067ffffffffffffffff82111561381857613817613ba5565b5b601f19601f8301169050602081019050919050565b6000819050602082019050919050565b6000819050602082019050919050565b600081519050919050565b600081519050919050565b600081519050919050565b6000602082019050919050565b6000602082019050919050565b600082825260208201905092915050565b600082825260208201905092915050565b600081905092915050565b600082825260208201905092915050565b600082825260208201905092915050565b600081905092915050565b60006138ed82613a51565b91506138f883613a51565b9250827fffffffffffffffffffffffffffffffffffffffffffffffffffffffffffffffff0382111561392d5761392c613b18565b5b828201905092915050565b600061394382613a51565b915061394e83613a51565b92508261395e5761395d613b47565b5b828204905092915050565b600061397482613a51565b915061397f83613a51565b9250817fffffffffffffffffffffffffffffffffffffffffffffffffffffffffffffffff04831182151516156139b8576139b7613b18565b5b828202905092915050565b60006139ce82613a51565b91506139d983613a51565b9250828210156139ec576139eb613b18565b5b828203905092915050565b6000613a0282613a31565b9050919050565b6000613a1482613a31565b9050919050565b60008115159050919050565b6000819050919050565b600073ffffffffffffffffffffffffffffffffffffffff82169050919050565b6000819050919050565b82818337600083830152505050565b60005b83811015613a88578082015181840152602081019050613a6d565b83811115613a97576000848401525b50505050565b60006002820490506001821680613ab557607f821691505b60208210811415613ac957613ac8613b76565b5b50919050565b6000613ada82613a51565b91507fffffffffffffffffffffffffffffffffffffffffffffffffffffffffffffffff821415613b0d57613b0c613b18565b5b600182019050919050565b7f4e487b7100000000000000000000000000000000000000000000000000000000600052601160045260246000fd5b7f4e487b7100000000000000000000000000000000000000000000000000000000600052601260045260246000fd5b7f4e487b7100000000000000000000000000000000000000000000000000000000600052602260045260246000fd5b7f4e487b7100000000000000000000000000000000000000000000000000000000600052604160045260246000fd5b6000601f19601f8301169050919050565b613bee816139f7565b8114613bf957600080fd5b50565b613c0581613a09565b8114613c1057600080fd5b50565b613c1c81613a51565b8114613c2757600080fd5b5056fea2646970667358221220bb3ecb4f9ded3cf2d5b3152a2b30e8e508cfaff90adc39ef69e72a9e7922b20c64736f6c63430008000033",
  "immutableReferences": {},
  "source": "/// SPDX-License-Identifier: MIT\npragma solidity ^0.8.0;\npragma abicoder v2;\nimport \"@openzeppelin/contracts/access/Ownable.sol\";\nimport \"@openzeppelin/contracts/security/Pausable.sol\";\n\n/// @title A betting contract\n/// @author Kingsley Arinze O.\n/// @dev This contract does not use oracles as external data sources yet.\n\ncontract Betting is Ownable, Pausable {\n  /// @dev A game that users can bet on possible outcomes\n  struct Game {\n    uint256 gameId;\n    string teamA;\n    string teamB;\n    string winner;\n    uint256 totalAmountStaked;\n    uint256 usersCount;\n    uint256 startTime;\n    uint256 endTime;\n    bool isOpen;\n  }\n  /// @dev A user's stand/bet on a game i.e who will win\n  struct Stake {\n    string teamToWin;\n    bytes32 teamToWinHash;\n    uint256 totalAmountStaked;\n  }\n  /// @dev An object containing a user's bet from a previous game\n  struct History {\n    uint256 gameId;\n    string teamA;\n    string teamB;\n    string winner;\n    uint256 gameTotalAmountStaked;\n    uint256 usersCount;\n    uint256 startTime;\n    uint256 endTime;\n    string teamToWin;\n    bytes32 teamToWinHash;\n    uint256 userTotalAmountStaked;\n    uint256 userStakePercentage;\n  }\n\n  /// @dev The total amount in WEI held by this smart contract\n  uint256 private appBalance;\n  /// @dev Holds the index of the next game to be added to the system\n  uint256 public gameId;\n  /// @dev A map containing all registered users/accounts\n  mapping (address => bool) public users;\n  /// @dev A map containing all registered users' balance\n  mapping (address => uint256) public usersBalance;\n  /// @dev A map containing all the games a user has bet on\n  mapping (address => uint256[]) public usersBetList;\n  /// @dev A map containing all the games in the system\n  mapping (uint256 => Game) public games;\n   /// @dev A map of users to all the games they've bet on and their corresponding stands\n  mapping (address => mapping (uint256 => Stake)) public allBets;\n\n  constructor() {\n    gameId = 1;\n    appBalance = 0;\n  }\n\n  /// @dev Checks if the caller is registered\n  modifier isSignedIn {\n    require(users[msg.sender] == true, \"User not registered\");\n    _;\n  }\n\n  /// @dev Checks if the caller's balance is >= amount\n  /// @param _amount Amount to be checked against\n  modifier checkAmount(uint256 _amount) {\n    require(_amount <= usersBalance[msg.sender], \"Insufficient balance\");\n    _;\n  }\n\n  /// @dev Creates an account for a new user\n  /// @param _address Address of the calling user\n  function signInUser(address _address) external whenNotPaused() {\n    require(_address != owner(), \"Owner can not be registered\");\n    if(!users[_address] == true) {\n      users[_address] = true;\n      usersBalance[_address] = 0;\n\n      emit LogSignInUser(_address);\n    }\n  }\n  \n  /// @dev Checks a user's registration status\n  /// @param _address Address of the calling user\n  /// @return The user registration status as true or false\n  function signInStatus(address _address) external view whenNotPaused() returns (bool) {\n    return users[_address];\n  } \n\n  /// @dev A payable function for depositing money into the contract and funding the caller's wallet\n  function addFunds() external payable isSignedIn whenNotPaused() {\n    usersBalance[msg.sender] += msg.value;\n    emit LogAddFunds(msg.sender, msg.value, usersBalance[msg.sender]);\n  }\n\n  /// @dev A payable function for withdrawing funds to an external wallet\n  /// @param _to Address to withdraw to\n  /// @param _amount Amount to be withdrawn\n  /// @return Withdrawn amount in WEI\n  function withdrawFunds(address payable _to, uint256 _amount) external payable isSignedIn checkAmount(_amount) whenNotPaused() returns (uint256) {\n    usersBalance[msg.sender] -= _amount;\n    (bool success, ) = _to.call{value: _amount}(\"\");\n    require(success, \"Withdrawal failed\");\n    emit LogWithdrawFunds(msg.sender, _amount);\n    return _amount;\n  }\n\n  /// @dev A function for adding new games to the system\n  /// @param teamA The home team\n  /// @param teamB The away team\n  /// @param startTime Game start time\n  /// @param endTime Game end time\n  function addGame(string memory teamA, string memory teamB, uint256 startTime, uint256 endTime) external onlyOwner {\n    Game memory game;\n      game.gameId = gameId;\n      game.teamA = teamA;\n      game.teamB = teamB;\n      game.winner = \"\";\n      game.totalAmountStaked = 0;\n      game.usersCount = 0;\n      game.startTime = startTime;\n      game.endTime = endTime;\n      game.isOpen = true;\n\n    games[gameId] = game;\n    gameId += 1;\n    emit LogAddGame(teamA, teamB, startTime, endTime);\n  }\n\n  /// @dev A function that pauses bets on a game\n  /// @param _gameId the Index of the game to be closed\n  function closeGame(uint256 _gameId) external onlyOwner whenNotPaused() {\n    require(games[_gameId].isOpen == true, \"This game is already closed\");\n    games[_gameId].isOpen = false;\n    emit LogCloseGame(_gameId);\n  }\n\n  /// @dev A function that fetches all the games in the system\n  /// @return A list of all the games in the system\n  function getAllGames() external view whenNotPaused() returns (Game[] memory) {\n    uint256 resultLength = gameId - 1;\n    Game[] memory result = new Game[](resultLength);\n    for(uint256 i = 0; i < resultLength; i++) {\n      result[i] = games[i + 1];\n    }\n    return result;\n  }\n\n  /// @dev A function for fetching a user's bet history\n  /// @return A list of all a user's bets\n  function getUserBetsHistory() external view whenNotPaused() returns (History[] memory) {\n    uint256 resultLength = usersBetList[msg.sender].length;\n    History[] memory result = new History[](resultLength);\n\n    for (uint256 i = 0; i < resultLength; i++) {\n      uint256 id = usersBetList[msg.sender][i];\n      Game memory game = games[id];\n      Stake memory stake = allBets[msg.sender][id];\n      History memory history;\n\n      history.gameId = id;\n      history.teamA = game.teamA;\n      history.teamB = game.teamB;\n      history.startTime = game.startTime;\n      history.endTime = game.endTime;\n      history.gameTotalAmountStaked = game.totalAmountStaked;\n      history.usersCount = game.usersCount;\n      history.winner = game.winner;\n      history.teamToWin = stake.teamToWin;\n      history.teamToWinHash = stake.teamToWinHash;\n      history.userTotalAmountStaked = stake.totalAmountStaked;\n\n      uint256 userStakePercentage = (stake.totalAmountStaked *10000) / (game.totalAmountStaked * 100);\n      history.userStakePercentage = userStakePercentage; /// will be stored as actualPercentage * 10000 e.g 12.5 would equal 125000. This is because of solidity's inablity to handle floating number properly\n\n      result[i] = history;\n    }\n\n    return result;\n  }\n\n  /// @dev A function for placing new bets\n  /// @param _gameId The index of the game to be bet on\n  /// @param _teamToWin The team selected to win\n  /// @param _betStakeAmount The amount in WEI being staked\n  function submitBet(uint256 _gameId, string memory _teamToWin, uint256 _betStakeAmount) external isSignedIn checkAmount(_betStakeAmount) whenNotPaused() {\n    require(games[_gameId].isOpen == true, \"This game is no longer accepting stakes\");\n    require(_betStakeAmount > 0, \"Bet stake amount must be greater than 0\");\n    address user = msg.sender;\n    bytes32 teamToWinHash = keccak256(abi.encodePacked(_teamToWin));\n    Stake storage bet = allBets[user][_gameId];\n\n    /// User might be staking this bet for the first time or increasing thier initial stake\n    if(bet.totalAmountStaked == 0) {\n      Stake memory newBet;\n      newBet.teamToWin = _teamToWin;\n      newBet.teamToWinHash = teamToWinHash;\n      newBet.totalAmountStaked =  _betStakeAmount;\n\n      usersBetList[user].push(_gameId);\n      allBets[user][_gameId] = newBet;\n      games[_gameId].usersCount = games[_gameId].usersCount + 1;\n    } else {\n      require(bet.teamToWinHash == teamToWinHash, \"You're not allowed to stake on both sides of a game\");\n      bet.totalAmountStaked = bet.totalAmountStaked + _betStakeAmount;\n    }\n\n    usersBalance[user] = usersBalance[user] - _betStakeAmount;\n    games[_gameId].totalAmountStaked = games[_gameId].totalAmountStaked + _betStakeAmount;\n    appBalance = appBalance + _betStakeAmount;\n\n    emit LogSubmitBet(msg.sender, _gameId, _teamToWin, _betStakeAmount, usersBalance[msg.sender]);\n  }\n\n  /// @dev A function for updating a game's winner upon game ending - ideally, this should use data from an oracle\n  /// @param _gameId the index of the game\n  /// @param _winner the winner of the game\n  function updateGameWinner(uint256 _gameId, string memory _winner) external onlyOwner whenNotPaused() {\n    require(games[_gameId].isOpen == false, \"Can not update winner of an open game\");\n    require(bytes(games[_gameId].winner).length == 0, \"This game already has a winner\");\n\n    games[_gameId].winner = _winner;\n    emit LogUpdateGameWinner(_gameId, _winner);\n  }\n\n  /// @dev A function for distributting funds to game winners\n  /// @param _gameId the index of the game\n  function disburseBetFunds(uint256 _gameId) external onlyOwner whenNotPaused() returns (bool) {\n\n  }\n\n  /// Events\n  event LogSignInUser(address indexed _address);\n  event LogAddFunds(address indexed _sender, uint256 _amount, uint256 _userBalance);\n  event LogWithdrawFunds(address indexed _to, uint256 _amount);\n  event LogAddGame(string _teamA, string _teamB, uint256 indexed _startTime, uint256 indexed _endTime);\n  event LogSubmitBet(address indexed _user, uint256 indexed _gameId, string _sideToWin, uint256 _betStakeAmount, uint256 _userBalance);\n  event LogUpdateGameWinner(uint256 indexed _gameId, string _winner);\n  event LogDisburseBetFunds(uint256 indexed _gameId);\n  event LogCloseGame(uint256 indexed _gameId);\n  \n}\n",
  "sourcePath": "/Users/mac/Desktop/blockchain-developer-bootcamp-final-project/contracts/Betting.sol",
  "compiler": {
    "name": "solc",
    "version": "0.8.0+commit.c7dfd78e.Emscripten.clang"
  },
  "schemaVersion": "3.4.3",
  "updatedAt": "2021-12-09T19:14:56.410Z",
  "networkType": "ethereum",
  "devdoc": {
    "author": "Kingsley Arinze O.",
    "details": "This contract does not use oracles as external data sources yet.",
    "kind": "dev",
    "methods": {
      "addFunds()": {
        "details": "A payable function for depositing money into the contract and funding the caller's wallet"
      },
      "addGame(string,string,uint256,uint256)": {
        "details": "A function for adding new games to the system",
        "params": {
          "endTime": "Game end time",
          "startTime": "Game start time",
          "teamA": "The home team",
          "teamB": "The away team"
        }
      },
      "closeGame(uint256)": {
        "details": "A function that pauses bets on a game",
        "params": {
          "_gameId": "the Index of the game to be closed"
        }
      },
      "disburseBetFunds(uint256)": {
        "details": "A function for distributting funds to game winners",
        "params": {
          "_gameId": "the index of the game"
        }
      },
      "getAllGames()": {
        "details": "A function that fetches all the games in the system",
        "returns": {
          "_0": "A list of all the games in the system"
        }
      },
      "getUserBetsHistory()": {
        "details": "A function for fetching a user's bet history",
        "returns": {
          "_0": "A list of all a user's bets"
        }
      },
      "owner()": {
        "details": "Returns the address of the current owner."
      },
      "paused()": {
        "details": "Returns true if the contract is paused, and false otherwise."
      },
      "renounceOwnership()": {
        "details": "Leaves the contract without owner. It will not be possible to call `onlyOwner` functions anymore. Can only be called by the current owner. NOTE: Renouncing ownership will leave the contract without an owner, thereby removing any functionality that is only available to the owner."
      },
      "signInStatus(address)": {
        "details": "Checks a user's registration status",
        "params": {
          "_address": "Address of the calling user"
        },
        "returns": {
          "_0": "The user registration status as true or false"
        }
      },
      "signInUser(address)": {
        "details": "Creates an account for a new user",
        "params": {
          "_address": "Address of the calling user"
        }
      },
      "submitBet(uint256,string,uint256)": {
        "details": "A function for placing new bets",
        "params": {
          "_betStakeAmount": "The amount in WEI being staked",
          "_gameId": "The index of the game to be bet on",
          "_teamToWin": "The team selected to win"
        }
      },
      "transferOwnership(address)": {
        "details": "Transfers ownership of the contract to a new account (`newOwner`). Can only be called by the current owner."
      },
      "updateGameWinner(uint256,string)": {
        "details": "A function for updating a game's winner upon game ending - ideally, this should use data from an oracle",
        "params": {
          "_gameId": "the index of the game",
          "_winner": "the winner of the game"
        }
      },
      "withdrawFunds(address,uint256)": {
        "details": "A payable function for withdrawing funds to an external wallet",
        "params": {
          "_amount": "Amount to be withdrawn",
          "_to": "Address to withdraw to"
        },
        "returns": {
          "_0": "Withdrawn amount in WEI"
        }
      }
    },
    "stateVariables": {
      "allBets": {
        "details": "A map of users to all the games they've bet on and their corresponding stands"
      },
      "appBalance": {
        "details": "The total amount in WEI held by this smart contract"
      },
      "gameId": {
        "details": "Holds the index of the next game to be added to the system"
      },
      "games": {
        "details": "A map containing all the games in the system"
      },
      "users": {
        "details": "A map containing all registered users/accounts"
      },
      "usersBalance": {
        "details": "A map containing all registered users' balance"
      },
      "usersBetList": {
        "details": "A map containing all the games a user has bet on"
      }
    },
    "title": "A betting contract",
    "version": 1
  },
  "userdoc": {
    "events": {
      "LogSignInUser(address)": {
        "notice": "Events"
      }
    },
    "kind": "user",
    "methods": {},
    "version": 1
  }
}