{
  "contractName": "Betting",
  "abi": [
    {
      "inputs": [],
      "stateMutability": "nonpayable",
      "type": "constructor"
    },
    {
      "anonymous": false,
      "inputs": [
        {
          "indexed": true,
          "internalType": "address",
          "name": "_sender",
          "type": "address"
        },
        {
          "indexed": false,
          "internalType": "uint256",
          "name": "_amount",
          "type": "uint256"
        },
        {
          "indexed": false,
          "internalType": "uint256",
          "name": "_userBalance",
          "type": "uint256"
        }
      ],
      "name": "LogAddFunds",
      "type": "event"
    },
    {
      "anonymous": false,
      "inputs": [
        {
          "indexed": false,
          "internalType": "string",
          "name": "_teamA",
          "type": "string"
        },
        {
          "indexed": false,
          "internalType": "string",
          "name": "_teamB",
          "type": "string"
        },
        {
          "indexed": true,
          "internalType": "uint256",
          "name": "_startTime",
          "type": "uint256"
        },
        {
          "indexed": true,
          "internalType": "uint256",
          "name": "_endTime",
          "type": "uint256"
        }
      ],
      "name": "LogAddGame",
      "type": "event"
    },
    {
      "anonymous": false,
      "inputs": [
        {
          "indexed": true,
          "internalType": "uint256",
          "name": "_gameId",
          "type": "uint256"
        }
      ],
      "name": "LogCloseGame",
      "type": "event"
    },
    {
      "anonymous": false,
      "inputs": [
        {
          "indexed": true,
          "internalType": "uint256",
          "name": "_gameId",
          "type": "uint256"
        }
      ],
      "name": "LogDisburseBetFunds",
      "type": "event"
    },
    {
      "anonymous": false,
      "inputs": [
        {
          "indexed": true,
          "internalType": "address",
          "name": "_address",
          "type": "address"
        }
      ],
      "name": "LogSignInUser",
      "type": "event"
    },
    {
      "anonymous": false,
      "inputs": [
        {
          "indexed": true,
          "internalType": "address",
          "name": "_user",
          "type": "address"
        },
        {
          "indexed": true,
          "internalType": "uint256",
          "name": "_gameId",
          "type": "uint256"
        },
        {
          "indexed": false,
          "internalType": "string",
          "name": "_sideToWin",
          "type": "string"
        },
        {
          "indexed": false,
          "internalType": "uint256",
          "name": "_betStakeAmount",
          "type": "uint256"
        },
        {
          "indexed": false,
          "internalType": "uint256",
          "name": "_appBalance",
          "type": "uint256"
        }
      ],
      "name": "LogSubmitBet",
      "type": "event"
    },
    {
      "anonymous": false,
      "inputs": [
        {
          "indexed": true,
          "internalType": "uint256",
          "name": "_gameId",
          "type": "uint256"
        },
        {
          "indexed": false,
          "internalType": "string",
          "name": "_winner",
          "type": "string"
        }
      ],
      "name": "LogUpdateGameWinner",
      "type": "event"
    },
    {
      "anonymous": false,
      "inputs": [
        {
          "indexed": true,
          "internalType": "address",
          "name": "_to",
          "type": "address"
        },
        {
          "indexed": false,
          "internalType": "uint256",
          "name": "_amount",
          "type": "uint256"
        }
      ],
      "name": "LogWithdrawFunds",
      "type": "event"
    },
    {
      "inputs": [],
      "name": "gameId",
      "outputs": [
        {
          "internalType": "uint256",
          "name": "",
          "type": "uint256"
        }
      ],
      "stateMutability": "view",
      "type": "function",
      "constant": true
    },
    {
      "inputs": [
        {
          "internalType": "uint256",
          "name": "",
          "type": "uint256"
        }
      ],
      "name": "games",
      "outputs": [
        {
          "internalType": "string",
          "name": "teamA",
          "type": "string"
        },
        {
          "internalType": "string",
          "name": "teamB",
          "type": "string"
        },
        {
          "internalType": "string",
          "name": "winner",
          "type": "string"
        },
        {
          "internalType": "uint256",
          "name": "totalAmountStaked",
          "type": "uint256"
        },
        {
          "internalType": "uint256",
          "name": "usersCount",
          "type": "uint256"
        },
        {
          "internalType": "uint256",
          "name": "startTime",
          "type": "uint256"
        },
        {
          "internalType": "uint256",
          "name": "endTime",
          "type": "uint256"
        },
        {
          "internalType": "bool",
          "name": "isOpen",
          "type": "bool"
        }
      ],
      "stateMutability": "view",
      "type": "function",
      "constant": true
    },
    {
      "inputs": [],
      "name": "owner",
      "outputs": [
        {
          "internalType": "address",
          "name": "",
          "type": "address"
        }
      ],
      "stateMutability": "view",
      "type": "function",
      "constant": true
    },
    {
      "inputs": [
        {
          "internalType": "address",
          "name": "",
          "type": "address"
        }
      ],
      "name": "users",
      "outputs": [
        {
          "internalType": "bool",
          "name": "",
          "type": "bool"
        }
      ],
      "stateMutability": "view",
      "type": "function",
      "constant": true
    },
    {
      "inputs": [
        {
          "internalType": "address",
          "name": "",
          "type": "address"
        }
      ],
      "name": "usersBalance",
      "outputs": [
        {
          "internalType": "uint256",
          "name": "",
          "type": "uint256"
        }
      ],
      "stateMutability": "view",
      "type": "function",
      "constant": true
    },
    {
      "inputs": [
        {
          "internalType": "address",
          "name": "",
          "type": "address"
        },
        {
          "internalType": "uint256",
          "name": "",
          "type": "uint256"
        }
      ],
      "name": "usersStakings",
      "outputs": [
        {
          "internalType": "string",
          "name": "teamToWin",
          "type": "string"
        },
        {
          "internalType": "bytes32",
          "name": "teamToWinHash",
          "type": "bytes32"
        },
        {
          "internalType": "uint256",
          "name": "totalAmountStaked",
          "type": "uint256"
        },
        {
          "internalType": "uint256",
          "name": "stakePercentage",
          "type": "uint256"
        }
      ],
      "stateMutability": "view",
      "type": "function",
      "constant": true
    },
    {
      "inputs": [
        {
          "internalType": "address",
          "name": "_address",
          "type": "address"
        }
      ],
      "name": "signInUser",
      "outputs": [],
      "stateMutability": "nonpayable",
      "type": "function"
    },
    {
      "inputs": [
        {
          "internalType": "address",
          "name": "_address",
          "type": "address"
        }
      ],
      "name": "signInStatus",
      "outputs": [
        {
          "internalType": "bool",
          "name": "",
          "type": "bool"
        }
      ],
      "stateMutability": "view",
      "type": "function",
      "constant": true
    },
    {
      "inputs": [],
      "name": "addFunds",
      "outputs": [],
      "stateMutability": "payable",
      "type": "function",
      "payable": true
    },
    {
      "inputs": [
        {
          "internalType": "address payable",
          "name": "_to",
          "type": "address"
        },
        {
          "internalType": "uint256",
          "name": "_amount",
          "type": "uint256"
        }
      ],
      "name": "withdrawFunds",
      "outputs": [
        {
          "internalType": "uint256",
          "name": "",
          "type": "uint256"
        }
      ],
      "stateMutability": "payable",
      "type": "function",
      "payable": true
    },
    {
      "inputs": [
        {
          "internalType": "string",
          "name": "teamA",
          "type": "string"
        },
        {
          "internalType": "string",
          "name": "teamB",
          "type": "string"
        },
        {
          "internalType": "uint256",
          "name": "startTime",
          "type": "uint256"
        },
        {
          "internalType": "uint256",
          "name": "endTime",
          "type": "uint256"
        }
      ],
      "name": "addGame",
      "outputs": [],
      "stateMutability": "nonpayable",
      "type": "function"
    },
    {
      "inputs": [
        {
          "internalType": "uint256",
          "name": "_gameId",
          "type": "uint256"
        }
      ],
      "name": "closeGame",
      "outputs": [],
      "stateMutability": "nonpayable",
      "type": "function"
    },
    {
      "inputs": [],
      "name": "getAllGames",
      "outputs": [
        {
          "components": [
            {
              "internalType": "string",
              "name": "teamA",
              "type": "string"
            },
            {
              "internalType": "string",
              "name": "teamB",
              "type": "string"
            },
            {
              "internalType": "string",
              "name": "winner",
              "type": "string"
            },
            {
              "internalType": "uint256",
              "name": "totalAmountStaked",
              "type": "uint256"
            },
            {
              "internalType": "uint256",
              "name": "usersCount",
              "type": "uint256"
            },
            {
              "internalType": "uint256",
              "name": "startTime",
              "type": "uint256"
            },
            {
              "internalType": "uint256",
              "name": "endTime",
              "type": "uint256"
            },
            {
              "internalType": "bool",
              "name": "isOpen",
              "type": "bool"
            }
          ],
          "internalType": "struct Betting.Game[]",
          "name": "",
          "type": "tuple[]"
        }
      ],
      "stateMutability": "view",
      "type": "function",
      "constant": true
    },
    {
      "inputs": [
        {
          "internalType": "uint256",
          "name": "_gameId",
          "type": "uint256"
        },
        {
          "internalType": "string",
          "name": "_teamToWin",
          "type": "string"
        },
        {
          "internalType": "uint256",
          "name": "_betStakeAmount",
          "type": "uint256"
        }
      ],
      "name": "submitBet",
      "outputs": [],
      "stateMutability": "nonpayable",
      "type": "function"
    },
    {
      "inputs": [
        {
          "internalType": "uint256",
          "name": "_gameId",
          "type": "uint256"
        },
        {
          "internalType": "string",
          "name": "_winner",
          "type": "string"
        }
      ],
      "name": "updateGameWinner",
      "outputs": [],
      "stateMutability": "nonpayable",
      "type": "function"
    },
    {
      "inputs": [
        {
          "internalType": "uint256",
          "name": "_gameId",
          "type": "uint256"
        }
      ],
      "name": "disburseBetFunds",
      "outputs": [
        {
          "internalType": "bool",
          "name": "",
          "type": "bool"
        }
      ],
      "stateMutability": "nonpayable",
      "type": "function"
    }
  ],
  "bytecode": "0x608060405234801561001057600080fd5b50336000806101000a81548173ffffffffffffffffffffffffffffffffffffffff021916908373ffffffffffffffffffffffffffffffffffffffff16021790555060016002819055506000600181905550612d81806100706000396000f3fe6080604052600436106100f35760003560e01c8063a84d1af01161008a578063c4d0500a11610059578063c4d0500a14610328578063d098067d14610365578063d7c81b55146103a2578063db1c45f9146103cd576100f3565b8063a84d1af014610252578063a87430ba1461027b578063c1075329146102b8578063c4c9cf1f146102e8576100f3565b806398880043116100c657806398880043146101cd5780639c2f8f4f146101f6578063a26759cb1461021f578063a50fdbdc14610229576100f3565b8063117a5b90146100f85780632d6ef3101461013c57806358324335146101655780638da5cb5b146101a2575b600080fd5b34801561010457600080fd5b5061011f600480360381019061011a9190612036565b6103f8565b6040516101339897969594939291906128c5565b60405180910390f35b34801561014857600080fd5b50610163600480360381019061015e9190612036565b610615565b005b34801561017157600080fd5b5061018c60048036038101906101879190611f02565b61076c565b6040516101999190612b36565b60405180910390f35b3480156101ae57600080fd5b506101b7610784565b6040516101c491906127c8565b60405180910390f35b3480156101d957600080fd5b506101f460048036038101906101ef9190611fa3565b6107a8565b005b34801561020257600080fd5b5061021d6004803603810190610218919061205f565b6109ae565b005b610227610b7a565b005b34801561023557600080fd5b50610250600480360381019061024b9190611f02565b610ceb565b005b34801561025e57600080fd5b50610279600480360381019061027491906120b3565b610eb8565b005b34801561028757600080fd5b506102a2600480360381019061029d9190611f02565b611415565b6040516102af9190612805565b60405180910390f35b6102d260048036038101906102cd9190611f2b565b611435565b6040516102df9190612b36565b60405180910390f35b3480156102f457600080fd5b5061030f600480360381019061030a9190611f67565b61169f565b60405161031f9493929190612842565b60405180910390f35b34801561033457600080fd5b5061034f600480360381019061034a9190611f02565b611774565b60405161035c9190612805565b60405180910390f35b34801561037157600080fd5b5061038c60048036038101906103879190612036565b6117ca565b6040516103999190612805565b60405180910390f35b3480156103ae57600080fd5b506103b7611860565b6040516103c49190612b36565b60405180910390f35b3480156103d957600080fd5b506103e2611866565b6040516103ef91906127e3565b60405180910390f35b6005602052806000526040600020600091509050806000018054600181600116156101000203166002900480601f0160208091040260200160405190810160405280929190818152602001828054600181600116156101000203166002900480156104a45780601f10610479576101008083540402835291602001916104a4565b820191906000526020600020905b81548152906001019060200180831161048757829003601f168201915b505050505090806001018054600181600116156101000203166002900480601f0160208091040260200160405190810160405280929190818152602001828054600181600116156101000203166002900480156105425780601f1061051757610100808354040283529160200191610542565b820191906000526020600020905b81548152906001019060200180831161052557829003601f168201915b505050505090806002018054600181600116156101000203166002900480601f0160208091040260200160405190810160405280929190818152602001828054600181600116156101000203166002900480156105e05780601f106105b5576101008083540402835291602001916105e0565b820191906000526020600020905b8154815290600101906020018083116105c357829003601f168201915b5050505050908060030154908060040154908060050154908060060154908060070160009054906101000a900460ff16905088565b60008054906101000a900473ffffffffffffffffffffffffffffffffffffffff1673ffffffffffffffffffffffffffffffffffffffff163373ffffffffffffffffffffffffffffffffffffffff16146106a3576040517f08c379a000000000000000000000000000000000000000000000000000000000815260040161069a906129f6565b60405180910390fd5b600115156005600083815260200190815260200160002060070160009054906101000a900460ff1615151461070d576040517f08c379a000000000000000000000000000000000000000000000000000000000815260040161070490612b16565b60405180910390fd5b60006005600083815260200190815260200160002060070160006101000a81548160ff021916908315150217905550807f24a5dbf244dd4fdeabd46c3805b8bd07f9b99e43d2209810e9ed7a90d649429560405160405180910390a250565b60046020528060005260406000206000915090505481565b60008054906101000a900473ffffffffffffffffffffffffffffffffffffffff1681565b60008054906101000a900473ffffffffffffffffffffffffffffffffffffffff1673ffffffffffffffffffffffffffffffffffffffff163373ffffffffffffffffffffffffffffffffffffffff1614610836576040517f08c379a000000000000000000000000000000000000000000000000000000000815260040161082d906129f6565b60405180910390fd5b61083e611d60565b84816000018190525083816020018190525060405180602001604052806000815250816040018190525060008160600181815250506000816080018181525050828160a0018181525050818160c001818152505060018160e00190151590811515815250508060056000600254815260200190815260200160002060008201518160000190805190602001906108d5929190611da7565b5060208201518160010190805190602001906108f2929190611da7565b50604082015181600201908051906020019061090f929190611da7565b50606082015181600301556080820151816004015560a0820151816005015560c0820151816006015560e08201518160070160006101000a81548160ff021916908315150217905550905050600160026000828254019250508190555081837f0bfce854c1cd16d4f0808949802d6262e3a086711bc7968a170a112860975f63878760405161099f92919061288e565b60405180910390a35050505050565b60008054906101000a900473ffffffffffffffffffffffffffffffffffffffff1673ffffffffffffffffffffffffffffffffffffffff163373ffffffffffffffffffffffffffffffffffffffff1614610a3c576040517f08c379a0000000000000000000000000000000000000000000000000000000008152600401610a33906129f6565b60405180910390fd5b600015156005600084815260200190815260200160002060070160009054906101000a900460ff16151514610aa6576040517f08c379a0000000000000000000000000000000000000000000000000000000008152600401610a9d90612a96565b60405180910390fd5b60006005600084815260200190815260200160002060020180546001816001161561010002031660029004905014610b13576040517f08c379a0000000000000000000000000000000000000000000000000000000008152600401610b0a90612ab6565b60405180910390fd5b80600560008481526020019081526020016000206002019080519060200190610b3d929190611da7565b50817f1da28083458e812c85b645713b82ac43e2ca08cf842ba14d6a80bd456967527f82604051610b6e9190612820565b60405180910390a25050565b60011515600360003373ffffffffffffffffffffffffffffffffffffffff1673ffffffffffffffffffffffffffffffffffffffff16815260200190815260200160002060009054906101000a900460ff16151514610c0d576040517f08c379a0000000000000000000000000000000000000000000000000000000008152600401610c04906129b6565b60405180910390fd5b34600460003373ffffffffffffffffffffffffffffffffffffffff1673ffffffffffffffffffffffffffffffffffffffff168152602001908152602001600020600082825401925050819055503373ffffffffffffffffffffffffffffffffffffffff167f938318a96a1b6034221032f1d0f084a342ae89cb9ea9e811f1a5b9dfa7dc1bed34600460003373ffffffffffffffffffffffffffffffffffffffff1673ffffffffffffffffffffffffffffffffffffffff16815260200190815260200160002054604051610ce1929190612b51565b60405180910390a2565b60008054906101000a900473ffffffffffffffffffffffffffffffffffffffff1673ffffffffffffffffffffffffffffffffffffffff168173ffffffffffffffffffffffffffffffffffffffff161415610d7a576040517f08c379a0000000000000000000000000000000000000000000000000000000008152600401610d7190612a76565b60405180910390fd5b60011515600360008373ffffffffffffffffffffffffffffffffffffffff1673ffffffffffffffffffffffffffffffffffffffff16815260200190815260200160002060009054906101000a900460ff161515151415610eb5576001600360008373ffffffffffffffffffffffffffffffffffffffff1673ffffffffffffffffffffffffffffffffffffffff16815260200190815260200160002060006101000a81548160ff0219169083151502179055506000600460008373ffffffffffffffffffffffffffffffffffffffff1673ffffffffffffffffffffffffffffffffffffffff168152602001908152602001600020819055508073ffffffffffffffffffffffffffffffffffffffff167fc743ccff48012312e9853b6c664d256dbf986977bccfdc1185848ef09092011f60405160405180910390a25b50565b60011515600360003373ffffffffffffffffffffffffffffffffffffffff1673ffffffffffffffffffffffffffffffffffffffff16815260200190815260200160002060009054906101000a900460ff16151514610f4b576040517f08c379a0000000000000000000000000000000000000000000000000000000008152600401610f42906129b6565b60405180910390fd5b80600460003373ffffffffffffffffffffffffffffffffffffffff1673ffffffffffffffffffffffffffffffffffffffff16815260200190815260200160002054811115610fce576040517f08c379a0000000000000000000000000000000000000000000000000000000008152600401610fc590612a36565b60405180910390fd5b600115156005600086815260200190815260200160002060070160009054906101000a900460ff16151514611038576040517f08c379a000000000000000000000000000000000000000000000000000000000815260040161102f906129d6565b60405180910390fd5b6000821161107b576040517f08c379a000000000000000000000000000000000000000000000000000000000815260040161107290612ad6565b60405180910390fd5b6000339050600084604051602001611093919061279c565b6040516020818303038152906040528051906020012090506000600660008473ffffffffffffffffffffffffffffffffffffffff1673ffffffffffffffffffffffffffffffffffffffff1681526020019081526020016000206000888152602001908152602001600020905060008160020154141561120a57611114611e27565b868160000181905250828160200181815250508581604001818152505080600660008673ffffffffffffffffffffffffffffffffffffffff1673ffffffffffffffffffffffffffffffffffffffff16815260200190815260200160002060008a8152602001908152602001600020600082015181600001908051906020019061119e929190611da7565b506020820151816001015560408201518160020155606082015181600301559050506111ea6001600560008b815260200190815260200160002060040154611b4b90919063ffffffff16565b600560008a81526020019081526020016000206004018190555050611270565b81816001015414611250576040517f08c379a000000000000000000000000000000000000000000000000000000000815260040161124790612996565b60405180910390fd5b611267858260020154611b4b90919063ffffffff16565b81600201819055505b6112c285600460008673ffffffffffffffffffffffffffffffffffffffff1673ffffffffffffffffffffffffffffffffffffffff16815260200190815260200160002054611ba090919063ffffffff16565b600460008573ffffffffffffffffffffffffffffffffffffffff1673ffffffffffffffffffffffffffffffffffffffff1681526020019081526020016000208190555061132e85600560008a815260200190815260200160002060030154611b4b90919063ffffffff16565b600560008981526020019081526020016000206003018190555061135d85600154611b4b90919063ffffffff16565b60018190555060008160020154905060006113aa606461139c600560008d81526020019081526020016000206003015485611bea90919063ffffffff16565b611c3490919063ffffffff16565b9050808360030181905550883373ffffffffffffffffffffffffffffffffffffffff167fa9f47223c151f2e248554dd2758229dceb80a21de3877f60ae604e35468cf4ef8a8a60015460405161140293929190612958565b60405180910390a3505050505050505050565b60036020528060005260406000206000915054906101000a900460ff1681565b600060011515600360003373ffffffffffffffffffffffffffffffffffffffff1673ffffffffffffffffffffffffffffffffffffffff16815260200190815260200160002060009054906101000a900460ff161515146114ca576040517f08c379a00000000000000000000000000000000000000000000000000000000081526004016114c1906129b6565b60405180910390fd5b81600460003373ffffffffffffffffffffffffffffffffffffffff1673ffffffffffffffffffffffffffffffffffffffff1681526020019081526020016000205481111561154d576040517f08c379a000000000000000000000000000000000000000000000000000000000815260040161154490612a36565b60405180910390fd5b82600460003373ffffffffffffffffffffffffffffffffffffffff1673ffffffffffffffffffffffffffffffffffffffff1681526020019081526020016000206000828254039250508190555060008473ffffffffffffffffffffffffffffffffffffffff16846040516115c0906127b3565b60006040518083038185875af1925050503d80600081146115fd576040519150601f19603f3d011682016040523d82523d6000602084013e611602565b606091505b5050905080611646576040517f08c379a000000000000000000000000000000000000000000000000000000000815260040161163d90612af6565b60405180910390fd5b3373ffffffffffffffffffffffffffffffffffffffff167f333d9f35320f28a9518fc6083975ac7d7465f020712cda7608ca073ea651f2648560405161168c9190612b36565b60405180910390a2839250505092915050565b600660205281600052604060002060205280600052604060002060009150915050806000018054600181600116156101000203166002900480601f0160208091040260200160405190810160405280929190818152602001828054600181600116156101000203166002900480156117585780601f1061172d57610100808354040283529160200191611758565b820191906000526020600020905b81548152906001019060200180831161173b57829003601f168201915b5050505050908060010154908060020154908060030154905084565b6000600360008373ffffffffffffffffffffffffffffffffffffffff1673ffffffffffffffffffffffffffffffffffffffff16815260200190815260200160002060009054906101000a900460ff169050919050565b60008060009054906101000a900473ffffffffffffffffffffffffffffffffffffffff1673ffffffffffffffffffffffffffffffffffffffff163373ffffffffffffffffffffffffffffffffffffffff161461185b576040517f08c379a0000000000000000000000000000000000000000000000000000000008152600401611852906129f6565b60405180910390fd5b919050565b60025481565b60606000600160025403905060608167ffffffffffffffff8111801561188b57600080fd5b506040519080825280602002602001820160405280156118c557816020015b6118b2611d60565b8152602001906001900390816118aa5790505b50905060005b82811015611b42576005600060018301815260200190815260200160002060405180610100016040529081600082018054600181600116156101000203166002900480601f01602080910402602001604051908101604052809291908181526020018280546001816001161561010002031660029004801561198e5780601f106119635761010080835404028352916020019161198e565b820191906000526020600020905b81548152906001019060200180831161197157829003601f168201915b50505050508152602001600182018054600181600116156101000203166002900480601f016020809104026020016040519081016040528092919081815260200182805460018160011615610100020316600290048015611a305780601f10611a0557610100808354040283529160200191611a30565b820191906000526020600020905b815481529060010190602001808311611a1357829003601f168201915b50505050508152602001600282018054600181600116156101000203166002900480601f016020809104026020016040519081016040528092919081815260200182805460018160011615610100020316600290048015611ad25780601f10611aa757610100808354040283529160200191611ad2565b820191906000526020600020905b815481529060010190602001808311611ab557829003601f168201915b50505050508152602001600382015481526020016004820154815260200160058201548152602001600682015481526020016007820160009054906101000a900460ff161515151581525050828281518110611b2a57fe5b602002602001018190525080806001019150506118cb565b50809250505090565b600080828401905083811015611b96576040517f08c379a0000000000000000000000000000000000000000000000000000000008152600401611b8d90612a16565b60405180910390fd5b8091505092915050565b6000611be283836040518060400160405280601e81526020017f536166654d6174683a207375627472616374696f6e206f766572666c6f770000815250611ca4565b905092915050565b6000611c2c83836040518060400160405280601a81526020017f536166654d6174683a206469766973696f6e206279207a65726f000000000000815250611cff565b905092915050565b600080831415611c475760009050611c9e565b6000828402905082848281611c5857fe5b0414611c99576040517f08c379a0000000000000000000000000000000000000000000000000000000008152600401611c9090612a56565b60405180910390fd5b809150505b92915050565b6000838311158290611cec576040517f08c379a0000000000000000000000000000000000000000000000000000000008152600401611ce39190612820565b60405180910390fd5b5060008385039050809150509392505050565b60008083118290611d46576040517f08c379a0000000000000000000000000000000000000000000000000000000008152600401611d3d9190612820565b60405180910390fd5b506000838581611d5257fe5b049050809150509392505050565b604051806101000160405280606081526020016060815260200160608152602001600081526020016000815260200160008152602001600081526020016000151581525090565b828054600181600116156101000203166002900490600052602060002090601f016020900481019282601f10611de857805160ff1916838001178555611e16565b82800160010185558215611e16579182015b82811115611e15578251825591602001919060010190611dfa565b5b509050611e239190611e52565b5090565b6040518060800160405280606081526020016000801916815260200160008152602001600081525090565b5b80821115611e6b576000816000905550600101611e53565b5090565b600081359050611e7e81612d06565b92915050565b600081359050611e9381612d1d565b92915050565b600082601f830112611eaa57600080fd5b8135611ebd611eb882612ba7565b612b7a565b91508082526020830160208301858383011115611ed957600080fd5b611ee4838284612cb3565b50505092915050565b600081359050611efc81612d34565b92915050565b600060208284031215611f1457600080fd5b6000611f2284828501611e6f565b91505092915050565b60008060408385031215611f3e57600080fd5b6000611f4c85828601611e84565b9250506020611f5d85828601611eed565b9150509250929050565b60008060408385031215611f7a57600080fd5b6000611f8885828601611e6f565b9250506020611f9985828601611eed565b9150509250929050565b60008060008060808587031215611fb957600080fd5b600085013567ffffffffffffffff811115611fd357600080fd5b611fdf87828801611e99565b945050602085013567ffffffffffffffff811115611ffc57600080fd5b61200887828801611e99565b935050604061201987828801611eed565b925050606061202a87828801611eed565b91505092959194509250565b60006020828403121561204857600080fd5b600061205684828501611eed565b91505092915050565b6000806040838503121561207257600080fd5b600061208085828601611eed565b925050602083013567ffffffffffffffff81111561209d57600080fd5b6120a985828601611e99565b9150509250929050565b6000806000606084860312156120c857600080fd5b60006120d686828701611eed565b935050602084013567ffffffffffffffff8111156120f357600080fd5b6120ff86828701611e99565b925050604061211086828701611eed565b9150509250925092565b600061212683836126c0565b905092915050565b61213781612c4f565b82525050565b600061214882612be3565b6121528185612c06565b93508360208202850161216485612bd3565b8060005b858110156121a05784840389528151612181858261211a565b945061218c83612bf9565b925060208a01995050600181019050612168565b50829750879550505050505092915050565b6121bb81612c73565b82525050565b6121ca81612c73565b82525050565b6121d981612c7f565b82525050565b60006121ea82612bee565b6121f48185612c22565b9350612204818560208601612cc2565b61220d81612cf5565b840191505092915050565b600061222382612bee565b61222d8185612c33565b935061223d818560208601612cc2565b61224681612cf5565b840191505092915050565b600061225c82612bee565b6122668185612c44565b9350612276818560208601612cc2565b80840191505092915050565b600061228f603383612c33565b91507f596f75277265206e6f7420616c6c6f77656420746f207374616b65206f6e206260008301527f6f7468207369646573206f6620612067616d65000000000000000000000000006020830152604082019050919050565b60006122f5601383612c33565b91507f55736572206e6f742072656769737465726564000000000000000000000000006000830152602082019050919050565b6000612335602783612c33565b91507f546869732067616d65206973206e6f206c6f6e67657220616363657074696e6760008301527f207374616b6573000000000000000000000000000000000000000000000000006020830152604082019050919050565b600061239b602b83612c33565b91507f4f6e6c7920636f6e7472616374206f776e65722063616e20706572666f726d2060008301527f7468697320616374696f6e0000000000000000000000000000000000000000006020830152604082019050919050565b6000612401601b83612c33565b91507f536166654d6174683a206164646974696f6e206f766572666c6f7700000000006000830152602082019050919050565b6000612441601483612c33565b91507f496e73756666696369656e742062616c616e63650000000000000000000000006000830152602082019050919050565b6000612481602183612c33565b91507f536166654d6174683a206d756c7469706c69636174696f6e206f766572666c6f60008301527f77000000000000000000000000000000000000000000000000000000000000006020830152604082019050919050565b60006124e7601b83612c33565b91507f4f776e65722063616e206e6f74206265207265676973746572656400000000006000830152602082019050919050565b6000612527602583612c33565b91507f43616e206e6f74207570646174652077696e6e6572206f6620616e206f70656e60008301527f2067616d650000000000000000000000000000000000000000000000000000006020830152604082019050919050565b600061258d601e83612c33565b91507f546869732067616d6520616c72656164792068617320612077696e6e657200006000830152602082019050919050565b60006125cd600083612c17565b9150600082019050919050565b60006125e7602783612c33565b91507f426574207374616b6520616d6f756e74206d757374206265206772656174657260008301527f207468616e2030000000000000000000000000000000000000000000000000006020830152604082019050919050565b600061264d601183612c33565b91507f5769746864726177616c206661696c65640000000000000000000000000000006000830152602082019050919050565b600061268d601b83612c33565b91507f546869732067616d6520697320616c726561647920636c6f73656400000000006000830152602082019050919050565b60006101008301600083015184820360008601526126de82826121df565b915050602083015184820360208601526126f882826121df565b9150506040830151848203604086015261271282826121df565b9150506060830151612727606086018261277e565b50608083015161273a608086018261277e565b5060a083015161274d60a086018261277e565b5060c083015161276060c086018261277e565b5060e083015161277360e08601826121b2565b508091505092915050565b61278781612ca9565b82525050565b61279681612ca9565b82525050565b60006127a88284612251565b915081905092915050565b60006127be826125c0565b9150819050919050565b60006020820190506127dd600083018461212e565b92915050565b600060208201905081810360008301526127fd818461213d565b905092915050565b600060208201905061281a60008301846121c1565b92915050565b6000602082019050818103600083015261283a8184612218565b905092915050565b6000608082019050818103600083015261285c8187612218565b905061286b60208301866121d0565b612878604083018561278d565b612885606083018461278d565b95945050505050565b600060408201905081810360008301526128a88185612218565b905081810360208301526128bc8184612218565b90509392505050565b60006101008201905081810360008301526128e0818b612218565b905081810360208301526128f4818a612218565b905081810360408301526129088189612218565b9050612917606083018861278d565b612924608083018761278d565b61293160a083018661278d565b61293e60c083018561278d565b61294b60e08301846121c1565b9998505050505050505050565b600060608201905081810360008301526129728186612218565b9050612981602083018561278d565b61298e604083018461278d565b949350505050565b600060208201905081810360008301526129af81612282565b9050919050565b600060208201905081810360008301526129cf816122e8565b9050919050565b600060208201905081810360008301526129ef81612328565b9050919050565b60006020820190508181036000830152612a0f8161238e565b9050919050565b60006020820190508181036000830152612a2f816123f4565b9050919050565b60006020820190508181036000830152612a4f81612434565b9050919050565b60006020820190508181036000830152612a6f81612474565b9050919050565b60006020820190508181036000830152612a8f816124da565b9050919050565b60006020820190508181036000830152612aaf8161251a565b9050919050565b60006020820190508181036000830152612acf81612580565b9050919050565b60006020820190508181036000830152612aef816125da565b9050919050565b60006020820190508181036000830152612b0f81612640565b9050919050565b60006020820190508181036000830152612b2f81612680565b9050919050565b6000602082019050612b4b600083018461278d565b92915050565b6000604082019050612b66600083018561278d565b612b73602083018461278d565b9392505050565b6000604051905081810181811067ffffffffffffffff82111715612b9d57600080fd5b8060405250919050565b600067ffffffffffffffff821115612bbe57600080fd5b601f19601f8301169050602081019050919050565b6000819050602082019050919050565b600081519050919050565b600081519050919050565b6000602082019050919050565b600082825260208201905092915050565b600081905092915050565b600082825260208201905092915050565b600082825260208201905092915050565b600081905092915050565b6000612c5a82612c89565b9050919050565b6000612c6c82612c89565b9050919050565b60008115159050919050565b6000819050919050565b600073ffffffffffffffffffffffffffffffffffffffff82169050919050565b6000819050919050565b82818337600083830152505050565b60005b83811015612ce0578082015181840152602081019050612cc5565b83811115612cef576000848401525b50505050565b6000601f19601f8301169050919050565b612d0f81612c4f565b8114612d1a57600080fd5b50565b612d2681612c61565b8114612d3157600080fd5b50565b612d3d81612ca9565b8114612d4857600080fd5b5056fea26469706673582212204fe92e5748f1b1bf15438ffdb18f53ff7f4d05ed816fd6aaa2f9a73899145f0764736f6c63430007010033",
  "immutableReferences": {},
  "source": "// SPDX-License-Identifier: MIT\npragma solidity >=0.5.0 <0.9.0;\npragma experimental ABIEncoderV2;\n\nlibrary SafeMath {\n    /**\n     * @dev Returns the addition of two unsigned integers, reverting on\n     * overflow.\n     *\n     * Counterpart to Solidity's `+` operator.\n     *\n     * Requirements:\n     *\n     * - Addition cannot overflow.\n     */\n    function add(uint256 a, uint256 b) internal pure returns (uint256) {\n        uint256 c = a + b;\n        require(c >= a, \"SafeMath: addition overflow\");\n\n        return c;\n    }\n\n    /**\n     * @dev Returns the subtraction of two unsigned integers, reverting on\n     * overflow (when the result is negative).\n     *\n     * Counterpart to Solidity's `-` operator.\n     *\n     * Requirements:\n     *\n     * - Subtraction cannot overflow.\n     */\n    function sub(uint256 a, uint256 b) internal pure returns (uint256) {\n        return sub(a, b, \"SafeMath: subtraction overflow\");\n    }\n\n    /**\n     * @dev Returns the subtraction of two unsigned integers, reverting with custom message on\n     * overflow (when the result is negative).\n     *\n     * Counterpart to Solidity's `-` operator.\n     *\n     * Requirements:\n     *\n     * - Subtraction cannot overflow.\n     */\n    function sub(uint256 a, uint256 b, string memory errorMessage) internal pure returns (uint256) {\n        require(b <= a, errorMessage);\n        uint256 c = a - b;\n\n        return c;\n    }\n\n    /**\n     * @dev Returns the multiplication of two unsigned integers, reverting on\n     * overflow.\n     *\n     * Counterpart to Solidity's `*` operator.\n     *\n     * Requirements:\n     *\n     * - Multiplication cannot overflow.\n     */\n    function mul(uint256 a, uint256 b) internal pure returns (uint256) {\n        // Gas optimization: this is cheaper than requiring 'a' not being zero, but the\n        // benefit is lost if 'b' is also tested.\n        // See: https://github.com/OpenZeppelin/openzeppelin-contracts/pull/522\n        if (a == 0) {\n            return 0;\n        }\n\n        uint256 c = a * b;\n        require(c / a == b, \"SafeMath: multiplication overflow\");\n\n        return c;\n    }\n\n    /**\n     * @dev Returns the integer division of two unsigned integers. Reverts on\n     * division by zero. The result is rounded towards zero.\n     *\n     * Counterpart to Solidity's `/` operator. Note: this function uses a\n     * `revert` opcode (which leaves remaining gas untouched) while Solidity\n     * uses an invalid opcode to revert (consuming all remaining gas).\n     *\n     * Requirements:\n     *\n     * - The divisor cannot be zero.\n     */\n    function div(uint256 a, uint256 b) internal pure returns (uint256) {\n        return div(a, b, \"SafeMath: division by zero\");\n    }\n\n    /**\n     * @dev Returns the integer division of two unsigned integers. Reverts with custom message on\n     * division by zero. The result is rounded towards zero.\n     *\n     * Counterpart to Solidity's `/` operator. Note: this function uses a\n     * `revert` opcode (which leaves remaining gas untouched) while Solidity\n     * uses an invalid opcode to revert (consuming all remaining gas).\n     *\n     * Requirements:\n     *\n     * - The divisor cannot be zero.\n     */\n    function div(uint256 a, uint256 b, string memory errorMessage) internal pure returns (uint256) {\n        require(b > 0, errorMessage);\n        uint256 c = a / b;\n        // assert(a == b * c + a % b); // There is no case in which this doesn't hold\n\n        return c;\n    }\n\n    /**\n     * @dev Returns the remainder of dividing two unsigned integers. (unsigned integer modulo),\n     * Reverts when dividing by zero.\n     *\n     * Counterpart to Solidity's `%` operator. This function uses a `revert`\n     * opcode (which leaves remaining gas untouched) while Solidity uses an\n     * invalid opcode to revert (consuming all remaining gas).\n     *\n     * Requirements:\n     *\n     * - The divisor cannot be zero.\n     */\n    function mod(uint256 a, uint256 b) internal pure returns (uint256) {\n        return mod(a, b, \"SafeMath: modulo by zero\");\n    }\n\n    /**\n     * @dev Returns the remainder of dividing two unsigned integers. (unsigned integer modulo),\n     * Reverts with custom message when dividing by zero.\n     *\n     * Counterpart to Solidity's `%` operator. This function uses a `revert`\n     * opcode (which leaves remaining gas untouched) while Solidity uses an\n     * invalid opcode to revert (consuming all remaining gas).\n     *\n     * Requirements:\n     *\n     * - The divisor cannot be zero.\n     */\n    function mod(uint256 a, uint256 b, string memory errorMessage) internal pure returns (uint256) {\n        require(b != 0, errorMessage);\n        return a % b;\n    }\n}\n\n// TODOs\n// Anotate functions with comments\n// USE Open zieppelin as much as possible\n// USE pausable contract\n// CHECK for possible re-enterecy pitfalls\n\ncontract Betting {\n  using SafeMath for uint256;\n  struct Game {\n    string teamA;\n    string teamB;\n    string winner;\n    uint256 totalAmountStaked;\n    uint256 usersCount;\n    uint256 startTime;\n    uint256 endTime;\n    bool isOpen;\n  }\n\n  struct Stake {\n    string teamToWin;\n    bytes32 teamToWinHash;\n    uint256 totalAmountStaked;\n    uint256 stakePercentage;\n  }\n\n  address public owner;\n  uint256 private appBalance;\n  uint256 public gameId;\n  mapping (address => bool) public users;\n  mapping (address => uint256) public usersBalance;\n  mapping (uint256 => Game) public games;\n  mapping (address => mapping (uint256 => Stake)) public usersStakings;\n\n  constructor() {\n    owner = msg.sender;\n    gameId = 1;\n    appBalance = 0;\n  }\n\n  modifier isOwner {\n    require(msg.sender == owner, \"Only contract owner can perform this action\");\n    _;\n  }\n\n  modifier isSignedIn {\n    require(users[msg.sender] == true, \"User not registered\");\n    _;\n  }\n\n  modifier checkAmount(uint256 _amount) {\n    require(_amount <= usersBalance[msg.sender], \"Insufficient balance\");\n    _;\n  }\n\n  function signInUser(address _address) external {\n    require(_address != owner, \"Owner can not be registered\");\n    if(!users[_address] == true) {\n      users[_address] = true;\n      usersBalance[_address] = 0;\n\n      emit LogSignInUser(_address);\n    }\n  }\n\n  function signInStatus(address _address) external view returns (bool) {\n    return users[_address];\n  } \n\n  function addFunds() external payable isSignedIn { // Fund user in app wallet\n    usersBalance[msg.sender] += msg.value;\n    emit LogAddFunds(msg.sender, msg.value, usersBalance[msg.sender]);\n  }\n\n  function withdrawFunds(address payable _to, uint256 _amount) external payable isSignedIn checkAmount(_amount) returns (uint256) { // Withdraw funds to external wallet\n    usersBalance[msg.sender] -= _amount;\n    (bool success, ) = _to.call{value: _amount}(\"\");\n    require(success, \"Withdrawal failed\");\n    emit LogWithdrawFunds(msg.sender, _amount);\n    return _amount;\n  }\n\n  function addGame(string memory teamA, string memory teamB, uint256 startTime, uint256 endTime) external isOwner {\n    Game memory game;\n      game.teamA = teamA;\n      game.teamB = teamB;\n      game.winner = \"\";\n      game.totalAmountStaked = 0;\n      game.usersCount = 0;\n      game.startTime = startTime;\n      game.endTime = endTime;\n      game.isOpen = true;\n\n    games[gameId] = game;\n    gameId += 1;\n    emit LogAddGame(teamA, teamB, startTime, endTime);\n  }\n\n  function closeGame(uint256 _gameId) external isOwner {\n    require(games[_gameId].isOpen == true, \"This game is already closed\");\n    games[_gameId].isOpen = false;\n    emit LogCloseGame(_gameId);\n  }\n\n  function getAllGames() external view returns (Game[] memory) {\n    uint256 resultLength = gameId - 1;\n    Game[] memory result = new Game[](resultLength);\n    for(uint256 i = 0; i < resultLength; i++) {\n      result[i] = games[i + 1];\n    }\n    return result;\n  }\n\n  function submitBet(uint256 _gameId, string memory _teamToWin, uint256 _betStakeAmount) external isSignedIn checkAmount(_betStakeAmount) { // Register a bet with money from app wallet\n    require(games[_gameId].isOpen == true, \"This game is no longer accepting stakes\");\n    require(_betStakeAmount > 0, \"Bet stake amount must be greater than 0\");\n    address user = msg.sender;\n    bytes32 teamToWinHash = keccak256(abi.encodePacked(_teamToWin));\n    Stake storage userStaking = usersStakings[user][_gameId];\n\n    // User might be staking this bet for the first time or increasing thier initial stake\n    if(userStaking.totalAmountStaked == 0) {\n      Stake memory stake;\n      stake.teamToWin = _teamToWin;\n      stake.teamToWinHash = teamToWinHash;\n      stake.totalAmountStaked =  _betStakeAmount;\n\n      usersStakings[user][_gameId] = stake;\n      games[_gameId].usersCount = games[_gameId].usersCount.add(1);\n    } else {\n      require(userStaking.teamToWinHash == teamToWinHash, \"You're not allowed to stake on both sides of a game\");\n      userStaking.totalAmountStaked = userStaking.totalAmountStaked.add(_betStakeAmount);\n    }\n\n    usersBalance[user] = usersBalance[user].sub(_betStakeAmount);\n    games[_gameId].totalAmountStaked = games[_gameId].totalAmountStaked.add(_betStakeAmount);\n    appBalance = appBalance.add(_betStakeAmount);\n\n    // Compute user's stake percentage WRT total stake on this game\n    uint256 userTotalAmountStaked = userStaking.totalAmountStaked;\n    uint256 stakePercentage = userTotalAmountStaked.div(games[_gameId].totalAmountStaked).mul(100);\n    userStaking.stakePercentage = stakePercentage;\n    emit LogSubmitBet(msg.sender, _gameId, _teamToWin, _betStakeAmount, appBalance);\n  }\n\n  function updateGameWinner(uint256 _gameId, string memory _winner) external isOwner {\n    require(games[_gameId].isOpen == false, \"Can not update winner of an open game\");\n    require(bytes(games[_gameId].winner).length == 0, \"This game already has a winner\");\n\n    games[_gameId].winner = _winner;\n    emit LogUpdateGameWinner(_gameId, _winner);\n  }\n\n  function disburseBetFunds(uint256 _gameId) external isOwner returns (bool) {\n\n  }\n\n  // Events\n  event LogSignInUser(address indexed _address);\n  event LogAddFunds(address indexed _sender, uint256 _amount, uint256 _userBalance);\n  event LogWithdrawFunds(address indexed _to, uint256 _amount);\n  event LogAddGame(string _teamA, string _teamB, uint256 indexed _startTime, uint256 indexed _endTime);\n  event LogSubmitBet(address indexed _user, uint256 indexed _gameId, string _sideToWin, uint256 _betStakeAmount, uint256 _appBalance);\n  event LogUpdateGameWinner(uint256 indexed _gameId, string _winner);\n  event LogDisburseBetFunds(uint256 indexed _gameId);\n  event LogCloseGame(uint256 indexed _gameId);\n  \n}\n",
  "sourcePath": "/Users/mac/Desktop/blockchain-developer-bootcamp-final-project/contracts/Betting.sol",
  "compiler": {
    "name": "solc",
    "version": "0.7.1+commit.f4a555be.Emscripten.clang"
  },
  "schemaVersion": "3.4.3",
  "updatedAt": "2021-10-22T01:41:23.892Z",
  "networkType": "ethereum",
  "devdoc": {
    "kind": "dev",
    "methods": {},
    "version": 1
  },
  "userdoc": {
    "kind": "user",
    "methods": {},
    "version": 1
  }
}